{
  "contractName": "MainContract",
  "abi": [
    {
      "anonymous": false,
      "inputs": [
        {
          "indexed": false,
          "internalType": "address",
          "name": "doctorAddr",
          "type": "address"
        },
        {
          "indexed": false,
          "internalType": "string",
          "name": "doctorName",
          "type": "string"
        },
        {
          "indexed": false,
          "internalType": "string",
          "name": "doctorIC",
          "type": "string"
        },
        {
          "indexed": false,
          "internalType": "uint256",
          "name": "timestamp",
          "type": "uint256"
        }
      ],
      "name": "DoctorCreated",
      "type": "event"
    },
    {
      "anonymous": false,
      "inputs": [
        {
          "indexed": false,
          "internalType": "address",
          "name": "patientAddr",
          "type": "address"
        },
        {
          "indexed": false,
          "internalType": "string",
          "name": "patientName",
          "type": "string"
        },
        {
          "indexed": false,
          "internalType": "string",
          "name": "patientIC",
          "type": "string"
        },
        {
          "indexed": false,
          "internalType": "uint256",
          "name": "timestamp",
          "type": "uint256"
        }
      ],
      "name": "PatientCreated",
      "type": "event"
    },
    {
      "anonymous": false,
      "inputs": [
        {
          "indexed": false,
          "internalType": "string",
          "name": "encryptedID",
          "type": "string"
        },
        {
          "indexed": false,
          "internalType": "string",
          "name": "dataHash",
          "type": "string"
        },
        {
          "indexed": false,
          "internalType": "address",
          "name": "issuerDoctorAddr",
          "type": "address"
        },
        {
          "indexed": false,
          "internalType": "uint256",
          "name": "timestamp",
          "type": "uint256"
        },
        {
          "indexed": false,
          "internalType": "enum MainContract.RecordStatus",
          "name": "recordStatus",
          "type": "uint8"
        },
        {
          "indexed": false,
          "internalType": "address",
          "name": "patientAddr",
          "type": "address"
        }
      ],
      "name": "RecordCreated",
      "type": "event"
    },
    {
      "anonymous": false,
      "inputs": [
        {
          "indexed": false,
          "internalType": "address",
          "name": "patientAddr",
          "type": "address"
        },
        {
          "indexed": false,
          "internalType": "address",
          "name": "doctorAddr",
          "type": "address"
        },
        {
          "indexed": false,
          "internalType": "uint256",
          "name": "timestamp",
          "type": "uint256"
        }
      ],
      "name": "WhitelistDoctor",
      "type": "event"
    },
    {
      "inputs": [
        {
          "internalType": "address",
          "name": "",
          "type": "address"
        }
      ],
      "name": "doctorList",
      "outputs": [
        {
          "components": [
            {
              "internalType": "address",
              "name": "addr",
              "type": "address"
            },
            {
              "internalType": "string",
              "name": "IC",
              "type": "string"
            },
            {
              "internalType": "string",
              "name": "name",
              "type": "string"
            },
            {
              "internalType": "string",
              "name": "gender",
              "type": "string"
            },
            {
              "internalType": "string",
              "name": "birthdate",
              "type": "string"
            },
            {
              "internalType": "string",
              "name": "email",
              "type": "string"
            },
            {
              "internalType": "string",
              "name": "homeAddress",
              "type": "string"
            },
            {
              "internalType": "string",
              "name": "phone",
              "type": "string"
            },
            {
              "internalType": "uint256",
              "name": "userSince",
              "type": "uint256"
            }
          ],
          "internalType": "struct MainContract.User",
          "name": "primaryInfo",
          "type": "tuple"
        },
        {
          "internalType": "string",
          "name": "qualification",
          "type": "string"
        },
        {
          "internalType": "string",
          "name": "major",
          "type": "string"
        }
      ],
      "stateMutability": "view",
      "type": "function",
      "constant": true
    },
    {
      "inputs": [
        {
          "internalType": "uint256",
          "name": "",
          "type": "uint256"
        }
      ],
      "name": "doctors",
      "outputs": [
        {
          "internalType": "address",
          "name": "",
          "type": "address"
        }
      ],
      "stateMutability": "view",
      "type": "function",
      "constant": true
    },
    {
      "inputs": [
        {
          "internalType": "address",
          "name": "",
          "type": "address"
        }
      ],
      "name": "patientList",
      "outputs": [
        {
          "components": [
            {
              "internalType": "address",
              "name": "addr",
              "type": "address"
            },
            {
              "internalType": "string",
              "name": "IC",
              "type": "string"
            },
            {
              "internalType": "string",
              "name": "name",
              "type": "string"
            },
            {
              "internalType": "string",
              "name": "gender",
              "type": "string"
            },
            {
              "internalType": "string",
              "name": "birthdate",
              "type": "string"
            },
            {
              "internalType": "string",
              "name": "email",
              "type": "string"
            },
            {
              "internalType": "string",
              "name": "homeAddress",
              "type": "string"
            },
            {
              "internalType": "string",
              "name": "phone",
              "type": "string"
            },
            {
              "internalType": "uint256",
              "name": "userSince",
              "type": "uint256"
            }
          ],
          "internalType": "struct MainContract.User",
          "name": "primaryInfo",
          "type": "tuple"
        },
        {
          "internalType": "string",
          "name": "emergencyContact",
          "type": "string"
        },
        {
          "internalType": "string",
          "name": "emergencyNumber",
          "type": "string"
        },
        {
          "internalType": "string",
          "name": "bloodType",
          "type": "string"
        },
        {
          "internalType": "string",
          "name": "height",
          "type": "string"
        },
        {
          "internalType": "string",
          "name": "weight",
          "type": "string"
        }
      ],
      "stateMutability": "view",
      "type": "function",
      "constant": true
    },
    {
      "inputs": [
        {
          "internalType": "uint256",
          "name": "",
          "type": "uint256"
        }
      ],
      "name": "patients",
      "outputs": [
        {
          "internalType": "address",
          "name": "",
          "type": "address"
        }
      ],
      "stateMutability": "view",
      "type": "function",
      "constant": true
    },
    {
      "inputs": [
        {
          "internalType": "string",
          "name": "",
          "type": "string"
        }
      ],
      "name": "recordList",
      "outputs": [
        {
          "internalType": "string",
          "name": "encryptedID",
          "type": "string"
        },
        {
          "internalType": "string",
          "name": "dataHash",
          "type": "string"
        },
        {
          "internalType": "address",
          "name": "issuerDoctorAddr",
          "type": "address"
        },
        {
          "internalType": "uint256",
          "name": "timestamp",
          "type": "uint256"
        },
        {
          "internalType": "enum MainContract.RecordStatus",
          "name": "recordStatus",
          "type": "uint8"
        }
      ],
      "stateMutability": "view",
      "type": "function",
      "constant": true
    },
    {
      "inputs": [],
      "name": "totalDoctors",
      "outputs": [
        {
          "internalType": "uint256",
          "name": "",
          "type": "uint256"
        }
      ],
      "stateMutability": "view",
      "type": "function",
      "constant": true
    },
    {
      "inputs": [],
      "name": "totalPatients",
      "outputs": [
        {
          "internalType": "uint256",
          "name": "",
          "type": "uint256"
        }
      ],
      "stateMutability": "view",
      "type": "function",
      "constant": true
    },
    {
      "inputs": [
        {
          "components": [
            {
              "internalType": "address",
              "name": "addr",
              "type": "address"
            },
            {
              "internalType": "string",
              "name": "IC",
              "type": "string"
            },
            {
              "internalType": "string",
              "name": "name",
              "type": "string"
            },
            {
              "internalType": "string",
              "name": "gender",
              "type": "string"
            },
            {
              "internalType": "string",
              "name": "birthdate",
              "type": "string"
            },
            {
              "internalType": "string",
              "name": "email",
              "type": "string"
            },
            {
              "internalType": "string",
              "name": "homeAddress",
              "type": "string"
            },
            {
              "internalType": "string",
              "name": "phone",
              "type": "string"
            },
            {
              "internalType": "uint256",
              "name": "userSince",
              "type": "uint256"
            }
          ],
          "internalType": "struct MainContract.User",
          "name": "userInfo",
          "type": "tuple"
        },
        {
          "internalType": "string",
          "name": "_emergencyContact",
          "type": "string"
        },
        {
          "internalType": "string",
          "name": "_emergencyNumber",
          "type": "string"
        },
        {
          "internalType": "string",
          "name": "_bloodType",
          "type": "string"
        },
        {
          "internalType": "string",
          "name": "_height",
          "type": "string"
        },
        {
          "internalType": "string",
          "name": "_weight",
          "type": "string"
        },
        {
          "internalType": "address[]",
          "name": "_whitelistedDoctor",
          "type": "address[]"
        },
        {
          "internalType": "string[]",
          "name": "_recordList",
          "type": "string[]"
        }
      ],
      "name": "createPatient",
      "outputs": [],
      "stateMutability": "nonpayable",
      "type": "function"
    },
    {
      "inputs": [
        {
          "components": [
            {
              "internalType": "address",
              "name": "addr",
              "type": "address"
            },
            {
              "internalType": "string",
              "name": "IC",
              "type": "string"
            },
            {
              "internalType": "string",
              "name": "name",
              "type": "string"
            },
            {
              "internalType": "string",
              "name": "gender",
              "type": "string"
            },
            {
              "internalType": "string",
              "name": "birthdate",
              "type": "string"
            },
            {
              "internalType": "string",
              "name": "email",
              "type": "string"
            },
            {
              "internalType": "string",
              "name": "homeAddress",
              "type": "string"
            },
            {
              "internalType": "string",
              "name": "phone",
              "type": "string"
            },
            {
              "internalType": "uint256",
              "name": "userSince",
              "type": "uint256"
            }
          ],
          "internalType": "struct MainContract.User",
          "name": "userInfo",
          "type": "tuple"
        },
        {
          "internalType": "string",
          "name": "_emergencyContact",
          "type": "string"
        },
        {
          "internalType": "string",
          "name": "_emergencyNumber",
          "type": "string"
        },
        {
          "internalType": "string",
          "name": "_bloodType",
          "type": "string"
        },
        {
          "internalType": "string",
          "name": "_height",
          "type": "string"
        },
        {
          "internalType": "string",
          "name": "_weight",
          "type": "string"
        },
        {
          "internalType": "address[]",
          "name": "_whitelistedDoctor",
          "type": "address[]"
        },
        {
          "internalType": "string[]",
          "name": "_recordList",
          "type": "string[]"
        }
      ],
      "name": "setPatientDetails",
      "outputs": [],
      "stateMutability": "nonpayable",
      "type": "function"
    },
    {
      "inputs": [
        {
          "internalType": "address",
          "name": "doctorAddress",
          "type": "address"
        },
        {
          "internalType": "address",
          "name": "patientAddress",
          "type": "address"
        }
      ],
      "name": "addWhitelistedDoctor",
      "outputs": [],
      "stateMutability": "nonpayable",
      "type": "function"
    },
    {
      "inputs": [
        {
          "internalType": "address",
          "name": "doctorAddress",
          "type": "address"
        },
        {
          "internalType": "address",
          "name": "patientAddress",
          "type": "address"
        }
      ],
      "name": "removeWhitelistedDoctor",
      "outputs": [],
      "stateMutability": "nonpayable",
      "type": "function"
    },
    {
      "inputs": [
        {
          "internalType": "address",
          "name": "patientAddress",
          "type": "address"
        }
      ],
      "name": "getPatientDetails",
      "outputs": [
        {
          "components": [
            {
              "components": [
                {
                  "internalType": "address",
                  "name": "addr",
                  "type": "address"
                },
                {
                  "internalType": "string",
                  "name": "IC",
                  "type": "string"
                },
                {
                  "internalType": "string",
                  "name": "name",
                  "type": "string"
                },
                {
                  "internalType": "string",
                  "name": "gender",
                  "type": "string"
                },
                {
                  "internalType": "string",
                  "name": "birthdate",
                  "type": "string"
                },
                {
                  "internalType": "string",
                  "name": "email",
                  "type": "string"
                },
                {
                  "internalType": "string",
                  "name": "homeAddress",
                  "type": "string"
                },
                {
                  "internalType": "string",
                  "name": "phone",
                  "type": "string"
                },
                {
                  "internalType": "uint256",
                  "name": "userSince",
                  "type": "uint256"
                }
              ],
              "internalType": "struct MainContract.User",
              "name": "primaryInfo",
              "type": "tuple"
            },
            {
              "internalType": "string",
              "name": "emergencyContact",
              "type": "string"
            },
            {
              "internalType": "string",
              "name": "emergencyNumber",
              "type": "string"
            },
            {
              "internalType": "string",
              "name": "bloodType",
              "type": "string"
            },
            {
              "internalType": "string",
              "name": "height",
              "type": "string"
            },
            {
              "internalType": "string",
              "name": "weight",
              "type": "string"
            },
            {
              "internalType": "address[]",
              "name": "whitelistedDoctor",
              "type": "address[]"
            },
            {
              "internalType": "string[]",
              "name": "recordList",
              "type": "string[]"
            }
          ],
          "internalType": "struct MainContract.Patient",
          "name": "",
          "type": "tuple"
        }
      ],
      "stateMutability": "view",
      "type": "function",
      "constant": true
    },
    {
      "inputs": [
        {
          "components": [
            {
              "internalType": "address",
              "name": "addr",
              "type": "address"
            },
            {
              "internalType": "string",
              "name": "IC",
              "type": "string"
            },
            {
              "internalType": "string",
              "name": "name",
              "type": "string"
            },
            {
              "internalType": "string",
              "name": "gender",
              "type": "string"
            },
            {
              "internalType": "string",
              "name": "birthdate",
              "type": "string"
            },
            {
              "internalType": "string",
              "name": "email",
              "type": "string"
            },
            {
              "internalType": "string",
              "name": "homeAddress",
              "type": "string"
            },
            {
              "internalType": "string",
              "name": "phone",
              "type": "string"
            },
            {
              "internalType": "uint256",
              "name": "userSince",
              "type": "uint256"
            }
          ],
          "internalType": "struct MainContract.User",
          "name": "userInfo",
          "type": "tuple"
        },
        {
          "internalType": "string",
          "name": "_qualification",
          "type": "string"
        },
        {
          "internalType": "string",
          "name": "_major",
          "type": "string"
        }
      ],
      "name": "createDoctor",
      "outputs": [],
      "stateMutability": "nonpayable",
      "type": "function"
    },
    {
      "inputs": [
        {
          "components": [
            {
              "internalType": "address",
              "name": "addr",
              "type": "address"
            },
            {
              "internalType": "string",
              "name": "IC",
              "type": "string"
            },
            {
              "internalType": "string",
              "name": "name",
              "type": "string"
            },
            {
              "internalType": "string",
              "name": "gender",
              "type": "string"
            },
            {
              "internalType": "string",
              "name": "birthdate",
              "type": "string"
            },
            {
              "internalType": "string",
              "name": "email",
              "type": "string"
            },
            {
              "internalType": "string",
              "name": "homeAddress",
              "type": "string"
            },
            {
              "internalType": "string",
              "name": "phone",
              "type": "string"
            },
            {
              "internalType": "uint256",
              "name": "userSince",
              "type": "uint256"
            }
          ],
          "internalType": "struct MainContract.User",
          "name": "userInfo",
          "type": "tuple"
        },
        {
          "internalType": "string",
          "name": "_qualification",
          "type": "string"
        },
        {
          "internalType": "string",
          "name": "_major",
          "type": "string"
        }
      ],
      "name": "setDoctorDetails",
      "outputs": [],
      "stateMutability": "nonpayable",
      "type": "function"
    },
    {
      "inputs": [
        {
          "internalType": "address",
          "name": "doctorAddress",
          "type": "address"
        }
      ],
      "name": "getDoctorDetails",
      "outputs": [
        {
          "components": [
            {
              "components": [
                {
                  "internalType": "address",
                  "name": "addr",
                  "type": "address"
                },
                {
                  "internalType": "string",
                  "name": "IC",
                  "type": "string"
                },
                {
                  "internalType": "string",
                  "name": "name",
                  "type": "string"
                },
                {
                  "internalType": "string",
                  "name": "gender",
                  "type": "string"
                },
                {
                  "internalType": "string",
                  "name": "birthdate",
                  "type": "string"
                },
                {
                  "internalType": "string",
                  "name": "email",
                  "type": "string"
                },
                {
                  "internalType": "string",
                  "name": "homeAddress",
                  "type": "string"
                },
                {
                  "internalType": "string",
                  "name": "phone",
                  "type": "string"
                },
                {
                  "internalType": "uint256",
                  "name": "userSince",
                  "type": "uint256"
                }
              ],
              "internalType": "struct MainContract.User",
              "name": "primaryInfo",
              "type": "tuple"
            },
            {
              "internalType": "string",
              "name": "qualification",
              "type": "string"
            },
            {
              "internalType": "string",
              "name": "major",
              "type": "string"
            }
          ],
          "internalType": "struct MainContract.Doctor",
          "name": "",
          "type": "tuple"
        }
      ],
      "stateMutability": "view",
      "type": "function",
      "constant": true
    },
    {
      "inputs": [
        {
          "internalType": "string",
          "name": "_encryptedID",
          "type": "string"
        },
        {
          "internalType": "string",
          "name": "_dataHash",
          "type": "string"
        },
        {
          "internalType": "address",
          "name": "_issuerDoctorAddr",
          "type": "address"
        },
        {
          "internalType": "address",
          "name": "_patientAddr",
          "type": "address"
        }
      ],
      "name": "createRecord",
      "outputs": [],
      "stateMutability": "nonpayable",
      "type": "function"
    },
    {
      "inputs": [
        {
          "internalType": "string",
          "name": "_encryptedID",
          "type": "string"
        }
      ],
      "name": "getRecordDetails",
      "outputs": [
        {
          "components": [
            {
              "internalType": "string",
              "name": "encryptedID",
              "type": "string"
            },
            {
              "internalType": "string",
              "name": "dataHash",
              "type": "string"
            },
            {
              "internalType": "address",
              "name": "issuerDoctorAddr",
              "type": "address"
            },
            {
              "internalType": "uint256",
              "name": "timestamp",
              "type": "uint256"
            },
            {
              "internalType": "enum MainContract.RecordStatus",
              "name": "recordStatus",
              "type": "uint8"
            }
          ],
          "internalType": "struct MainContract.Record",
          "name": "",
          "type": "tuple"
        }
      ],
      "stateMutability": "view",
      "type": "function",
      "constant": true
    },
    {
      "inputs": [
        {
          "internalType": "string",
          "name": "_encryptedID",
          "type": "string"
        },
        {
          "internalType": "string",
          "name": "_dataHash",
          "type": "string"
        },
        {
          "internalType": "address",
          "name": "_issuerDoctorAddr",
          "type": "address"
        },
        {
          "internalType": "enum MainContract.RecordStatus",
          "name": "_recordStatus",
          "type": "uint8"
        }
      ],
      "name": "editRecord",
      "outputs": [],
      "stateMutability": "nonpayable",
      "type": "function"
    },
    {
      "inputs": [
        {
          "internalType": "string",
          "name": "_encryptedID",
          "type": "string"
        },
        {
          "internalType": "address",
          "name": "_patientAddress",
          "type": "address"
        }
      ],
      "name": "removeRecord",
      "outputs": [],
      "stateMutability": "nonpayable",
      "type": "function"
    }
  ],
  "bytecode": "0x608060405260008055600060015534801561001957600080fd5b50615ff0806200002a6000396000f3fe608060405234801561001057600080fd5b50600436106101215760003560e01c806393119a83116100ad578063deb5ef0911610071578063deb5ef0914610331578063e4a6d0f01461034f578063e6224df41461036b578063efe2ccc11461039d578063f40339a4146103cd57610121565b806393119a8314610264578063b6b8ba3614610294578063b715962c146102b0578063bab90dbd146102cc578063da2e626f146102fc57610121565b80634fce2b68116100f45780634fce2b68146101c257806365b44d7e146101de5780636efb1b84146101fc578063879272151461022c5780638e55966d1461024857610121565b80631a9e48f5146101265780631bc7a79a1461015657806322d0741b14610172578063448259e81461018e575b600080fd5b610140600480360381019061013b9190614e4b565b6103e9565b60405161014d9190615a66565b60405180910390f35b610170600480360381019061016b9190615006565b61062c565b005b61018c60048036038101906101879190614ee0565b6109d1565b005b6101a860048036038101906101a39190614e4b565b610d17565b6040516101b9959493929190615952565b60405180910390f35b6101dc60048036038101906101d79190614e0f565b610ea0565b005b6101e661102e565b6040516101f39190615b5f565b60405180910390f35b6102166004803603810190610211919061520f565b611034565b60405161022391906158ad565b60405180910390f35b6102466004803603810190610241919061509d565b611067565b005b610262600480360381019061025d9190614e8c565b611666565b005b61027e6004803603810190610279919061520f565b611aee565b60405161028b91906158ad565b60405180910390f35b6102ae60048036038101906102a9919061509d565b611b21565b005b6102ca60048036038101906102c59190615006565b612134565b005b6102e660048036038101906102e19190614de6565b6124c3565b6040516102f39190615a22565b60405180910390f35b61031660048036038101906103119190614de6565b612ab3565b60405161032896959493929190615ad4565b60405180910390f35b610339613200565b6040516103469190615b5f565b60405180910390f35b61036960048036038101906103649190614f73565b613206565b005b61038560048036038101906103809190614de6565b6133a8565b60405161039493929190615a88565b60405180910390f35b6103b760048036038101906103b29190614de6565b61394b565b6040516103c49190615a44565b60405180910390f35b6103e760048036038101906103e29190614e0f565b614259565b005b6103f16146cf565b600682604051610401919061587f565b90815260200160405180910390206040518060a001604052908160008201805461042a90615dbe565b80601f016020809104026020016040519081016040528092919081815260200182805461045690615dbe565b80156104a35780601f10610478576101008083540402835291602001916104a3565b820191906000526020600020905b81548152906001019060200180831161048657829003601f168201915b505050505081526020016001820180546104bc90615dbe565b80601f01602080910402602001604051908101604052809291908181526020018280546104e890615dbe565b80156105355780601f1061050a57610100808354040283529160200191610535565b820191906000526020600020905b81548152906001019060200180831161051857829003601f168201915b505050505081526020016002820160009054906101000a900473ffffffffffffffffffffffffffffffffffffffff1673ffffffffffffffffffffffffffffffffffffffff1673ffffffffffffffffffffffffffffffffffffffff168152602001600382015481526020016004820160009054906101000a900460ff1660028111156105e9577f4e487b7100000000000000000000000000000000000000000000000000000000600052602160045260246000fd5b6002811115610621577f4e487b7100000000000000000000000000000000000000000000000000000000600052602160045260246000fd5b815250509050919050565b600083600001519050600860008273ffffffffffffffffffffffffffffffffffffffff1673ffffffffffffffffffffffffffffffffffffffff16815260200190815260200160002060009054906101000a900460ff1661068b57600080fd5b8360200151600560008373ffffffffffffffffffffffffffffffffffffffff1673ffffffffffffffffffffffffffffffffffffffff16815260200190815260200160002060000160010190805190602001906106e892919061474c565b508360400151600560008373ffffffffffffffffffffffffffffffffffffffff1673ffffffffffffffffffffffffffffffffffffffff168152602001908152602001600020600001600201908051906020019061074692919061474c565b508360600151600560008373ffffffffffffffffffffffffffffffffffffffff1673ffffffffffffffffffffffffffffffffffffffff16815260200190815260200160002060000160030190805190602001906107a492919061474c565b508360800151600560008373ffffffffffffffffffffffffffffffffffffffff1673ffffffffffffffffffffffffffffffffffffffff168152602001908152602001600020600001600401908051906020019061080292919061474c565b508360a00151600560008373ffffffffffffffffffffffffffffffffffffffff1673ffffffffffffffffffffffffffffffffffffffff168152602001908152602001600020600001600501908051906020019061086092919061474c565b508360c00151600560008373ffffffffffffffffffffffffffffffffffffffff1673ffffffffffffffffffffffffffffffffffffffff16815260200190815260200160002060000160060190805190602001906108be92919061474c565b508360e00151600560008373ffffffffffffffffffffffffffffffffffffffff1673ffffffffffffffffffffffffffffffffffffffff168152602001908152602001600020600001600701908051906020019061091c92919061474c565b5082600560008373ffffffffffffffffffffffffffffffffffffffff1673ffffffffffffffffffffffffffffffffffffffff168152602001908152602001600020600901908051906020019061097392919061474c565b5081600560008373ffffffffffffffffffffffffffffffffffffffff1673ffffffffffffffffffffffffffffffffffffffff168152602001908152602001600020600a0190805190602001906109ca92919061474c565b5050505050565b600860008373ffffffffffffffffffffffffffffffffffffffff1673ffffffffffffffffffffffffffffffffffffffff16815260200190815260200160002060009054906101000a900460ff16610a2757600080fd5b600760008273ffffffffffffffffffffffffffffffffffffffff1673ffffffffffffffffffffffffffffffffffffffff16815260200190815260200160002060009054906101000a900460ff16610a7d57600080fd5b600984604051610a8d919061587f565b908152602001604051809103902060009054906101000a900460ff1615610ab357600080fd5b6000429050600085600687604051610acb919061587f565b90815260200160405180910390206000019080519060200190610aef92919061474c565b5084600687604051610b01919061587f565b90815260200160405180910390206001019080519060200190610b2592919061474c565b5083600687604051610b37919061587f565b908152602001604051809103902060020160006101000a81548173ffffffffffffffffffffffffffffffffffffffff021916908373ffffffffffffffffffffffffffffffffffffffff16021790555081600687604051610b97919061587f565b90815260200160405180910390206003018190555080600687604051610bbd919061587f565b908152602001604051809103902060040160006101000a81548160ff02191690836002811115610c16577f4e487b7100000000000000000000000000000000000000000000000000000000600052602160045260246000fd5b0217905550600460008473ffffffffffffffffffffffffffffffffffffffff1673ffffffffffffffffffffffffffffffffffffffff168152602001908152602001600020600f0186908060018154018082558091505060019003906000526020600020016000909190919091509080519060200190610c9692919061474c565b506001600987604051610ca9919061587f565b908152602001604051809103902060006101000a81548160ff0219169083151502179055507fa8f9b0e7d42327661d46e236a278fc31bd69ab6e6da45464ed9722bbb8503f09868686858588604051610d07969594939291906159b3565b60405180910390a1505050505050565b600681805160208101820180518482526020830160208501208183528095505050505050600091509050806000018054610d5090615dbe565b80601f0160208091040260200160405190810160405280929190818152602001828054610d7c90615dbe565b8015610dc95780601f10610d9e57610100808354040283529160200191610dc9565b820191906000526020600020905b815481529060010190602001808311610dac57829003601f168201915b505050505090806001018054610dde90615dbe565b80601f0160208091040260200160405190810160405280929190818152602001828054610e0a90615dbe565b8015610e575780601f10610e2c57610100808354040283529160200191610e57565b820191906000526020600020905b815481529060010190602001808311610e3a57829003601f168201915b5050505050908060020160009054906101000a900473ffffffffffffffffffffffffffffffffffffffff16908060030154908060040160009054906101000a900460ff16905085565b600860008373ffffffffffffffffffffffffffffffffffffffff1673ffffffffffffffffffffffffffffffffffffffff16815260200190815260200160002060009054906101000a900460ff16610ef657600080fd5b600760008273ffffffffffffffffffffffffffffffffffffffff1673ffffffffffffffffffffffffffffffffffffffff16815260200190815260200160002060009054906101000a900460ff16610f4c57600080fd5b600460008273ffffffffffffffffffffffffffffffffffffffff1673ffffffffffffffffffffffffffffffffffffffff168152602001908152602001600020600e01829080600181540180825580915050600190039060005260206000200160009091909190916101000a81548173ffffffffffffffffffffffffffffffffffffffff021916908373ffffffffffffffffffffffffffffffffffffffff1602179055507fa58fd95ad438335ebea70c43acd7ba96835900dab734d4444ebcd10b286c8bd1828242604051611022939291906158c8565b60405180910390a15050565b60015481565b60036020528060005260406000206000915054906101000a900473ffffffffffffffffffffffffffffffffffffffff1681565b600088600001519050600760008a6000015173ffffffffffffffffffffffffffffffffffffffff1673ffffffffffffffffffffffffffffffffffffffff16815260200190815260200160002060009054906101000a900460ff16156110cb57600080fd5b6001600760008373ffffffffffffffffffffffffffffffffffffffff1673ffffffffffffffffffffffffffffffffffffffff16815260200190815260200160002060006101000a81548160ff0219169083151502179055506000896101000151905089600460008473ffffffffffffffffffffffffffffffffffffffff1673ffffffffffffffffffffffffffffffffffffffff16815260200190815260200160002060000160008201518160000160006101000a81548173ffffffffffffffffffffffffffffffffffffffff021916908373ffffffffffffffffffffffffffffffffffffffff16021790555060208201518160010190805190602001906111d392919061474c565b5060408201518160020190805190602001906111f092919061474c565b50606082015181600301908051906020019061120d92919061474c565b50608082015181600401908051906020019061122a92919061474c565b5060a082015181600501908051906020019061124792919061474c565b5060c082015181600601908051906020019061126492919061474c565b5060e082015181600701908051906020019061128192919061474c565b50610100820151816008015590505088600460008473ffffffffffffffffffffffffffffffffffffffff1673ffffffffffffffffffffffffffffffffffffffff16815260200190815260200160002060090190805190602001906112e692919061474c565b5087600460008473ffffffffffffffffffffffffffffffffffffffff1673ffffffffffffffffffffffffffffffffffffffff168152602001908152602001600020600a01908051906020019061133d92919061474c565b5086600460008473ffffffffffffffffffffffffffffffffffffffff1673ffffffffffffffffffffffffffffffffffffffff168152602001908152602001600020600b01908051906020019061139492919061474c565b5085600460008473ffffffffffffffffffffffffffffffffffffffff1673ffffffffffffffffffffffffffffffffffffffff168152602001908152602001600020600c0190805190602001906113eb92919061474c565b5084600460008473ffffffffffffffffffffffffffffffffffffffff1673ffffffffffffffffffffffffffffffffffffffff168152602001908152602001600020600d01908051906020019061144292919061474c565b5060005b84518110156114f8576008600086838151811061148c577f4e487b7100000000000000000000000000000000000000000000000000000000600052603260045260246000fd5b602002602001015173ffffffffffffffffffffffffffffffffffffffff1673ffffffffffffffffffffffffffffffffffffffff16815260200190815260200160002060009054906101000a900460ff166114e557600080fd5b80806114f090615e21565b915050611446565b5083600460008473ffffffffffffffffffffffffffffffffffffffff1673ffffffffffffffffffffffffffffffffffffffff168152602001908152602001600020600e01908051906020019061154f9291906147d2565b5082600460008473ffffffffffffffffffffffffffffffffffffffff1673ffffffffffffffffffffffffffffffffffffffff168152602001908152602001600020600f0190805190602001906115a692919061485c565b506000808154809291906115b990615e21565b919050555081600260008054815260200190815260200160002060006101000a81548173ffffffffffffffffffffffffffffffffffffffff021916908373ffffffffffffffffffffffffffffffffffffffff1602179055507f88a4b268a245c7e81b8962a18a5abe198a80bfa3d1ea8dd32a9e468ed97f265b8a600001518b604001518c602001518460405161165294939291906158ff565b60405180910390a150505050505050505050565b600760008273ffffffffffffffffffffffffffffffffffffffff1673ffffffffffffffffffffffffffffffffffffffff16815260200190815260200160002060009054906101000a900460ff166116bc57600080fd5b6009826040516116cc919061587f565b908152602001604051809103902060009054906101000a900460ff166116f157600080fd5b600982604051611701919061587f565b908152602001604051809103902060006101000a81549060ff021916905560068260405161172f919061587f565b90815260200160405180910390206000808201600061174e91906148bc565b60018201600061175e91906148bc565b6002820160006101000a81549073ffffffffffffffffffffffffffffffffffffffff021916905560038201600090556004820160006101000a81549060ff0219169055505060005b600460008373ffffffffffffffffffffffffffffffffffffffff1673ffffffffffffffffffffffffffffffffffffffff168152602001908152602001600020600f0180549050811015611ae95782604051602001611804919061587f565b60405160208183030381529060405280519060200120600460008473ffffffffffffffffffffffffffffffffffffffff1673ffffffffffffffffffffffffffffffffffffffff168152602001908152602001600020600f018281548110611894577f4e487b7100000000000000000000000000000000000000000000000000000000600052603260045260246000fd5b906000526020600020016040516020016118ae9190615896565b604051602081830303815290604052805190602001201415611ad657600460008373ffffffffffffffffffffffffffffffffffffffff1673ffffffffffffffffffffffffffffffffffffffff168152602001908152602001600020600f016001600460008573ffffffffffffffffffffffffffffffffffffffff1673ffffffffffffffffffffffffffffffffffffffff168152602001908152602001600020600f018054905061195e9190615ce7565b81548110611995577f4e487b7100000000000000000000000000000000000000000000000000000000600052603260045260246000fd5b90600052602060002001600460008473ffffffffffffffffffffffffffffffffffffffff1673ffffffffffffffffffffffffffffffffffffffff168152602001908152602001600020600f018281548110611a19577f4e487b7100000000000000000000000000000000000000000000000000000000600052603260045260246000fd5b90600052602060002001908054611a2f90615dbe565b611a3a9291906148fc565b50600460008373ffffffffffffffffffffffffffffffffffffffff1673ffffffffffffffffffffffffffffffffffffffff168152602001908152602001600020600f01805480611ab3577f4e487b7100000000000000000000000000000000000000000000000000000000600052603160045260246000fd5b600190038181906000526020600020016000611acf91906148bc565b9055611ae9565b8080611ae190615e21565b9150506117a6565b505050565b60026020528060005260406000206000915054906101000a900473ffffffffffffffffffffffffffffffffffffffff1681565b600088600001519050600760008273ffffffffffffffffffffffffffffffffffffffff1673ffffffffffffffffffffffffffffffffffffffff16815260200190815260200160002060009054906101000a900460ff16611b8057600080fd5b8860200151600460008373ffffffffffffffffffffffffffffffffffffffff1673ffffffffffffffffffffffffffffffffffffffff1681526020019081526020016000206000016001019080519060200190611bdd92919061474c565b508860400151600460008373ffffffffffffffffffffffffffffffffffffffff1673ffffffffffffffffffffffffffffffffffffffff1681526020019081526020016000206000016002019080519060200190611c3b92919061474c565b508860600151600460008373ffffffffffffffffffffffffffffffffffffffff1673ffffffffffffffffffffffffffffffffffffffff1681526020019081526020016000206000016003019080519060200190611c9992919061474c565b508860800151600460008373ffffffffffffffffffffffffffffffffffffffff1673ffffffffffffffffffffffffffffffffffffffff1681526020019081526020016000206000016004019080519060200190611cf792919061474c565b508860a00151600460008373ffffffffffffffffffffffffffffffffffffffff1673ffffffffffffffffffffffffffffffffffffffff1681526020019081526020016000206000016005019080519060200190611d5592919061474c565b508860c00151600460008373ffffffffffffffffffffffffffffffffffffffff1673ffffffffffffffffffffffffffffffffffffffff1681526020019081526020016000206000016006019080519060200190611db392919061474c565b508860e00151600460008373ffffffffffffffffffffffffffffffffffffffff1673ffffffffffffffffffffffffffffffffffffffff1681526020019081526020016000206000016007019080519060200190611e1192919061474c565b5087600460008373ffffffffffffffffffffffffffffffffffffffff1673ffffffffffffffffffffffffffffffffffffffff1681526020019081526020016000206009019080519060200190611e6892919061474c565b5086600460008373ffffffffffffffffffffffffffffffffffffffff1673ffffffffffffffffffffffffffffffffffffffff168152602001908152602001600020600a019080519060200190611ebf92919061474c565b5085600460008373ffffffffffffffffffffffffffffffffffffffff1673ffffffffffffffffffffffffffffffffffffffff168152602001908152602001600020600b019080519060200190611f1692919061474c565b5084600460008373ffffffffffffffffffffffffffffffffffffffff1673ffffffffffffffffffffffffffffffffffffffff168152602001908152602001600020600c019080519060200190611f6d92919061474c565b5083600460008373ffffffffffffffffffffffffffffffffffffffff1673ffffffffffffffffffffffffffffffffffffffff168152602001908152602001600020600d019080519060200190611fc492919061474c565b5060005b835181101561207a576008600085838151811061200e577f4e487b7100000000000000000000000000000000000000000000000000000000600052603260045260246000fd5b602002602001015173ffffffffffffffffffffffffffffffffffffffff1673ffffffffffffffffffffffffffffffffffffffff16815260200190815260200160002060009054906101000a900460ff1661206757600080fd5b808061207290615e21565b915050611fc8565b5082600460008373ffffffffffffffffffffffffffffffffffffffff1673ffffffffffffffffffffffffffffffffffffffff168152602001908152602001600020600e0190805190602001906120d19291906147d2565b5081600460008373ffffffffffffffffffffffffffffffffffffffff1673ffffffffffffffffffffffffffffffffffffffff168152602001908152602001600020600f01908051906020019061212892919061485c565b50505050505050505050565b600083600001519050600860008273ffffffffffffffffffffffffffffffffffffffff1673ffffffffffffffffffffffffffffffffffffffff16815260200190815260200160002060009054906101000a900460ff161561219457600080fd5b6001600860008373ffffffffffffffffffffffffffffffffffffffff1673ffffffffffffffffffffffffffffffffffffffff16815260200190815260200160002060006101000a81548160ff0219169083151502179055506000846101000151905084600560008473ffffffffffffffffffffffffffffffffffffffff1673ffffffffffffffffffffffffffffffffffffffff16815260200190815260200160002060000160008201518160000160006101000a81548173ffffffffffffffffffffffffffffffffffffffff021916908373ffffffffffffffffffffffffffffffffffffffff160217905550602082015181600101908051906020019061229c92919061474c565b5060408201518160020190805190602001906122b992919061474c565b5060608201518160030190805190602001906122d692919061474c565b5060808201518160040190805190602001906122f392919061474c565b5060a082015181600501908051906020019061231092919061474c565b5060c082015181600601908051906020019061232d92919061474c565b5060e082015181600701908051906020019061234a92919061474c565b50610100820151816008015590505083600560008473ffffffffffffffffffffffffffffffffffffffff1673ffffffffffffffffffffffffffffffffffffffff16815260200190815260200160002060090190805190602001906123af92919061474c565b5082600560008473ffffffffffffffffffffffffffffffffffffffff1673ffffffffffffffffffffffffffffffffffffffff168152602001908152602001600020600a01908051906020019061240692919061474c565b506001600081548092919061241a90615e21565b91905055508160036000600154815260200190815260200160002060006101000a81548173ffffffffffffffffffffffffffffffffffffffff021916908373ffffffffffffffffffffffffffffffffffffffff1602179055507f87c5c024b616aed507b1cd9756c0594f4efc94d637550067d61b2293d03a6ea9856000015186604001518760200151846040516124b494939291906158ff565b60405180910390a15050505050565b6124cb614989565b600560008373ffffffffffffffffffffffffffffffffffffffff1673ffffffffffffffffffffffffffffffffffffffff16815260200190815260200160002060405180606001604052908160008201604051806101200160405290816000820160009054906101000a900473ffffffffffffffffffffffffffffffffffffffff1673ffffffffffffffffffffffffffffffffffffffff1673ffffffffffffffffffffffffffffffffffffffff16815260200160018201805461258c90615dbe565b80601f01602080910402602001604051908101604052809291908181526020018280546125b890615dbe565b80156126055780601f106125da57610100808354040283529160200191612605565b820191906000526020600020905b8154815290600101906020018083116125e857829003601f168201915b5050505050815260200160028201805461261e90615dbe565b80601f016020809104026020016040519081016040528092919081815260200182805461264a90615dbe565b80156126975780601f1061266c57610100808354040283529160200191612697565b820191906000526020600020905b81548152906001019060200180831161267a57829003601f168201915b505050505081526020016003820180546126b090615dbe565b80601f01602080910402602001604051908101604052809291908181526020018280546126dc90615dbe565b80156127295780601f106126fe57610100808354040283529160200191612729565b820191906000526020600020905b81548152906001019060200180831161270c57829003601f168201915b5050505050815260200160048201805461274290615dbe565b80601f016020809104026020016040519081016040528092919081815260200182805461276e90615dbe565b80156127bb5780601f10612790576101008083540402835291602001916127bb565b820191906000526020600020905b81548152906001019060200180831161279e57829003601f168201915b505050505081526020016005820180546127d490615dbe565b80601f016020809104026020016040519081016040528092919081815260200182805461280090615dbe565b801561284d5780601f106128225761010080835404028352916020019161284d565b820191906000526020600020905b81548152906001019060200180831161283057829003601f168201915b5050505050815260200160068201805461286690615dbe565b80601f016020809104026020016040519081016040528092919081815260200182805461289290615dbe565b80156128df5780601f106128b4576101008083540402835291602001916128df565b820191906000526020600020905b8154815290600101906020018083116128c257829003601f168201915b505050505081526020016007820180546128f890615dbe565b80601f016020809104026020016040519081016040528092919081815260200182805461292490615dbe565b80156129715780601f1061294657610100808354040283529160200191612971565b820191906000526020600020905b81548152906001019060200180831161295457829003601f168201915b50505050508152602001600882015481525050815260200160098201805461299890615dbe565b80601f01602080910402602001604051908101604052809291908181526020018280546129c490615dbe565b8015612a115780601f106129e657610100808354040283529160200191612a11565b820191906000526020600020905b8154815290600101906020018083116129f457829003601f168201915b50505050508152602001600a82018054612a2a90615dbe565b80601f0160208091040260200160405190810160405280929190818152602001828054612a5690615dbe565b8015612aa35780601f10612a7857610100808354040283529160200191612aa3565b820191906000526020600020905b815481529060010190602001808311612a8657829003601f168201915b5050505050815250509050919050565b600460205280600052604060002060009150905080600001604051806101200160405290816000820160009054906101000a900473ffffffffffffffffffffffffffffffffffffffff1673ffffffffffffffffffffffffffffffffffffffff1673ffffffffffffffffffffffffffffffffffffffff168152602001600182018054612b3d90615dbe565b80601f0160208091040260200160405190810160405280929190818152602001828054612b6990615dbe565b8015612bb65780601f10612b8b57610100808354040283529160200191612bb6565b820191906000526020600020905b815481529060010190602001808311612b9957829003601f168201915b50505050508152602001600282018054612bcf90615dbe565b80601f0160208091040260200160405190810160405280929190818152602001828054612bfb90615dbe565b8015612c485780601f10612c1d57610100808354040283529160200191612c48565b820191906000526020600020905b815481529060010190602001808311612c2b57829003601f168201915b50505050508152602001600382018054612c6190615dbe565b80601f0160208091040260200160405190810160405280929190818152602001828054612c8d90615dbe565b8015612cda5780601f10612caf57610100808354040283529160200191612cda565b820191906000526020600020905b815481529060010190602001808311612cbd57829003601f168201915b50505050508152602001600482018054612cf390615dbe565b80601f0160208091040260200160405190810160405280929190818152602001828054612d1f90615dbe565b8015612d6c5780601f10612d4157610100808354040283529160200191612d6c565b820191906000526020600020905b815481529060010190602001808311612d4f57829003601f168201915b50505050508152602001600582018054612d8590615dbe565b80601f0160208091040260200160405190810160405280929190818152602001828054612db190615dbe565b8015612dfe5780601f10612dd357610100808354040283529160200191612dfe565b820191906000526020600020905b815481529060010190602001808311612de157829003601f168201915b50505050508152602001600682018054612e1790615dbe565b80601f0160208091040260200160405190810160405280929190818152602001828054612e4390615dbe565b8015612e905780601f10612e6557610100808354040283529160200191612e90565b820191906000526020600020905b815481529060010190602001808311612e7357829003601f168201915b50505050508152602001600782018054612ea990615dbe565b80601f0160208091040260200160405190810160405280929190818152602001828054612ed590615dbe565b8015612f225780601f10612ef757610100808354040283529160200191612f22565b820191906000526020600020905b815481529060010190602001808311612f0557829003601f168201915b5050505050815260200160088201548152505090806009018054612f4590615dbe565b80601f0160208091040260200160405190810160405280929190818152602001828054612f7190615dbe565b8015612fbe5780601f10612f9357610100808354040283529160200191612fbe565b820191906000526020600020905b815481529060010190602001808311612fa157829003601f168201915b50505050509080600a018054612fd390615dbe565b80601f0160208091040260200160405190810160405280929190818152602001828054612fff90615dbe565b801561304c5780601f106130215761010080835404028352916020019161304c565b820191906000526020600020905b81548152906001019060200180831161302f57829003601f168201915b50505050509080600b01805461306190615dbe565b80601f016020809104026020016040519081016040528092919081815260200182805461308d90615dbe565b80156130da5780601f106130af576101008083540402835291602001916130da565b820191906000526020600020905b8154815290600101906020018083116130bd57829003601f168201915b50505050509080600c0180546130ef90615dbe565b80601f016020809104026020016040519081016040528092919081815260200182805461311b90615dbe565b80156131685780601f1061313d57610100808354040283529160200191613168565b820191906000526020600020905b81548152906001019060200180831161314b57829003601f168201915b50505050509080600d01805461317d90615dbe565b80601f01602080910402602001604051908101604052809291908181526020018280546131a990615dbe565b80156131f65780601f106131cb576101008083540402835291602001916131f6565b820191906000526020600020905b8154815290600101906020018083116131d957829003601f168201915b5050505050905086565b60005481565b600984604051613216919061587f565b908152602001604051809103902060009054906101000a900460ff1661323b57600080fd5b600042905084600686604051613251919061587f565b9081526020016040518091039020600001908051906020019061327592919061474c565b5083600686604051613287919061587f565b908152602001604051809103902060010190805190602001906132ab92919061474c565b50826006866040516132bd919061587f565b908152602001604051809103902060020160006101000a81548173ffffffffffffffffffffffffffffffffffffffff021916908373ffffffffffffffffffffffffffffffffffffffff1602179055508060068660405161331d919061587f565b90815260200160405180910390206003018190555081600686604051613343919061587f565b908152602001604051809103902060040160006101000a81548160ff0219169083600281111561339c577f4e487b7100000000000000000000000000000000000000000000000000000000600052602160045260246000fd5b02179055505050505050565b600560205280600052604060002060009150905080600001604051806101200160405290816000820160009054906101000a900473ffffffffffffffffffffffffffffffffffffffff1673ffffffffffffffffffffffffffffffffffffffff1673ffffffffffffffffffffffffffffffffffffffff16815260200160018201805461343290615dbe565b80601f016020809104026020016040519081016040528092919081815260200182805461345e90615dbe565b80156134ab5780601f10613480576101008083540402835291602001916134ab565b820191906000526020600020905b81548152906001019060200180831161348e57829003601f168201915b505050505081526020016002820180546134c490615dbe565b80601f01602080910402602001604051908101604052809291908181526020018280546134f090615dbe565b801561353d5780601f106135125761010080835404028352916020019161353d565b820191906000526020600020905b81548152906001019060200180831161352057829003601f168201915b5050505050815260200160038201805461355690615dbe565b80601f016020809104026020016040519081016040528092919081815260200182805461358290615dbe565b80156135cf5780601f106135a4576101008083540402835291602001916135cf565b820191906000526020600020905b8154815290600101906020018083116135b257829003601f168201915b505050505081526020016004820180546135e890615dbe565b80601f016020809104026020016040519081016040528092919081815260200182805461361490615dbe565b80156136615780601f1061363657610100808354040283529160200191613661565b820191906000526020600020905b81548152906001019060200180831161364457829003601f168201915b5050505050815260200160058201805461367a90615dbe565b80601f01602080910402602001604051908101604052809291908181526020018280546136a690615dbe565b80156136f35780601f106136c8576101008083540402835291602001916136f3565b820191906000526020600020905b8154815290600101906020018083116136d657829003601f168201915b5050505050815260200160068201805461370c90615dbe565b80601f016020809104026020016040519081016040528092919081815260200182805461373890615dbe565b80156137855780601f1061375a57610100808354040283529160200191613785565b820191906000526020600020905b81548152906001019060200180831161376857829003601f168201915b5050505050815260200160078201805461379e90615dbe565b80601f01602080910402602001604051908101604052809291908181526020018280546137ca90615dbe565b80156138175780601f106137ec57610100808354040283529160200191613817565b820191906000526020600020905b8154815290600101906020018083116137fa57829003601f168201915b505050505081526020016008820154815250509080600901805461383a90615dbe565b80601f016020809104026020016040519081016040528092919081815260200182805461386690615dbe565b80156138b35780601f10613888576101008083540402835291602001916138b3565b820191906000526020600020905b81548152906001019060200180831161389657829003601f168201915b50505050509080600a0180546138c890615dbe565b80601f01602080910402602001604051908101604052809291908181526020018280546138f490615dbe565b80156139415780601f1061391657610100808354040283529160200191613941565b820191906000526020600020905b81548152906001019060200180831161392457829003601f168201915b5050505050905083565b6139536149b0565b600460008373ffffffffffffffffffffffffffffffffffffffff1673ffffffffffffffffffffffffffffffffffffffff1681526020019081526020016000206040518061010001604052908160008201604051806101200160405290816000820160009054906101000a900473ffffffffffffffffffffffffffffffffffffffff1673ffffffffffffffffffffffffffffffffffffffff1673ffffffffffffffffffffffffffffffffffffffff168152602001600182018054613a1590615dbe565b80601f0160208091040260200160405190810160405280929190818152602001828054613a4190615dbe565b8015613a8e5780601f10613a6357610100808354040283529160200191613a8e565b820191906000526020600020905b815481529060010190602001808311613a7157829003601f168201915b50505050508152602001600282018054613aa790615dbe565b80601f0160208091040260200160405190810160405280929190818152602001828054613ad390615dbe565b8015613b205780601f10613af557610100808354040283529160200191613b20565b820191906000526020600020905b815481529060010190602001808311613b0357829003601f168201915b50505050508152602001600382018054613b3990615dbe565b80601f0160208091040260200160405190810160405280929190818152602001828054613b6590615dbe565b8015613bb25780601f10613b8757610100808354040283529160200191613bb2565b820191906000526020600020905b815481529060010190602001808311613b9557829003601f168201915b50505050508152602001600482018054613bcb90615dbe565b80601f0160208091040260200160405190810160405280929190818152602001828054613bf790615dbe565b8015613c445780601f10613c1957610100808354040283529160200191613c44565b820191906000526020600020905b815481529060010190602001808311613c2757829003601f168201915b50505050508152602001600582018054613c5d90615dbe565b80601f0160208091040260200160405190810160405280929190818152602001828054613c8990615dbe565b8015613cd65780601f10613cab57610100808354040283529160200191613cd6565b820191906000526020600020905b815481529060010190602001808311613cb957829003601f168201915b50505050508152602001600682018054613cef90615dbe565b80601f0160208091040260200160405190810160405280929190818152602001828054613d1b90615dbe565b8015613d685780601f10613d3d57610100808354040283529160200191613d68565b820191906000526020600020905b815481529060010190602001808311613d4b57829003601f168201915b50505050508152602001600782018054613d8190615dbe565b80601f0160208091040260200160405190810160405280929190818152602001828054613dad90615dbe565b8015613dfa5780601f10613dcf57610100808354040283529160200191613dfa565b820191906000526020600020905b815481529060010190602001808311613ddd57829003601f168201915b505050505081526020016008820154815250508152602001600982018054613e2190615dbe565b80601f0160208091040260200160405190810160405280929190818152602001828054613e4d90615dbe565b8015613e9a5780601f10613e6f57610100808354040283529160200191613e9a565b820191906000526020600020905b815481529060010190602001808311613e7d57829003601f168201915b50505050508152602001600a82018054613eb390615dbe565b80601f0160208091040260200160405190810160405280929190818152602001828054613edf90615dbe565b8015613f2c5780601f10613f0157610100808354040283529160200191613f2c565b820191906000526020600020905b815481529060010190602001808311613f0f57829003601f168201915b50505050508152602001600b82018054613f4590615dbe565b80601f0160208091040260200160405190810160405280929190818152602001828054613f7190615dbe565b8015613fbe5780601f10613f9357610100808354040283529160200191613fbe565b820191906000526020600020905b815481529060010190602001808311613fa157829003601f168201915b50505050508152602001600c82018054613fd790615dbe565b80601f016020809104026020016040519081016040528092919081815260200182805461400390615dbe565b80156140505780601f1061402557610100808354040283529160200191614050565b820191906000526020600020905b81548152906001019060200180831161403357829003601f168201915b50505050508152602001600d8201805461406990615dbe565b80601f016020809104026020016040519081016040528092919081815260200182805461409590615dbe565b80156140e25780601f106140b7576101008083540402835291602001916140e2565b820191906000526020600020905b8154815290600101906020018083116140c557829003601f168201915b50505050508152602001600e820180548060200260200160405190810160405280929190818152602001828054801561417057602002820191906000526020600020905b8160009054906101000a900473ffffffffffffffffffffffffffffffffffffffff1673ffffffffffffffffffffffffffffffffffffffff1681526020019060010190808311614126575b50505050508152602001600f8201805480602002602001604051908101604052809291908181526020016000905b8282101561424a5783829060005260206000200180546141bd90615dbe565b80601f01602080910402602001604051908101604052809291908181526020018280546141e990615dbe565b80156142365780601f1061420b57610100808354040283529160200191614236565b820191906000526020600020905b81548152906001019060200180831161421957829003601f168201915b50505050508152602001906001019061419e565b50505050815250509050919050565b600860008373ffffffffffffffffffffffffffffffffffffffff1673ffffffffffffffffffffffffffffffffffffffff16815260200190815260200160002060009054906101000a900460ff166142af57600080fd5b600760008273ffffffffffffffffffffffffffffffffffffffff1673ffffffffffffffffffffffffffffffffffffffff16815260200190815260200160002060009054906101000a900460ff1661430557600080fd5b60005b600460008373ffffffffffffffffffffffffffffffffffffffff1673ffffffffffffffffffffffffffffffffffffffff168152602001908152602001600020600e01805490508110156146ca57826040516020016143669190615864565b60405160208183030381529060405280519060200120600460008473ffffffffffffffffffffffffffffffffffffffff1673ffffffffffffffffffffffffffffffffffffffff168152602001908152602001600020600e0182815481106143f6577f4e487b7100000000000000000000000000000000000000000000000000000000600052603260045260246000fd5b9060005260206000200160009054906101000a900473ffffffffffffffffffffffffffffffffffffffff166040516020016144319190615864565b6040516020818303038152906040528051906020012014156146b757600460008373ffffffffffffffffffffffffffffffffffffffff1673ffffffffffffffffffffffffffffffffffffffff168152602001908152602001600020600e016001600460008573ffffffffffffffffffffffffffffffffffffffff1673ffffffffffffffffffffffffffffffffffffffff168152602001908152602001600020600e01805490506144e19190615ce7565b81548110614518577f4e487b7100000000000000000000000000000000000000000000000000000000600052603260045260246000fd5b9060005260206000200160009054906101000a900473ffffffffffffffffffffffffffffffffffffffff16600460008473ffffffffffffffffffffffffffffffffffffffff1673ffffffffffffffffffffffffffffffffffffffff168152602001908152602001600020600e0182815481106145bd577f4e487b7100000000000000000000000000000000000000000000000000000000600052603260045260246000fd5b9060005260206000200160006101000a81548173ffffffffffffffffffffffffffffffffffffffff021916908373ffffffffffffffffffffffffffffffffffffffff160217905550600460008373ffffffffffffffffffffffffffffffffffffffff1673ffffffffffffffffffffffffffffffffffffffff168152602001908152602001600020600e0180548061467d577f4e487b7100000000000000000000000000000000000000000000000000000000600052603160045260246000fd5b6001900381819060005260206000200160006101000a81549073ffffffffffffffffffffffffffffffffffffffff021916905590556146ca565b80806146c290615e21565b915050614308565b505050565b6040518060a001604052806060815260200160608152602001600073ffffffffffffffffffffffffffffffffffffffff1681526020016000815260200160006002811115614746577f4e487b7100000000000000000000000000000000000000000000000000000000600052602160045260246000fd5b81525090565b82805461475890615dbe565b90600052602060002090601f01602090048101928261477a57600085556147c1565b82601f1061479357805160ff19168380011785556147c1565b828001600101855582156147c1579182015b828111156147c05782518255916020019190600101906147a5565b5b5090506147ce91906149fb565b5090565b82805482825590600052602060002090810192821561484b579160200282015b8281111561484a5782518260006101000a81548173ffffffffffffffffffffffffffffffffffffffff021916908373ffffffffffffffffffffffffffffffffffffffff160217905550916020019190600101906147f2565b5b50905061485891906149fb565b5090565b8280548282559060005260206000209081019282156148ab579160200282015b828111156148aa57825182908051906020019061489a92919061474c565b509160200191906001019061487c565b5b5090506148b89190614a18565b5090565b5080546148c890615dbe565b6000825580601f106148da57506148f9565b601f0160209004906000526020600020908101906148f891906149fb565b5b50565b82805461490890615dbe565b90600052602060002090601f01602090048101928261492a5760008555614978565b82601f1061493b5780548555614978565b8280016001018555821561497857600052602060002091601f016020900482015b8281111561497757825482559160010191906001019061495c565b5b50905061498591906149fb565b5090565b604051806060016040528061499c614a3c565b815260200160608152602001606081525090565b6040518061010001604052806149c4614a3c565b8152602001606081526020016060815260200160608152602001606081526020016060815260200160608152602001606081525090565b5b80821115614a145760008160009055506001016149fc565b5090565b5b80821115614a385760008181614a2f91906148bc565b50600101614a19565b5090565b604051806101200160405280600073ffffffffffffffffffffffffffffffffffffffff16815260200160608152602001606081526020016060815260200160608152602001606081526020016060815260200160608152602001600081525090565b6000614ab1614aac84615b9f565b615b7a565b90508083825260208201905082856020860282011115614ad057600080fd5b60005b85811015614b005781614ae68882614ba5565b845260208401935060208301925050600181019050614ad3565b5050509392505050565b6000614b1d614b1884615bcb565b615b7a565b9050808382526020820190508260005b85811015614b5d5781358501614b438882614c23565b845260208401935060208301925050600181019050614b2d565b5050509392505050565b6000614b7a614b7584615bf7565b615b7a565b905082815260208101848484011115614b9257600080fd5b614b9d848285615d7c565b509392505050565b600081359050614bb481615f7c565b92915050565b600082601f830112614bcb57600080fd5b8135614bdb848260208601614a9e565b91505092915050565b600082601f830112614bf557600080fd5b8135614c05848260208601614b0a565b91505092915050565b600081359050614c1d81615f93565b92915050565b600082601f830112614c3457600080fd5b8135614c44848260208601614b67565b91505092915050565b60006101208284031215614c6057600080fd5b614c6b610120615b7a565b90506000614c7b84828501614ba5565b600083015250602082013567ffffffffffffffff811115614c9b57600080fd5b614ca784828501614c23565b602083015250604082013567ffffffffffffffff811115614cc757600080fd5b614cd384828501614c23565b604083015250606082013567ffffffffffffffff811115614cf357600080fd5b614cff84828501614c23565b606083015250608082013567ffffffffffffffff811115614d1f57600080fd5b614d2b84828501614c23565b60808301525060a082013567ffffffffffffffff811115614d4b57600080fd5b614d5784828501614c23565b60a08301525060c082013567ffffffffffffffff811115614d7757600080fd5b614d8384828501614c23565b60c08301525060e082013567ffffffffffffffff811115614da357600080fd5b614daf84828501614c23565b60e083015250610100614dc484828501614dd1565b6101008301525092915050565b600081359050614de081615fa3565b92915050565b600060208284031215614df857600080fd5b6000614e0684828501614ba5565b91505092915050565b60008060408385031215614e2257600080fd5b6000614e3085828601614ba5565b9250506020614e4185828601614ba5565b9150509250929050565b600060208284031215614e5d57600080fd5b600082013567ffffffffffffffff811115614e7757600080fd5b614e8384828501614c23565b91505092915050565b60008060408385031215614e9f57600080fd5b600083013567ffffffffffffffff811115614eb957600080fd5b614ec585828601614c23565b9250506020614ed685828601614ba5565b9150509250929050565b60008060008060808587031215614ef657600080fd5b600085013567ffffffffffffffff811115614f1057600080fd5b614f1c87828801614c23565b945050602085013567ffffffffffffffff811115614f3957600080fd5b614f4587828801614c23565b9350506040614f5687828801614ba5565b9250506060614f6787828801614ba5565b91505092959194509250565b60008060008060808587031215614f8957600080fd5b600085013567ffffffffffffffff811115614fa357600080fd5b614faf87828801614c23565b945050602085013567ffffffffffffffff811115614fcc57600080fd5b614fd887828801614c23565b9350506040614fe987828801614ba5565b9250506060614ffa87828801614c0e565b91505092959194509250565b60008060006060848603121561501b57600080fd5b600084013567ffffffffffffffff81111561503557600080fd5b61504186828701614c4d565b935050602084013567ffffffffffffffff81111561505e57600080fd5b61506a86828701614c23565b925050604084013567ffffffffffffffff81111561508757600080fd5b61509386828701614c23565b9150509250925092565b600080600080600080600080610100898b0312156150ba57600080fd5b600089013567ffffffffffffffff8111156150d457600080fd5b6150e08b828c01614c4d565b985050602089013567ffffffffffffffff8111156150fd57600080fd5b6151098b828c01614c23565b975050604089013567ffffffffffffffff81111561512657600080fd5b6151328b828c01614c23565b965050606089013567ffffffffffffffff81111561514f57600080fd5b61515b8b828c01614c23565b955050608089013567ffffffffffffffff81111561517857600080fd5b6151848b828c01614c23565b94505060a089013567ffffffffffffffff8111156151a157600080fd5b6151ad8b828c01614c23565b93505060c089013567ffffffffffffffff8111156151ca57600080fd5b6151d68b828c01614bba565b92505060e089013567ffffffffffffffff8111156151f357600080fd5b6151ff8b828c01614be4565b9150509295985092959890939650565b60006020828403121561522157600080fd5b600061522f84828501614dd1565b91505092915050565b60006152448383615264565b60208301905092915050565b600061525c838361538a565b905092915050565b61526d81615d1b565b82525050565b61527c81615d1b565b82525050565b61529361528e82615d1b565b615e6a565b82525050565b60006152a482615c5d565b6152ae8185615c98565b93506152b983615c28565b8060005b838110156152ea5781516152d18882615238565b97506152dc83615c7e565b9250506001810190506152bd565b5085935050505092915050565b600061530282615c68565b61530c8185615ca9565b93508360208202850161531e85615c38565b8060005b8581101561535a578484038952815161533b8582615250565b945061534683615c8b565b925060208a01995050600181019050615322565b50829750879550505050505092915050565b61537581615d6a565b82525050565b61538481615d6a565b82525050565b600061539582615c73565b61539f8185615cba565b93506153af818560208601615d8b565b6153b881615f4a565b840191505092915050565b60006153ce82615c73565b6153d88185615ccb565b93506153e8818560208601615d8b565b6153f181615f4a565b840191505092915050565b600061540782615c73565b6154118185615cdc565b9350615421818560208601615d8b565b80840191505092915050565b6000815461543a81615dbe565b6154448186615cdc565b9450600182166000811461545f5760018114615470576154a3565b60ff198316865281860193506154a3565b61547985615c48565b60005b8381101561549b5781548189015260018201915060208101905061547c565b838801955050505b50505092915050565b600060608301600083015184820360008601526154c98282615668565b915050602083015184820360208601526154e3828261538a565b915050604083015184820360408601526154fd828261538a565b9150508091505092915050565b60006101008301600083015184820360008601526155288282615668565b91505060208301518482036020860152615542828261538a565b9150506040830151848203604086015261555c828261538a565b91505060608301518482036060860152615576828261538a565b91505060808301518482036080860152615590828261538a565b91505060a083015184820360a08601526155aa828261538a565b91505060c083015184820360c08601526155c48282615299565b91505060e083015184820360e08601526155de82826152f7565b9150508091505092915050565b600060a0830160008301518482036000860152615608828261538a565b91505060208301518482036020860152615622828261538a565b91505060408301516156376040860182615264565b50606083015161564a6060860182615846565b50608083015161565d608086018261536c565b508091505092915050565b6000610120830160008301516156816000860182615264565b5060208301518482036020860152615699828261538a565b915050604083015184820360408601526156b3828261538a565b915050606083015184820360608601526156cd828261538a565b915050608083015184820360808601526156e7828261538a565b91505060a083015184820360a0860152615701828261538a565b91505060c083015184820360c086015261571b828261538a565b91505060e083015184820360e0860152615735828261538a565b91505061010083015161574c610100860182615846565b508091505092915050565b6000610120830160008301516157706000860182615264565b5060208301518482036020860152615788828261538a565b915050604083015184820360408601526157a2828261538a565b915050606083015184820360608601526157bc828261538a565b915050608083015184820360808601526157d6828261538a565b91505060a083015184820360a08601526157f0828261538a565b91505060c083015184820360c086015261580a828261538a565b91505060e083015184820360e0860152615824828261538a565b91505061010083015161583b610100860182615846565b508091505092915050565b61584f81615d60565b82525050565b61585e81615d60565b82525050565b60006158708284615282565b60148201915081905092915050565b600061588b82846153fc565b915081905092915050565b60006158a2828461542d565b915081905092915050565b60006020820190506158c26000830184615273565b92915050565b60006060820190506158dd6000830186615273565b6158ea6020830185615273565b6158f76040830184615855565b949350505050565b60006080820190506159146000830187615273565b818103602083015261592681866153c3565b9050818103604083015261593a81856153c3565b90506159496060830184615855565b95945050505050565b600060a082019050818103600083015261596c81886153c3565b9050818103602083015261598081876153c3565b905061598f6040830186615273565b61599c6060830185615855565b6159a9608083018461537b565b9695505050505050565b600060c08201905081810360008301526159cd81896153c3565b905081810360208301526159e181886153c3565b90506159f06040830187615273565b6159fd6060830186615855565b615a0a608083018561537b565b615a1760a0830184615273565b979650505050505050565b60006020820190508181036000830152615a3c81846154ac565b905092915050565b60006020820190508181036000830152615a5e818461550a565b905092915050565b60006020820190508181036000830152615a8081846155eb565b905092915050565b60006060820190508181036000830152615aa28186615757565b90508181036020830152615ab681856153c3565b90508181036040830152615aca81846153c3565b9050949350505050565b600060c0820190508181036000830152615aee8189615757565b90508181036020830152615b0281886153c3565b90508181036040830152615b1681876153c3565b90508181036060830152615b2a81866153c3565b90508181036080830152615b3e81856153c3565b905081810360a0830152615b5281846153c3565b9050979650505050505050565b6000602082019050615b746000830184615855565b92915050565b6000615b84615b95565b9050615b908282615df0565b919050565b6000604051905090565b600067ffffffffffffffff821115615bba57615bb9615f1b565b5b602082029050602081019050919050565b600067ffffffffffffffff821115615be657615be5615f1b565b5b602082029050602081019050919050565b600067ffffffffffffffff821115615c1257615c11615f1b565b5b615c1b82615f4a565b9050602081019050919050565b6000819050602082019050919050565b6000819050602082019050919050565b60008190508160005260206000209050919050565b600081519050919050565b600081519050919050565b600081519050919050565b6000602082019050919050565b6000602082019050919050565b600082825260208201905092915050565b600082825260208201905092915050565b600082825260208201905092915050565b600082825260208201905092915050565b600081905092915050565b6000615cf282615d60565b9150615cfd83615d60565b925082821015615d1057615d0f615e8e565b5b828203905092915050565b6000615d2682615d40565b9050919050565b6000819050615d3b82615f68565b919050565b600073ffffffffffffffffffffffffffffffffffffffff82169050919050565b6000819050919050565b6000615d7582615d2d565b9050919050565b82818337600083830152505050565b60005b83811015615da9578082015181840152602081019050615d8e565b83811115615db8576000848401525b50505050565b60006002820490506001821680615dd657607f821691505b60208210811415615dea57615de9615eec565b5b50919050565b615df982615f4a565b810181811067ffffffffffffffff82111715615e1857615e17615f1b565b5b80604052505050565b6000615e2c82615d60565b91507fffffffffffffffffffffffffffffffffffffffffffffffffffffffffffffffff821415615e5f57615e5e615e8e565b5b600182019050919050565b6000615e7582615e7c565b9050919050565b6000615e8782615f5b565b9050919050565b7f4e487b7100000000000000000000000000000000000000000000000000000000600052601160045260246000fd5b7f4e487b7100000000000000000000000000000000000000000000000000000000600052602160045260246000fd5b7f4e487b7100000000000000000000000000000000000000000000000000000000600052602260045260246000fd5b7f4e487b7100000000000000000000000000000000000000000000000000000000600052604160045260246000fd5b6000601f19601f8301169050919050565b60008160601b9050919050565b60038110615f7957615f78615ebd565b5b50565b615f8581615d1b565b8114615f9057600080fd5b50565b60038110615fa057600080fd5b50565b615fac81615d60565b8114615fb757600080fd5b5056fea264697066735822122008e07f9899d682f994a5971550a2a8fa58209ed157486112d45f9f3f0e10d28f64736f6c63430008020033",
  "immutableReferences": {},
  "source": "// SPDX-License-Identifier: MIT\npragma solidity 0.8.2;\npragma experimental ABIEncoderV2;\n\ncontract MainContract {\n    struct User {\n        address addr;\n        string IC;\n        string name;\n        string gender;\n        string birthdate;\n        string email;\n        string homeAddress;\n        string phone;\n        uint userSince;\n    }\n\n    struct Doctor {\n        User primaryInfo;\n        string qualification;\n        string major;\n    }\n\n    enum RecordStatus {\n        PENDING,\n        COMPLETED,\n        DECLINED\n    }\n\n    struct Record {\n        string encryptedID;\n        string dataHash;\n        address issuerDoctorAddr;\n        uint timestamp;\n        RecordStatus recordStatus;\n    }\n\n    struct Patient {\n        User primaryInfo;\n        string emergencyContact;\n        string emergencyNumber;\n        string bloodType;\n        string height;\n        string weight;\n        address[] whitelistedDoctor;\n        string[] recordList;\n    }\n\n    uint public totalPatients = 0;\n    uint public totalDoctors = 0;\n    mapping(uint => address) public patients;\n    mapping(uint => address) public doctors;\n    mapping(address => Patient) public patientList;\n    mapping(address => Doctor) public doctorList;\n    mapping(string => Record) public recordList;\n    mapping(address => bool) isPatient;\n    mapping(address => bool) isDoctor;\n    mapping(string => bool) isRecord;\n\n    event PatientCreated(\n        address patientAddr,\n        string patientName,\n        string patientIC,\n        uint timestamp\n    );\n\n    event DoctorCreated(\n        address doctorAddr,\n        string doctorName,\n        string doctorIC,\n        uint timestamp\n    );\n\n    event WhitelistDoctor(\n        address patientAddr,\n        address doctorAddr,\n        uint timestamp\n    );\n\n    event RecordCreated(\n        string encryptedID,\n        string dataHash,\n        address issuerDoctorAddr,\n        uint timestamp,\n        RecordStatus recordStatus,\n        address patientAddr\n    );\n\n    function createPatient(\n        User memory userInfo,\n        string memory _emergencyContact,\n        string memory _emergencyNumber,\n        string memory _bloodType,\n        string memory _height,\n        string memory _weight,\n        address[] memory _whitelistedDoctor,\n        string[] memory _recordList\n    ) public {\n        address patientAddress = userInfo.addr;\n\n        require(!isPatient[userInfo.addr]);\n        isPatient[patientAddress] = true;\n\n        uint timestamp = userInfo.userSince;\n        patientList[patientAddress].primaryInfo = userInfo;\n        patientList[patientAddress].emergencyContact = _emergencyContact;\n        patientList[patientAddress].emergencyNumber = _emergencyNumber;\n        patientList[patientAddress].bloodType = _bloodType;\n        patientList[patientAddress].height = _height;\n        patientList[patientAddress].weight = _weight;\n\n        // address[] memory whitelistedDoctor;\n        for (uint i = 0; i < _whitelistedDoctor.length; i++) {\n            require(isDoctor[_whitelistedDoctor[i]]);\n        }\n        patientList[patientAddress].whitelistedDoctor = _whitelistedDoctor;\n        patientList[patientAddress].recordList = _recordList;\n\n        totalPatients++;\n\n        patients[totalPatients] = patientAddress;\n\n        emit PatientCreated(\n            userInfo.addr,\n            userInfo.name,\n            userInfo.IC,\n            timestamp\n        );\n    }\n\n    function setPatientDetails(\n        User memory userInfo,\n        string memory _emergencyContact,\n        string memory _emergencyNumber,\n        string memory _bloodType,\n        string memory _height,\n        string memory _weight,\n        address[] memory _whitelistedDoctor,\n        string[] memory _recordList\n    ) public {\n        address patientAddress = userInfo.addr;\n        require(isPatient[patientAddress]);\n        // Update all except address & userSince\n        patientList[patientAddress].primaryInfo.IC = userInfo.IC;\n        patientList[patientAddress].primaryInfo.name = userInfo.name;\n        patientList[patientAddress].primaryInfo.gender = userInfo.gender;\n        patientList[patientAddress].primaryInfo.birthdate = userInfo.birthdate;\n        patientList[patientAddress].primaryInfo.email = userInfo.email;\n        patientList[patientAddress].primaryInfo.homeAddress = userInfo\n            .homeAddress;\n        patientList[patientAddress].primaryInfo.phone = userInfo.phone;\n\n        patientList[patientAddress].emergencyContact = _emergencyContact;\n        patientList[patientAddress].emergencyNumber = _emergencyNumber;\n        patientList[patientAddress].bloodType = _bloodType;\n        patientList[patientAddress].height = _height;\n        patientList[patientAddress].weight = _weight;\n\n        // address[] memory whitelistedDoctor;\n        for (uint i = 0; i < _whitelistedDoctor.length; i++) {\n            require(isDoctor[_whitelistedDoctor[i]]);\n        }\n        patientList[patientAddress].whitelistedDoctor = _whitelistedDoctor;\n        patientList[patientAddress].recordList = _recordList;\n    }\n\n    function addWhitelistedDoctor(\n        address doctorAddress,\n        address patientAddress\n    ) public {\n        require(isDoctor[doctorAddress]);\n        require(isPatient[patientAddress]);\n        // for (\n        //     uint i = 0;\n        //     i < patientList[patientAddress].whitelistedDoctor.length;\n        //     i++\n        // ) {\n        //     if (\n        //         keccak256(\n        //             abi.encodePacked(\n        //                 patientList[patientAddress].whitelistedDoctor[i]\n        //             )\n        //         ) == keccak256(abi.encodePacked(doctorAddress))\n        //     ) {\n        //         break;\n        //     }\n        // }\n\n        patientList[patientAddress].whitelistedDoctor.push(doctorAddress);\n\n        emit WhitelistDoctor(doctorAddress, patientAddress, block.timestamp);\n    }\n\n    function removeWhitelistedDoctor(\n        address doctorAddress,\n        address patientAddress\n    ) public {\n        require(isDoctor[doctorAddress]);\n        require(isPatient[patientAddress]);\n\n        for (\n            uint i = 0;\n            i < patientList[patientAddress].whitelistedDoctor.length;\n            i++\n        ) {\n            if (\n                keccak256(\n                    abi.encodePacked(\n                        patientList[patientAddress].whitelistedDoctor[i]\n                    )\n                ) == keccak256(abi.encodePacked(doctorAddress))\n            ) {\n                patientList[patientAddress].whitelistedDoctor[i] = patientList[\n                    patientAddress\n                ].whitelistedDoctor[\n                        patientList[patientAddress].whitelistedDoctor.length - 1\n                    ];\n                patientList[patientAddress].whitelistedDoctor.pop();\n                break;\n            }\n        }\n    }\n\n    function getPatientDetails(\n        address patientAddress\n    ) public view returns (Patient memory) {\n        return patientList[patientAddress];\n    }\n\n    function createDoctor(\n        User memory userInfo,\n        string memory _qualification,\n        string memory _major\n    ) public {\n        address doctorAddress = userInfo.addr;\n        require(!isDoctor[doctorAddress]);\n\n        isDoctor[doctorAddress] = true;\n        uint timestamp = userInfo.userSince;\n\n        doctorList[doctorAddress].primaryInfo = userInfo;\n        doctorList[doctorAddress].qualification = _qualification;\n        doctorList[doctorAddress].major = _major;\n\n        totalDoctors++;\n\n        doctors[totalDoctors] = doctorAddress;\n\n        emit DoctorCreated(\n            userInfo.addr,\n            userInfo.name,\n            userInfo.IC,\n            timestamp\n        );\n    }\n\n    function setDoctorDetails(\n        User memory userInfo,\n        string memory _qualification,\n        string memory _major\n    ) public {\n        address doctorAddress = userInfo.addr;\n        require(isDoctor[doctorAddress]);\n\n        // Update all except address & userSince\n        doctorList[doctorAddress].primaryInfo.IC = userInfo.IC;\n        doctorList[doctorAddress].primaryInfo.name = userInfo.name;\n        doctorList[doctorAddress].primaryInfo.gender = userInfo.gender;\n        doctorList[doctorAddress].primaryInfo.birthdate = userInfo.birthdate;\n        doctorList[doctorAddress].primaryInfo.email = userInfo.email;\n        doctorList[doctorAddress].primaryInfo.homeAddress = userInfo\n            .homeAddress;\n        doctorList[doctorAddress].primaryInfo.phone = userInfo.phone;\n        doctorList[doctorAddress].qualification = _qualification;\n        doctorList[doctorAddress].major = _major;\n    }\n\n    function getDoctorDetails(\n        address doctorAddress\n    ) public view returns (Doctor memory) {\n        return doctorList[doctorAddress];\n    }\n\n    function createRecord(\n        string memory _encryptedID,\n        string memory _dataHash,\n        address _issuerDoctorAddr,\n        address _patientAddr\n    ) public {\n        require(isDoctor[_issuerDoctorAddr]);\n        require(isPatient[_patientAddr]);\n        require(!isRecord[_encryptedID]);\n\n        uint timestamp = block.timestamp;\n        RecordStatus recordStatus = RecordStatus.PENDING;\n\n        recordList[_encryptedID].encryptedID = _encryptedID;\n        recordList[_encryptedID].dataHash = _dataHash;\n        recordList[_encryptedID].issuerDoctorAddr = _issuerDoctorAddr;\n        recordList[_encryptedID].timestamp = timestamp;\n        recordList[_encryptedID].recordStatus = recordStatus;\n\n        patientList[_patientAddr].recordList.push(_encryptedID);\n        isRecord[_encryptedID] = true;\n\n        emit RecordCreated(\n            _encryptedID,\n            _dataHash,\n            _issuerDoctorAddr,\n            timestamp,\n            recordStatus,\n            _patientAddr\n        );\n    }\n\n    function getRecordDetails(\n        string memory _encryptedID\n    ) public view returns (Record memory) {\n        return recordList[_encryptedID];\n    }\n\n    function editRecord(\n        string memory _encryptedID,\n        string memory _dataHash,\n        address _issuerDoctorAddr,\n        RecordStatus _recordStatus\n    ) public {\n        require(isRecord[_encryptedID]);\n\n        uint timestamp = block.timestamp;\n        recordList[_encryptedID].encryptedID = _encryptedID;\n        recordList[_encryptedID].dataHash = _dataHash;\n        recordList[_encryptedID].issuerDoctorAddr = _issuerDoctorAddr;\n        recordList[_encryptedID].timestamp = timestamp;\n        recordList[_encryptedID].recordStatus = _recordStatus;\n    }\n\n    function removeRecord(\n        string memory _encryptedID,\n        address _patientAddress\n    ) public {\n        require(isPatient[_patientAddress]);\n        require(isRecord[_encryptedID]);\n        delete isRecord[_encryptedID];\n        delete recordList[_encryptedID];\n\n        for (\n            uint i = 0;\n            i < patientList[_patientAddress].recordList.length;\n            i++\n        ) {\n            if (\n                keccak256(\n                    abi.encodePacked(patientList[_patientAddress].recordList[i])\n                ) == keccak256(abi.encodePacked(_encryptedID))\n            ) {\n                patientList[_patientAddress].recordList[i] = patientList[\n                    _patientAddress\n                ].recordList[\n                        patientList[_patientAddress].recordList.length - 1\n                    ];\n                patientList[_patientAddress].recordList.pop();\n                break;\n            }\n        }\n    }\n}\n",
  "sourcePath": "/Users/vanessachristy/Documents/School Y4S1/FYP/mymedtrust/contracts/MainContract.sol",
  "compiler": {
    "name": "solc",
    "version": "0.8.2+commit.661d1103.Emscripten.clang"
  },
  "schemaVersion": "3.4.15",
  "updatedAt": "2023-10-09T12:55:32.075Z",
  "networkType": "ethereum",
  "devdoc": {
    "kind": "dev",
    "methods": {},
    "version": 1
  },
  "userdoc": {
    "kind": "user",
    "methods": {},
    "version": 1
  }
}