{
  "contractName": "MainContract",
  "abi": [
    {
      "anonymous": false,
      "inputs": [
        {
          "indexed": false,
          "internalType": "address",
          "name": "doctorAddr",
          "type": "address"
        },
        {
          "indexed": false,
          "internalType": "string",
          "name": "doctorName",
          "type": "string"
        },
        {
          "indexed": false,
          "internalType": "string",
          "name": "doctorIC",
          "type": "string"
        },
        {
          "indexed": false,
          "internalType": "uint256",
          "name": "timestamp",
          "type": "uint256"
        }
      ],
      "name": "DoctorCreated",
      "type": "event"
    },
    {
      "anonymous": false,
      "inputs": [
        {
          "indexed": false,
          "internalType": "address",
          "name": "patientAddr",
          "type": "address"
        },
        {
          "indexed": false,
          "internalType": "string",
          "name": "patientName",
          "type": "string"
        },
        {
          "indexed": false,
          "internalType": "string",
          "name": "patientIC",
          "type": "string"
        },
        {
          "indexed": false,
          "internalType": "uint256",
          "name": "timestamp",
          "type": "uint256"
        }
      ],
      "name": "PatientCreated",
      "type": "event"
    },
    {
      "anonymous": false,
      "inputs": [
        {
          "indexed": false,
          "internalType": "string",
          "name": "encryptedID",
          "type": "string"
        },
        {
          "indexed": false,
          "internalType": "string",
          "name": "dataHash",
          "type": "string"
        },
        {
          "indexed": false,
          "internalType": "address",
          "name": "issuerDoctorAddr",
          "type": "address"
        },
        {
          "indexed": false,
          "internalType": "uint256",
          "name": "timestamp",
          "type": "uint256"
        },
        {
          "indexed": false,
          "internalType": "enum MainContract.RecordStatus",
          "name": "recordStatus",
          "type": "uint8"
        },
        {
          "indexed": false,
          "internalType": "address",
          "name": "patientAddr",
          "type": "address"
        }
      ],
      "name": "RecordCreated",
      "type": "event"
    },
    {
      "anonymous": false,
      "inputs": [
        {
          "indexed": false,
          "internalType": "address",
          "name": "patientAddr",
          "type": "address"
        },
        {
          "indexed": false,
          "internalType": "address",
          "name": "doctorAddr",
          "type": "address"
        },
        {
          "indexed": false,
          "internalType": "uint256",
          "name": "timestamp",
          "type": "uint256"
        }
      ],
      "name": "WhitelistDoctor",
      "type": "event"
    },
    {
      "inputs": [
        {
          "internalType": "address",
          "name": "",
          "type": "address"
        }
      ],
      "name": "doctorList",
      "outputs": [
        {
          "components": [
            {
              "internalType": "address",
              "name": "addr",
              "type": "address"
            },
            {
              "internalType": "string",
              "name": "IC",
              "type": "string"
            },
            {
              "internalType": "string",
              "name": "name",
              "type": "string"
            },
            {
              "internalType": "string",
              "name": "gender",
              "type": "string"
            },
            {
              "internalType": "string",
              "name": "birthdate",
              "type": "string"
            },
            {
              "internalType": "string",
              "name": "email",
              "type": "string"
            },
            {
              "internalType": "string",
              "name": "homeAddress",
              "type": "string"
            },
            {
              "internalType": "string",
              "name": "phone",
              "type": "string"
            },
            {
              "internalType": "uint256",
              "name": "userSince",
              "type": "uint256"
            }
          ],
          "internalType": "struct MainContract.User",
          "name": "primaryInfo",
          "type": "tuple"
        },
        {
          "internalType": "string",
          "name": "qualification",
          "type": "string"
        },
        {
          "internalType": "string",
          "name": "major",
          "type": "string"
        }
      ],
      "stateMutability": "view",
      "type": "function",
      "constant": true
    },
    {
      "inputs": [
        {
          "internalType": "uint256",
          "name": "",
          "type": "uint256"
        }
      ],
      "name": "doctors",
      "outputs": [
        {
          "internalType": "address",
          "name": "",
          "type": "address"
        }
      ],
      "stateMutability": "view",
      "type": "function",
      "constant": true
    },
    {
      "inputs": [
        {
          "internalType": "address",
          "name": "",
          "type": "address"
        }
      ],
      "name": "patientList",
      "outputs": [
        {
          "components": [
            {
              "internalType": "address",
              "name": "addr",
              "type": "address"
            },
            {
              "internalType": "string",
              "name": "IC",
              "type": "string"
            },
            {
              "internalType": "string",
              "name": "name",
              "type": "string"
            },
            {
              "internalType": "string",
              "name": "gender",
              "type": "string"
            },
            {
              "internalType": "string",
              "name": "birthdate",
              "type": "string"
            },
            {
              "internalType": "string",
              "name": "email",
              "type": "string"
            },
            {
              "internalType": "string",
              "name": "homeAddress",
              "type": "string"
            },
            {
              "internalType": "string",
              "name": "phone",
              "type": "string"
            },
            {
              "internalType": "uint256",
              "name": "userSince",
              "type": "uint256"
            }
          ],
          "internalType": "struct MainContract.User",
          "name": "primaryInfo",
          "type": "tuple"
        },
        {
          "internalType": "string",
          "name": "emergencyContact",
          "type": "string"
        },
        {
          "internalType": "string",
          "name": "emergencyNumber",
          "type": "string"
        },
        {
          "internalType": "string",
          "name": "bloodType",
          "type": "string"
        },
        {
          "internalType": "string",
          "name": "height",
          "type": "string"
        },
        {
          "internalType": "string",
          "name": "weight",
          "type": "string"
        }
      ],
      "stateMutability": "view",
      "type": "function",
      "constant": true
    },
    {
      "inputs": [
        {
          "internalType": "uint256",
          "name": "",
          "type": "uint256"
        }
      ],
      "name": "patients",
      "outputs": [
        {
          "internalType": "address",
          "name": "",
          "type": "address"
        }
      ],
      "stateMutability": "view",
      "type": "function",
      "constant": true
    },
    {
      "inputs": [
        {
          "internalType": "string",
          "name": "",
          "type": "string"
        }
      ],
      "name": "recordList",
      "outputs": [
        {
          "internalType": "string",
          "name": "encryptedID",
          "type": "string"
        },
        {
          "internalType": "string",
          "name": "dataHash",
          "type": "string"
        },
        {
          "internalType": "address",
          "name": "issuerDoctorAddr",
          "type": "address"
        },
        {
          "internalType": "uint256",
          "name": "timestamp",
          "type": "uint256"
        },
        {
          "internalType": "enum MainContract.RecordStatus",
          "name": "recordStatus",
          "type": "uint8"
        }
      ],
      "stateMutability": "view",
      "type": "function",
      "constant": true
    },
    {
      "inputs": [],
      "name": "totalDoctors",
      "outputs": [
        {
          "internalType": "uint256",
          "name": "",
          "type": "uint256"
        }
      ],
      "stateMutability": "view",
      "type": "function",
      "constant": true
    },
    {
      "inputs": [],
      "name": "totalPatients",
      "outputs": [
        {
          "internalType": "uint256",
          "name": "",
          "type": "uint256"
        }
      ],
      "stateMutability": "view",
      "type": "function",
      "constant": true
    },
    {
      "inputs": [
        {
          "components": [
            {
              "internalType": "address",
              "name": "addr",
              "type": "address"
            },
            {
              "internalType": "string",
              "name": "IC",
              "type": "string"
            },
            {
              "internalType": "string",
              "name": "name",
              "type": "string"
            },
            {
              "internalType": "string",
              "name": "gender",
              "type": "string"
            },
            {
              "internalType": "string",
              "name": "birthdate",
              "type": "string"
            },
            {
              "internalType": "string",
              "name": "email",
              "type": "string"
            },
            {
              "internalType": "string",
              "name": "homeAddress",
              "type": "string"
            },
            {
              "internalType": "string",
              "name": "phone",
              "type": "string"
            },
            {
              "internalType": "uint256",
              "name": "userSince",
              "type": "uint256"
            }
          ],
          "internalType": "struct MainContract.User",
          "name": "userInfo",
          "type": "tuple"
        },
        {
          "internalType": "string",
          "name": "_emergencyContact",
          "type": "string"
        },
        {
          "internalType": "string",
          "name": "_emergencyNumber",
          "type": "string"
        },
        {
          "internalType": "string",
          "name": "_bloodType",
          "type": "string"
        },
        {
          "internalType": "string",
          "name": "_height",
          "type": "string"
        },
        {
          "internalType": "string",
          "name": "_weight",
          "type": "string"
        },
        {
          "internalType": "address[]",
          "name": "_whitelistedDoctor",
          "type": "address[]"
        },
        {
          "internalType": "string[]",
          "name": "_recordList",
          "type": "string[]"
        }
      ],
      "name": "createPatient",
      "outputs": [],
      "stateMutability": "nonpayable",
      "type": "function"
    },
    {
      "inputs": [
        {
          "components": [
            {
              "internalType": "address",
              "name": "addr",
              "type": "address"
            },
            {
              "internalType": "string",
              "name": "IC",
              "type": "string"
            },
            {
              "internalType": "string",
              "name": "name",
              "type": "string"
            },
            {
              "internalType": "string",
              "name": "gender",
              "type": "string"
            },
            {
              "internalType": "string",
              "name": "birthdate",
              "type": "string"
            },
            {
              "internalType": "string",
              "name": "email",
              "type": "string"
            },
            {
              "internalType": "string",
              "name": "homeAddress",
              "type": "string"
            },
            {
              "internalType": "string",
              "name": "phone",
              "type": "string"
            },
            {
              "internalType": "uint256",
              "name": "userSince",
              "type": "uint256"
            }
          ],
          "internalType": "struct MainContract.User",
          "name": "userInfo",
          "type": "tuple"
        },
        {
          "internalType": "string",
          "name": "_emergencyContact",
          "type": "string"
        },
        {
          "internalType": "string",
          "name": "_emergencyNumber",
          "type": "string"
        },
        {
          "internalType": "string",
          "name": "_bloodType",
          "type": "string"
        },
        {
          "internalType": "string",
          "name": "_height",
          "type": "string"
        },
        {
          "internalType": "string",
          "name": "_weight",
          "type": "string"
        },
        {
          "internalType": "address[]",
          "name": "_whitelistedDoctor",
          "type": "address[]"
        },
        {
          "internalType": "string[]",
          "name": "_recordList",
          "type": "string[]"
        }
      ],
      "name": "setPatientDetails",
      "outputs": [],
      "stateMutability": "nonpayable",
      "type": "function"
    },
    {
      "inputs": [
        {
          "internalType": "address",
          "name": "doctorAddress",
          "type": "address"
        },
        {
          "internalType": "address",
          "name": "patientAddress",
          "type": "address"
        }
      ],
      "name": "addWhitelistedDoctor",
      "outputs": [],
      "stateMutability": "nonpayable",
      "type": "function"
    },
    {
      "inputs": [
        {
          "internalType": "address",
          "name": "doctorAddress",
          "type": "address"
        },
        {
          "internalType": "address",
          "name": "patientAddress",
          "type": "address"
        }
      ],
      "name": "removeWhitelistedDoctor",
      "outputs": [],
      "stateMutability": "nonpayable",
      "type": "function"
    },
    {
      "inputs": [
        {
          "internalType": "address",
          "name": "patientAddress",
          "type": "address"
        }
      ],
      "name": "getPatientDetails",
      "outputs": [
        {
          "components": [
            {
              "components": [
                {
                  "internalType": "address",
                  "name": "addr",
                  "type": "address"
                },
                {
                  "internalType": "string",
                  "name": "IC",
                  "type": "string"
                },
                {
                  "internalType": "string",
                  "name": "name",
                  "type": "string"
                },
                {
                  "internalType": "string",
                  "name": "gender",
                  "type": "string"
                },
                {
                  "internalType": "string",
                  "name": "birthdate",
                  "type": "string"
                },
                {
                  "internalType": "string",
                  "name": "email",
                  "type": "string"
                },
                {
                  "internalType": "string",
                  "name": "homeAddress",
                  "type": "string"
                },
                {
                  "internalType": "string",
                  "name": "phone",
                  "type": "string"
                },
                {
                  "internalType": "uint256",
                  "name": "userSince",
                  "type": "uint256"
                }
              ],
              "internalType": "struct MainContract.User",
              "name": "primaryInfo",
              "type": "tuple"
            },
            {
              "internalType": "string",
              "name": "emergencyContact",
              "type": "string"
            },
            {
              "internalType": "string",
              "name": "emergencyNumber",
              "type": "string"
            },
            {
              "internalType": "string",
              "name": "bloodType",
              "type": "string"
            },
            {
              "internalType": "string",
              "name": "height",
              "type": "string"
            },
            {
              "internalType": "string",
              "name": "weight",
              "type": "string"
            },
            {
              "internalType": "address[]",
              "name": "whitelistedDoctor",
              "type": "address[]"
            },
            {
              "internalType": "string[]",
              "name": "recordList",
              "type": "string[]"
            }
          ],
          "internalType": "struct MainContract.Patient",
          "name": "",
          "type": "tuple"
        }
      ],
      "stateMutability": "view",
      "type": "function",
      "constant": true
    },
    {
      "inputs": [
        {
          "components": [
            {
              "internalType": "address",
              "name": "addr",
              "type": "address"
            },
            {
              "internalType": "string",
              "name": "IC",
              "type": "string"
            },
            {
              "internalType": "string",
              "name": "name",
              "type": "string"
            },
            {
              "internalType": "string",
              "name": "gender",
              "type": "string"
            },
            {
              "internalType": "string",
              "name": "birthdate",
              "type": "string"
            },
            {
              "internalType": "string",
              "name": "email",
              "type": "string"
            },
            {
              "internalType": "string",
              "name": "homeAddress",
              "type": "string"
            },
            {
              "internalType": "string",
              "name": "phone",
              "type": "string"
            },
            {
              "internalType": "uint256",
              "name": "userSince",
              "type": "uint256"
            }
          ],
          "internalType": "struct MainContract.User",
          "name": "userInfo",
          "type": "tuple"
        },
        {
          "internalType": "string",
          "name": "_qualification",
          "type": "string"
        },
        {
          "internalType": "string",
          "name": "_major",
          "type": "string"
        }
      ],
      "name": "createDoctor",
      "outputs": [],
      "stateMutability": "nonpayable",
      "type": "function"
    },
    {
      "inputs": [
        {
          "components": [
            {
              "internalType": "address",
              "name": "addr",
              "type": "address"
            },
            {
              "internalType": "string",
              "name": "IC",
              "type": "string"
            },
            {
              "internalType": "string",
              "name": "name",
              "type": "string"
            },
            {
              "internalType": "string",
              "name": "gender",
              "type": "string"
            },
            {
              "internalType": "string",
              "name": "birthdate",
              "type": "string"
            },
            {
              "internalType": "string",
              "name": "email",
              "type": "string"
            },
            {
              "internalType": "string",
              "name": "homeAddress",
              "type": "string"
            },
            {
              "internalType": "string",
              "name": "phone",
              "type": "string"
            },
            {
              "internalType": "uint256",
              "name": "userSince",
              "type": "uint256"
            }
          ],
          "internalType": "struct MainContract.User",
          "name": "userInfo",
          "type": "tuple"
        },
        {
          "internalType": "string",
          "name": "_qualification",
          "type": "string"
        },
        {
          "internalType": "string",
          "name": "_major",
          "type": "string"
        }
      ],
      "name": "setDoctorDetails",
      "outputs": [],
      "stateMutability": "nonpayable",
      "type": "function"
    },
    {
      "inputs": [
        {
          "internalType": "address",
          "name": "doctorAddress",
          "type": "address"
        }
      ],
      "name": "getDoctorDetails",
      "outputs": [
        {
          "components": [
            {
              "components": [
                {
                  "internalType": "address",
                  "name": "addr",
                  "type": "address"
                },
                {
                  "internalType": "string",
                  "name": "IC",
                  "type": "string"
                },
                {
                  "internalType": "string",
                  "name": "name",
                  "type": "string"
                },
                {
                  "internalType": "string",
                  "name": "gender",
                  "type": "string"
                },
                {
                  "internalType": "string",
                  "name": "birthdate",
                  "type": "string"
                },
                {
                  "internalType": "string",
                  "name": "email",
                  "type": "string"
                },
                {
                  "internalType": "string",
                  "name": "homeAddress",
                  "type": "string"
                },
                {
                  "internalType": "string",
                  "name": "phone",
                  "type": "string"
                },
                {
                  "internalType": "uint256",
                  "name": "userSince",
                  "type": "uint256"
                }
              ],
              "internalType": "struct MainContract.User",
              "name": "primaryInfo",
              "type": "tuple"
            },
            {
              "internalType": "string",
              "name": "qualification",
              "type": "string"
            },
            {
              "internalType": "string",
              "name": "major",
              "type": "string"
            }
          ],
          "internalType": "struct MainContract.Doctor",
          "name": "",
          "type": "tuple"
        }
      ],
      "stateMutability": "view",
      "type": "function",
      "constant": true
    },
    {
      "inputs": [
        {
          "internalType": "string",
          "name": "_encryptedID",
          "type": "string"
        },
        {
          "internalType": "string",
          "name": "_dataHash",
          "type": "string"
        },
        {
          "internalType": "address",
          "name": "_issuerDoctorAddr",
          "type": "address"
        },
        {
          "internalType": "address",
          "name": "_patientAddr",
          "type": "address"
        }
      ],
      "name": "createRecord",
      "outputs": [],
      "stateMutability": "nonpayable",
      "type": "function"
    },
    {
      "inputs": [
        {
          "internalType": "string",
          "name": "_encryptedID",
          "type": "string"
        }
      ],
      "name": "getRecordDetails",
      "outputs": [
        {
          "components": [
            {
              "internalType": "string",
              "name": "encryptedID",
              "type": "string"
            },
            {
              "internalType": "string",
              "name": "dataHash",
              "type": "string"
            },
            {
              "internalType": "address",
              "name": "issuerDoctorAddr",
              "type": "address"
            },
            {
              "internalType": "uint256",
              "name": "timestamp",
              "type": "uint256"
            },
            {
              "internalType": "enum MainContract.RecordStatus",
              "name": "recordStatus",
              "type": "uint8"
            }
          ],
          "internalType": "struct MainContract.Record",
          "name": "",
          "type": "tuple"
        }
      ],
      "stateMutability": "view",
      "type": "function",
      "constant": true
    },
    {
      "inputs": [
        {
          "internalType": "string",
          "name": "_encryptedID",
          "type": "string"
        },
        {
          "internalType": "string",
          "name": "_dataHash",
          "type": "string"
        },
        {
          "internalType": "enum MainContract.RecordStatus",
          "name": "_recordStatus",
          "type": "uint8"
        }
      ],
      "name": "editRecord",
      "outputs": [],
      "stateMutability": "nonpayable",
      "type": "function"
    },
    {
      "inputs": [
        {
          "internalType": "string",
          "name": "_encryptedID",
          "type": "string"
        },
        {
          "internalType": "address",
          "name": "_patientAddress",
          "type": "address"
        }
      ],
      "name": "removeRecord",
      "outputs": [],
      "stateMutability": "nonpayable",
      "type": "function"
    }
  ],
  "bytecode": "0x608060405260008055600060015534801561001957600080fd5b50615e76806200002a6000396000f3fe608060405234801561001057600080fd5b50600436106101215760003560e01c806393119a83116100ad578063da2e626f11610071578063da2e626f14610318578063deb5ef091461034d578063e6224df41461036b578063efe2ccc11461039d578063f40339a4146103cd57610121565b806393119a83146102645780639eaf795814610294578063b6b8ba36146102b0578063b715962c146102cc578063bab90dbd146102e857610121565b80634fce2b68116100f45780634fce2b68146101c257806365b44d7e146101de5780636efb1b84146101fc578063879272151461022c5780638e55966d1461024857610121565b80631a9e48f5146101265780631bc7a79a1461015657806322d0741b14610172578063448259e81461018e575b600080fd5b610140600480360381019061013b9190614ce5565b6103e9565b60405161014d91906158ec565b60405180910390f35b610170600480360381019061016b9190614e8c565b61062c565b005b61018c60048036038101906101879190614d7a565b6109d1565b005b6101a860048036038101906101a39190614ce5565b610caa565b6040516101b99594939291906157d8565b60405180910390f35b6101dc60048036038101906101d79190614ca9565b610e33565b005b6101e6610fc1565b6040516101f391906159e5565b60405180910390f35b61021660048036038101906102119190615095565b610fc7565b6040516102239190615733565b60405180910390f35b61024660048036038101906102419190614f23565b610ffa565b005b610262600480360381019061025d9190614d26565b6115f9565b005b61027e60048036038101906102799190615095565b611a1e565b60405161028b9190615733565b60405180910390f35b6102ae60048036038101906102a99190614e0d565b611a51565b005b6102ca60048036038101906102c59190614f23565b611b5d565b005b6102e660048036038101906102e19190614e8c565b612170565b005b61030260048036038101906102fd9190614c80565b6124ff565b60405161030f91906158a8565b60405180910390f35b610332600480360381019061032d9190614c80565b612aef565b6040516103449695949392919061595a565b60405180910390f35b61035561323c565b60405161036291906159e5565b60405180910390f35b61038560048036038101906103809190614c80565b613242565b6040516103949392919061590e565b60405180910390f35b6103b760048036038101906103b29190614c80565b6137e5565b6040516103c491906158ca565b60405180910390f35b6103e760048036038101906103e29190614ca9565b6140f3565b005b6103f1614569565b6006826040516104019190615705565b90815260200160405180910390206040518060a001604052908160008201805461042a90615c44565b80601f016020809104026020016040519081016040528092919081815260200182805461045690615c44565b80156104a35780601f10610478576101008083540402835291602001916104a3565b820191906000526020600020905b81548152906001019060200180831161048657829003601f168201915b505050505081526020016001820180546104bc90615c44565b80601f01602080910402602001604051908101604052809291908181526020018280546104e890615c44565b80156105355780601f1061050a57610100808354040283529160200191610535565b820191906000526020600020905b81548152906001019060200180831161051857829003601f168201915b505050505081526020016002820160009054906101000a900473ffffffffffffffffffffffffffffffffffffffff1673ffffffffffffffffffffffffffffffffffffffff1673ffffffffffffffffffffffffffffffffffffffff168152602001600382015481526020016004820160009054906101000a900460ff1660028111156105e9577f4e487b7100000000000000000000000000000000000000000000000000000000600052602160045260246000fd5b6002811115610621577f4e487b7100000000000000000000000000000000000000000000000000000000600052602160045260246000fd5b815250509050919050565b600083600001519050600860008273ffffffffffffffffffffffffffffffffffffffff1673ffffffffffffffffffffffffffffffffffffffff16815260200190815260200160002060009054906101000a900460ff1661068b57600080fd5b8360200151600560008373ffffffffffffffffffffffffffffffffffffffff1673ffffffffffffffffffffffffffffffffffffffff16815260200190815260200160002060000160010190805190602001906106e89291906145e6565b508360400151600560008373ffffffffffffffffffffffffffffffffffffffff1673ffffffffffffffffffffffffffffffffffffffff16815260200190815260200160002060000160020190805190602001906107469291906145e6565b508360600151600560008373ffffffffffffffffffffffffffffffffffffffff1673ffffffffffffffffffffffffffffffffffffffff16815260200190815260200160002060000160030190805190602001906107a49291906145e6565b508360800151600560008373ffffffffffffffffffffffffffffffffffffffff1673ffffffffffffffffffffffffffffffffffffffff16815260200190815260200160002060000160040190805190602001906108029291906145e6565b508360a00151600560008373ffffffffffffffffffffffffffffffffffffffff1673ffffffffffffffffffffffffffffffffffffffff16815260200190815260200160002060000160050190805190602001906108609291906145e6565b508360c00151600560008373ffffffffffffffffffffffffffffffffffffffff1673ffffffffffffffffffffffffffffffffffffffff16815260200190815260200160002060000160060190805190602001906108be9291906145e6565b508360e00151600560008373ffffffffffffffffffffffffffffffffffffffff1673ffffffffffffffffffffffffffffffffffffffff168152602001908152602001600020600001600701908051906020019061091c9291906145e6565b5082600560008373ffffffffffffffffffffffffffffffffffffffff1673ffffffffffffffffffffffffffffffffffffffff16815260200190815260200160002060090190805190602001906109739291906145e6565b5081600560008373ffffffffffffffffffffffffffffffffffffffff1673ffffffffffffffffffffffffffffffffffffffff168152602001908152602001600020600a0190805190602001906109ca9291906145e6565b5050505050565b600860008373ffffffffffffffffffffffffffffffffffffffff1673ffffffffffffffffffffffffffffffffffffffff16815260200190815260200160002060009054906101000a900460ff16610a2757600080fd5b600760008273ffffffffffffffffffffffffffffffffffffffff1673ffffffffffffffffffffffffffffffffffffffff16815260200190815260200160002060009054906101000a900460ff16610a7d57600080fd5b6000429050600085600687604051610a959190615705565b90815260200160405180910390206000019080519060200190610ab99291906145e6565b5084600687604051610acb9190615705565b90815260200160405180910390206001019080519060200190610aef9291906145e6565b5083600687604051610b019190615705565b908152602001604051809103902060020160006101000a81548173ffffffffffffffffffffffffffffffffffffffff021916908373ffffffffffffffffffffffffffffffffffffffff16021790555081600687604051610b619190615705565b90815260200160405180910390206003018190555080600687604051610b879190615705565b908152602001604051809103902060040160006101000a81548160ff02191690836002811115610be0577f4e487b7100000000000000000000000000000000000000000000000000000000600052602160045260246000fd5b0217905550600460008473ffffffffffffffffffffffffffffffffffffffff1673ffffffffffffffffffffffffffffffffffffffff168152602001908152602001600020600f0186908060018154018082558091505060019003906000526020600020016000909190919091509080519060200190610c609291906145e6565b507fa8f9b0e7d42327661d46e236a278fc31bd69ab6e6da45464ed9722bbb8503f09868686858588604051610c9a96959493929190615839565b60405180910390a1505050505050565b600681805160208101820180518482526020830160208501208183528095505050505050600091509050806000018054610ce390615c44565b80601f0160208091040260200160405190810160405280929190818152602001828054610d0f90615c44565b8015610d5c5780601f10610d3157610100808354040283529160200191610d5c565b820191906000526020600020905b815481529060010190602001808311610d3f57829003601f168201915b505050505090806001018054610d7190615c44565b80601f0160208091040260200160405190810160405280929190818152602001828054610d9d90615c44565b8015610dea5780601f10610dbf57610100808354040283529160200191610dea565b820191906000526020600020905b815481529060010190602001808311610dcd57829003601f168201915b5050505050908060020160009054906101000a900473ffffffffffffffffffffffffffffffffffffffff16908060030154908060040160009054906101000a900460ff16905085565b600860008373ffffffffffffffffffffffffffffffffffffffff1673ffffffffffffffffffffffffffffffffffffffff16815260200190815260200160002060009054906101000a900460ff16610e8957600080fd5b600760008273ffffffffffffffffffffffffffffffffffffffff1673ffffffffffffffffffffffffffffffffffffffff16815260200190815260200160002060009054906101000a900460ff16610edf57600080fd5b600460008273ffffffffffffffffffffffffffffffffffffffff1673ffffffffffffffffffffffffffffffffffffffff168152602001908152602001600020600e01829080600181540180825580915050600190039060005260206000200160009091909190916101000a81548173ffffffffffffffffffffffffffffffffffffffff021916908373ffffffffffffffffffffffffffffffffffffffff1602179055507fa58fd95ad438335ebea70c43acd7ba96835900dab734d4444ebcd10b286c8bd1828242604051610fb59392919061574e565b60405180910390a15050565b60015481565b60036020528060005260406000206000915054906101000a900473ffffffffffffffffffffffffffffffffffffffff1681565b600088600001519050600760008a6000015173ffffffffffffffffffffffffffffffffffffffff1673ffffffffffffffffffffffffffffffffffffffff16815260200190815260200160002060009054906101000a900460ff161561105e57600080fd5b6001600760008373ffffffffffffffffffffffffffffffffffffffff1673ffffffffffffffffffffffffffffffffffffffff16815260200190815260200160002060006101000a81548160ff0219169083151502179055506000896101000151905089600460008473ffffffffffffffffffffffffffffffffffffffff1673ffffffffffffffffffffffffffffffffffffffff16815260200190815260200160002060000160008201518160000160006101000a81548173ffffffffffffffffffffffffffffffffffffffff021916908373ffffffffffffffffffffffffffffffffffffffff16021790555060208201518160010190805190602001906111669291906145e6565b5060408201518160020190805190602001906111839291906145e6565b5060608201518160030190805190602001906111a09291906145e6565b5060808201518160040190805190602001906111bd9291906145e6565b5060a08201518160050190805190602001906111da9291906145e6565b5060c08201518160060190805190602001906111f79291906145e6565b5060e08201518160070190805190602001906112149291906145e6565b50610100820151816008015590505088600460008473ffffffffffffffffffffffffffffffffffffffff1673ffffffffffffffffffffffffffffffffffffffff16815260200190815260200160002060090190805190602001906112799291906145e6565b5087600460008473ffffffffffffffffffffffffffffffffffffffff1673ffffffffffffffffffffffffffffffffffffffff168152602001908152602001600020600a0190805190602001906112d09291906145e6565b5086600460008473ffffffffffffffffffffffffffffffffffffffff1673ffffffffffffffffffffffffffffffffffffffff168152602001908152602001600020600b0190805190602001906113279291906145e6565b5085600460008473ffffffffffffffffffffffffffffffffffffffff1673ffffffffffffffffffffffffffffffffffffffff168152602001908152602001600020600c01908051906020019061137e9291906145e6565b5084600460008473ffffffffffffffffffffffffffffffffffffffff1673ffffffffffffffffffffffffffffffffffffffff168152602001908152602001600020600d0190805190602001906113d59291906145e6565b5060005b845181101561148b576008600086838151811061141f577f4e487b7100000000000000000000000000000000000000000000000000000000600052603260045260246000fd5b602002602001015173ffffffffffffffffffffffffffffffffffffffff1673ffffffffffffffffffffffffffffffffffffffff16815260200190815260200160002060009054906101000a900460ff1661147857600080fd5b808061148390615ca7565b9150506113d9565b5083600460008473ffffffffffffffffffffffffffffffffffffffff1673ffffffffffffffffffffffffffffffffffffffff168152602001908152602001600020600e0190805190602001906114e292919061466c565b5082600460008473ffffffffffffffffffffffffffffffffffffffff1673ffffffffffffffffffffffffffffffffffffffff168152602001908152602001600020600f0190805190602001906115399291906146f6565b5060008081548092919061154c90615ca7565b919050555081600260008054815260200190815260200160002060006101000a81548173ffffffffffffffffffffffffffffffffffffffff021916908373ffffffffffffffffffffffffffffffffffffffff1602179055507f88a4b268a245c7e81b8962a18a5abe198a80bfa3d1ea8dd32a9e468ed97f265b8a600001518b604001518c60200151846040516115e59493929190615785565b60405180910390a150505050505050505050565b600760008273ffffffffffffffffffffffffffffffffffffffff1673ffffffffffffffffffffffffffffffffffffffff16815260200190815260200160002060009054906101000a900460ff1661164f57600080fd5b60068260405161165f9190615705565b90815260200160405180910390206000808201600061167e9190614756565b60018201600061168e9190614756565b6002820160006101000a81549073ffffffffffffffffffffffffffffffffffffffff021916905560038201600090556004820160006101000a81549060ff0219169055505060005b600460008373ffffffffffffffffffffffffffffffffffffffff1673ffffffffffffffffffffffffffffffffffffffff168152602001908152602001600020600f0180549050811015611a1957826040516020016117349190615705565b60405160208183030381529060405280519060200120600460008473ffffffffffffffffffffffffffffffffffffffff1673ffffffffffffffffffffffffffffffffffffffff168152602001908152602001600020600f0182815481106117c4577f4e487b7100000000000000000000000000000000000000000000000000000000600052603260045260246000fd5b906000526020600020016040516020016117de919061571c565b604051602081830303815290604052805190602001201415611a0657600460008373ffffffffffffffffffffffffffffffffffffffff1673ffffffffffffffffffffffffffffffffffffffff168152602001908152602001600020600f016001600460008573ffffffffffffffffffffffffffffffffffffffff1673ffffffffffffffffffffffffffffffffffffffff168152602001908152602001600020600f018054905061188e9190615b6d565b815481106118c5577f4e487b7100000000000000000000000000000000000000000000000000000000600052603260045260246000fd5b90600052602060002001600460008473ffffffffffffffffffffffffffffffffffffffff1673ffffffffffffffffffffffffffffffffffffffff168152602001908152602001600020600f018281548110611949577f4e487b7100000000000000000000000000000000000000000000000000000000600052603260045260246000fd5b9060005260206000200190805461195f90615c44565b61196a929190614796565b50600460008373ffffffffffffffffffffffffffffffffffffffff1673ffffffffffffffffffffffffffffffffffffffff168152602001908152602001600020600f018054806119e3577f4e487b7100000000000000000000000000000000000000000000000000000000600052603160045260246000fd5b6001900381819060005260206000200160006119ff9190614756565b9055611a19565b8080611a1190615ca7565b9150506116d6565b505050565b60026020528060005260406000206000915054906101000a900473ffffffffffffffffffffffffffffffffffffffff1681565b600042905083600685604051611a679190615705565b90815260200160405180910390206000019080519060200190611a8b9291906145e6565b5082600685604051611a9d9190615705565b90815260200160405180910390206001019080519060200190611ac19291906145e6565b5080600685604051611ad39190615705565b90815260200160405180910390206003018190555081600685604051611af99190615705565b908152602001604051809103902060040160006101000a81548160ff02191690836002811115611b52577f4e487b7100000000000000000000000000000000000000000000000000000000600052602160045260246000fd5b021790555050505050565b600088600001519050600760008273ffffffffffffffffffffffffffffffffffffffff1673ffffffffffffffffffffffffffffffffffffffff16815260200190815260200160002060009054906101000a900460ff16611bbc57600080fd5b8860200151600460008373ffffffffffffffffffffffffffffffffffffffff1673ffffffffffffffffffffffffffffffffffffffff1681526020019081526020016000206000016001019080519060200190611c199291906145e6565b508860400151600460008373ffffffffffffffffffffffffffffffffffffffff1673ffffffffffffffffffffffffffffffffffffffff1681526020019081526020016000206000016002019080519060200190611c779291906145e6565b508860600151600460008373ffffffffffffffffffffffffffffffffffffffff1673ffffffffffffffffffffffffffffffffffffffff1681526020019081526020016000206000016003019080519060200190611cd59291906145e6565b508860800151600460008373ffffffffffffffffffffffffffffffffffffffff1673ffffffffffffffffffffffffffffffffffffffff1681526020019081526020016000206000016004019080519060200190611d339291906145e6565b508860a00151600460008373ffffffffffffffffffffffffffffffffffffffff1673ffffffffffffffffffffffffffffffffffffffff1681526020019081526020016000206000016005019080519060200190611d919291906145e6565b508860c00151600460008373ffffffffffffffffffffffffffffffffffffffff1673ffffffffffffffffffffffffffffffffffffffff1681526020019081526020016000206000016006019080519060200190611def9291906145e6565b508860e00151600460008373ffffffffffffffffffffffffffffffffffffffff1673ffffffffffffffffffffffffffffffffffffffff1681526020019081526020016000206000016007019080519060200190611e4d9291906145e6565b5087600460008373ffffffffffffffffffffffffffffffffffffffff1673ffffffffffffffffffffffffffffffffffffffff1681526020019081526020016000206009019080519060200190611ea49291906145e6565b5086600460008373ffffffffffffffffffffffffffffffffffffffff1673ffffffffffffffffffffffffffffffffffffffff168152602001908152602001600020600a019080519060200190611efb9291906145e6565b5085600460008373ffffffffffffffffffffffffffffffffffffffff1673ffffffffffffffffffffffffffffffffffffffff168152602001908152602001600020600b019080519060200190611f529291906145e6565b5084600460008373ffffffffffffffffffffffffffffffffffffffff1673ffffffffffffffffffffffffffffffffffffffff168152602001908152602001600020600c019080519060200190611fa99291906145e6565b5083600460008373ffffffffffffffffffffffffffffffffffffffff1673ffffffffffffffffffffffffffffffffffffffff168152602001908152602001600020600d0190805190602001906120009291906145e6565b5060005b83518110156120b6576008600085838151811061204a577f4e487b7100000000000000000000000000000000000000000000000000000000600052603260045260246000fd5b602002602001015173ffffffffffffffffffffffffffffffffffffffff1673ffffffffffffffffffffffffffffffffffffffff16815260200190815260200160002060009054906101000a900460ff166120a357600080fd5b80806120ae90615ca7565b915050612004565b5082600460008373ffffffffffffffffffffffffffffffffffffffff1673ffffffffffffffffffffffffffffffffffffffff168152602001908152602001600020600e01908051906020019061210d92919061466c565b5081600460008373ffffffffffffffffffffffffffffffffffffffff1673ffffffffffffffffffffffffffffffffffffffff168152602001908152602001600020600f0190805190602001906121649291906146f6565b50505050505050505050565b600083600001519050600860008273ffffffffffffffffffffffffffffffffffffffff1673ffffffffffffffffffffffffffffffffffffffff16815260200190815260200160002060009054906101000a900460ff16156121d057600080fd5b6001600860008373ffffffffffffffffffffffffffffffffffffffff1673ffffffffffffffffffffffffffffffffffffffff16815260200190815260200160002060006101000a81548160ff0219169083151502179055506000846101000151905084600560008473ffffffffffffffffffffffffffffffffffffffff1673ffffffffffffffffffffffffffffffffffffffff16815260200190815260200160002060000160008201518160000160006101000a81548173ffffffffffffffffffffffffffffffffffffffff021916908373ffffffffffffffffffffffffffffffffffffffff16021790555060208201518160010190805190602001906122d89291906145e6565b5060408201518160020190805190602001906122f59291906145e6565b5060608201518160030190805190602001906123129291906145e6565b50608082015181600401908051906020019061232f9291906145e6565b5060a082015181600501908051906020019061234c9291906145e6565b5060c08201518160060190805190602001906123699291906145e6565b5060e08201518160070190805190602001906123869291906145e6565b50610100820151816008015590505083600560008473ffffffffffffffffffffffffffffffffffffffff1673ffffffffffffffffffffffffffffffffffffffff16815260200190815260200160002060090190805190602001906123eb9291906145e6565b5082600560008473ffffffffffffffffffffffffffffffffffffffff1673ffffffffffffffffffffffffffffffffffffffff168152602001908152602001600020600a0190805190602001906124429291906145e6565b506001600081548092919061245690615ca7565b91905055508160036000600154815260200190815260200160002060006101000a81548173ffffffffffffffffffffffffffffffffffffffff021916908373ffffffffffffffffffffffffffffffffffffffff1602179055507f87c5c024b616aed507b1cd9756c0594f4efc94d637550067d61b2293d03a6ea9856000015186604001518760200151846040516124f09493929190615785565b60405180910390a15050505050565b612507614823565b600560008373ffffffffffffffffffffffffffffffffffffffff1673ffffffffffffffffffffffffffffffffffffffff16815260200190815260200160002060405180606001604052908160008201604051806101200160405290816000820160009054906101000a900473ffffffffffffffffffffffffffffffffffffffff1673ffffffffffffffffffffffffffffffffffffffff1673ffffffffffffffffffffffffffffffffffffffff1681526020016001820180546125c890615c44565b80601f01602080910402602001604051908101604052809291908181526020018280546125f490615c44565b80156126415780601f1061261657610100808354040283529160200191612641565b820191906000526020600020905b81548152906001019060200180831161262457829003601f168201915b5050505050815260200160028201805461265a90615c44565b80601f016020809104026020016040519081016040528092919081815260200182805461268690615c44565b80156126d35780601f106126a8576101008083540402835291602001916126d3565b820191906000526020600020905b8154815290600101906020018083116126b657829003601f168201915b505050505081526020016003820180546126ec90615c44565b80601f016020809104026020016040519081016040528092919081815260200182805461271890615c44565b80156127655780601f1061273a57610100808354040283529160200191612765565b820191906000526020600020905b81548152906001019060200180831161274857829003601f168201915b5050505050815260200160048201805461277e90615c44565b80601f01602080910402602001604051908101604052809291908181526020018280546127aa90615c44565b80156127f75780601f106127cc576101008083540402835291602001916127f7565b820191906000526020600020905b8154815290600101906020018083116127da57829003601f168201915b5050505050815260200160058201805461281090615c44565b80601f016020809104026020016040519081016040528092919081815260200182805461283c90615c44565b80156128895780601f1061285e57610100808354040283529160200191612889565b820191906000526020600020905b81548152906001019060200180831161286c57829003601f168201915b505050505081526020016006820180546128a290615c44565b80601f01602080910402602001604051908101604052809291908181526020018280546128ce90615c44565b801561291b5780601f106128f05761010080835404028352916020019161291b565b820191906000526020600020905b8154815290600101906020018083116128fe57829003601f168201915b5050505050815260200160078201805461293490615c44565b80601f016020809104026020016040519081016040528092919081815260200182805461296090615c44565b80156129ad5780601f10612982576101008083540402835291602001916129ad565b820191906000526020600020905b81548152906001019060200180831161299057829003601f168201915b5050505050815260200160088201548152505081526020016009820180546129d490615c44565b80601f0160208091040260200160405190810160405280929190818152602001828054612a0090615c44565b8015612a4d5780601f10612a2257610100808354040283529160200191612a4d565b820191906000526020600020905b815481529060010190602001808311612a3057829003601f168201915b50505050508152602001600a82018054612a6690615c44565b80601f0160208091040260200160405190810160405280929190818152602001828054612a9290615c44565b8015612adf5780601f10612ab457610100808354040283529160200191612adf565b820191906000526020600020905b815481529060010190602001808311612ac257829003601f168201915b5050505050815250509050919050565b600460205280600052604060002060009150905080600001604051806101200160405290816000820160009054906101000a900473ffffffffffffffffffffffffffffffffffffffff1673ffffffffffffffffffffffffffffffffffffffff1673ffffffffffffffffffffffffffffffffffffffff168152602001600182018054612b7990615c44565b80601f0160208091040260200160405190810160405280929190818152602001828054612ba590615c44565b8015612bf25780601f10612bc757610100808354040283529160200191612bf2565b820191906000526020600020905b815481529060010190602001808311612bd557829003601f168201915b50505050508152602001600282018054612c0b90615c44565b80601f0160208091040260200160405190810160405280929190818152602001828054612c3790615c44565b8015612c845780601f10612c5957610100808354040283529160200191612c84565b820191906000526020600020905b815481529060010190602001808311612c6757829003601f168201915b50505050508152602001600382018054612c9d90615c44565b80601f0160208091040260200160405190810160405280929190818152602001828054612cc990615c44565b8015612d165780601f10612ceb57610100808354040283529160200191612d16565b820191906000526020600020905b815481529060010190602001808311612cf957829003601f168201915b50505050508152602001600482018054612d2f90615c44565b80601f0160208091040260200160405190810160405280929190818152602001828054612d5b90615c44565b8015612da85780601f10612d7d57610100808354040283529160200191612da8565b820191906000526020600020905b815481529060010190602001808311612d8b57829003601f168201915b50505050508152602001600582018054612dc190615c44565b80601f0160208091040260200160405190810160405280929190818152602001828054612ded90615c44565b8015612e3a5780601f10612e0f57610100808354040283529160200191612e3a565b820191906000526020600020905b815481529060010190602001808311612e1d57829003601f168201915b50505050508152602001600682018054612e5390615c44565b80601f0160208091040260200160405190810160405280929190818152602001828054612e7f90615c44565b8015612ecc5780601f10612ea157610100808354040283529160200191612ecc565b820191906000526020600020905b815481529060010190602001808311612eaf57829003601f168201915b50505050508152602001600782018054612ee590615c44565b80601f0160208091040260200160405190810160405280929190818152602001828054612f1190615c44565b8015612f5e5780601f10612f3357610100808354040283529160200191612f5e565b820191906000526020600020905b815481529060010190602001808311612f4157829003601f168201915b5050505050815260200160088201548152505090806009018054612f8190615c44565b80601f0160208091040260200160405190810160405280929190818152602001828054612fad90615c44565b8015612ffa5780601f10612fcf57610100808354040283529160200191612ffa565b820191906000526020600020905b815481529060010190602001808311612fdd57829003601f168201915b50505050509080600a01805461300f90615c44565b80601f016020809104026020016040519081016040528092919081815260200182805461303b90615c44565b80156130885780601f1061305d57610100808354040283529160200191613088565b820191906000526020600020905b81548152906001019060200180831161306b57829003601f168201915b50505050509080600b01805461309d90615c44565b80601f01602080910402602001604051908101604052809291908181526020018280546130c990615c44565b80156131165780601f106130eb57610100808354040283529160200191613116565b820191906000526020600020905b8154815290600101906020018083116130f957829003601f168201915b50505050509080600c01805461312b90615c44565b80601f016020809104026020016040519081016040528092919081815260200182805461315790615c44565b80156131a45780601f10613179576101008083540402835291602001916131a4565b820191906000526020600020905b81548152906001019060200180831161318757829003601f168201915b50505050509080600d0180546131b990615c44565b80601f01602080910402602001604051908101604052809291908181526020018280546131e590615c44565b80156132325780601f1061320757610100808354040283529160200191613232565b820191906000526020600020905b81548152906001019060200180831161321557829003601f168201915b5050505050905086565b60005481565b600560205280600052604060002060009150905080600001604051806101200160405290816000820160009054906101000a900473ffffffffffffffffffffffffffffffffffffffff1673ffffffffffffffffffffffffffffffffffffffff1673ffffffffffffffffffffffffffffffffffffffff1681526020016001820180546132cc90615c44565b80601f01602080910402602001604051908101604052809291908181526020018280546132f890615c44565b80156133455780601f1061331a57610100808354040283529160200191613345565b820191906000526020600020905b81548152906001019060200180831161332857829003601f168201915b5050505050815260200160028201805461335e90615c44565b80601f016020809104026020016040519081016040528092919081815260200182805461338a90615c44565b80156133d75780601f106133ac576101008083540402835291602001916133d7565b820191906000526020600020905b8154815290600101906020018083116133ba57829003601f168201915b505050505081526020016003820180546133f090615c44565b80601f016020809104026020016040519081016040528092919081815260200182805461341c90615c44565b80156134695780601f1061343e57610100808354040283529160200191613469565b820191906000526020600020905b81548152906001019060200180831161344c57829003601f168201915b5050505050815260200160048201805461348290615c44565b80601f01602080910402602001604051908101604052809291908181526020018280546134ae90615c44565b80156134fb5780601f106134d0576101008083540402835291602001916134fb565b820191906000526020600020905b8154815290600101906020018083116134de57829003601f168201915b5050505050815260200160058201805461351490615c44565b80601f016020809104026020016040519081016040528092919081815260200182805461354090615c44565b801561358d5780601f106135625761010080835404028352916020019161358d565b820191906000526020600020905b81548152906001019060200180831161357057829003601f168201915b505050505081526020016006820180546135a690615c44565b80601f01602080910402602001604051908101604052809291908181526020018280546135d290615c44565b801561361f5780601f106135f45761010080835404028352916020019161361f565b820191906000526020600020905b81548152906001019060200180831161360257829003601f168201915b5050505050815260200160078201805461363890615c44565b80601f016020809104026020016040519081016040528092919081815260200182805461366490615c44565b80156136b15780601f10613686576101008083540402835291602001916136b1565b820191906000526020600020905b81548152906001019060200180831161369457829003601f168201915b50505050508152602001600882015481525050908060090180546136d490615c44565b80601f016020809104026020016040519081016040528092919081815260200182805461370090615c44565b801561374d5780601f106137225761010080835404028352916020019161374d565b820191906000526020600020905b81548152906001019060200180831161373057829003601f168201915b50505050509080600a01805461376290615c44565b80601f016020809104026020016040519081016040528092919081815260200182805461378e90615c44565b80156137db5780601f106137b0576101008083540402835291602001916137db565b820191906000526020600020905b8154815290600101906020018083116137be57829003601f168201915b5050505050905083565b6137ed61484a565b600460008373ffffffffffffffffffffffffffffffffffffffff1673ffffffffffffffffffffffffffffffffffffffff1681526020019081526020016000206040518061010001604052908160008201604051806101200160405290816000820160009054906101000a900473ffffffffffffffffffffffffffffffffffffffff1673ffffffffffffffffffffffffffffffffffffffff1673ffffffffffffffffffffffffffffffffffffffff1681526020016001820180546138af90615c44565b80601f01602080910402602001604051908101604052809291908181526020018280546138db90615c44565b80156139285780601f106138fd57610100808354040283529160200191613928565b820191906000526020600020905b81548152906001019060200180831161390b57829003601f168201915b5050505050815260200160028201805461394190615c44565b80601f016020809104026020016040519081016040528092919081815260200182805461396d90615c44565b80156139ba5780601f1061398f576101008083540402835291602001916139ba565b820191906000526020600020905b81548152906001019060200180831161399d57829003601f168201915b505050505081526020016003820180546139d390615c44565b80601f01602080910402602001604051908101604052809291908181526020018280546139ff90615c44565b8015613a4c5780601f10613a2157610100808354040283529160200191613a4c565b820191906000526020600020905b815481529060010190602001808311613a2f57829003601f168201915b50505050508152602001600482018054613a6590615c44565b80601f0160208091040260200160405190810160405280929190818152602001828054613a9190615c44565b8015613ade5780601f10613ab357610100808354040283529160200191613ade565b820191906000526020600020905b815481529060010190602001808311613ac157829003601f168201915b50505050508152602001600582018054613af790615c44565b80601f0160208091040260200160405190810160405280929190818152602001828054613b2390615c44565b8015613b705780601f10613b4557610100808354040283529160200191613b70565b820191906000526020600020905b815481529060010190602001808311613b5357829003601f168201915b50505050508152602001600682018054613b8990615c44565b80601f0160208091040260200160405190810160405280929190818152602001828054613bb590615c44565b8015613c025780601f10613bd757610100808354040283529160200191613c02565b820191906000526020600020905b815481529060010190602001808311613be557829003601f168201915b50505050508152602001600782018054613c1b90615c44565b80601f0160208091040260200160405190810160405280929190818152602001828054613c4790615c44565b8015613c945780601f10613c6957610100808354040283529160200191613c94565b820191906000526020600020905b815481529060010190602001808311613c7757829003601f168201915b505050505081526020016008820154815250508152602001600982018054613cbb90615c44565b80601f0160208091040260200160405190810160405280929190818152602001828054613ce790615c44565b8015613d345780601f10613d0957610100808354040283529160200191613d34565b820191906000526020600020905b815481529060010190602001808311613d1757829003601f168201915b50505050508152602001600a82018054613d4d90615c44565b80601f0160208091040260200160405190810160405280929190818152602001828054613d7990615c44565b8015613dc65780601f10613d9b57610100808354040283529160200191613dc6565b820191906000526020600020905b815481529060010190602001808311613da957829003601f168201915b50505050508152602001600b82018054613ddf90615c44565b80601f0160208091040260200160405190810160405280929190818152602001828054613e0b90615c44565b8015613e585780601f10613e2d57610100808354040283529160200191613e58565b820191906000526020600020905b815481529060010190602001808311613e3b57829003601f168201915b50505050508152602001600c82018054613e7190615c44565b80601f0160208091040260200160405190810160405280929190818152602001828054613e9d90615c44565b8015613eea5780601f10613ebf57610100808354040283529160200191613eea565b820191906000526020600020905b815481529060010190602001808311613ecd57829003601f168201915b50505050508152602001600d82018054613f0390615c44565b80601f0160208091040260200160405190810160405280929190818152602001828054613f2f90615c44565b8015613f7c5780601f10613f5157610100808354040283529160200191613f7c565b820191906000526020600020905b815481529060010190602001808311613f5f57829003601f168201915b50505050508152602001600e820180548060200260200160405190810160405280929190818152602001828054801561400a57602002820191906000526020600020905b8160009054906101000a900473ffffffffffffffffffffffffffffffffffffffff1673ffffffffffffffffffffffffffffffffffffffff1681526020019060010190808311613fc0575b50505050508152602001600f8201805480602002602001604051908101604052809291908181526020016000905b828210156140e457838290600052602060002001805461405790615c44565b80601f016020809104026020016040519081016040528092919081815260200182805461408390615c44565b80156140d05780601f106140a5576101008083540402835291602001916140d0565b820191906000526020600020905b8154815290600101906020018083116140b357829003601f168201915b505050505081526020019060010190614038565b50505050815250509050919050565b600860008373ffffffffffffffffffffffffffffffffffffffff1673ffffffffffffffffffffffffffffffffffffffff16815260200190815260200160002060009054906101000a900460ff1661414957600080fd5b600760008273ffffffffffffffffffffffffffffffffffffffff1673ffffffffffffffffffffffffffffffffffffffff16815260200190815260200160002060009054906101000a900460ff1661419f57600080fd5b60005b600460008373ffffffffffffffffffffffffffffffffffffffff1673ffffffffffffffffffffffffffffffffffffffff168152602001908152602001600020600e0180549050811015614564578260405160200161420091906156ea565b60405160208183030381529060405280519060200120600460008473ffffffffffffffffffffffffffffffffffffffff1673ffffffffffffffffffffffffffffffffffffffff168152602001908152602001600020600e018281548110614290577f4e487b7100000000000000000000000000000000000000000000000000000000600052603260045260246000fd5b9060005260206000200160009054906101000a900473ffffffffffffffffffffffffffffffffffffffff166040516020016142cb91906156ea565b60405160208183030381529060405280519060200120141561455157600460008373ffffffffffffffffffffffffffffffffffffffff1673ffffffffffffffffffffffffffffffffffffffff168152602001908152602001600020600e016001600460008573ffffffffffffffffffffffffffffffffffffffff1673ffffffffffffffffffffffffffffffffffffffff168152602001908152602001600020600e018054905061437b9190615b6d565b815481106143b2577f4e487b7100000000000000000000000000000000000000000000000000000000600052603260045260246000fd5b9060005260206000200160009054906101000a900473ffffffffffffffffffffffffffffffffffffffff16600460008473ffffffffffffffffffffffffffffffffffffffff1673ffffffffffffffffffffffffffffffffffffffff168152602001908152602001600020600e018281548110614457577f4e487b7100000000000000000000000000000000000000000000000000000000600052603260045260246000fd5b9060005260206000200160006101000a81548173ffffffffffffffffffffffffffffffffffffffff021916908373ffffffffffffffffffffffffffffffffffffffff160217905550600460008373ffffffffffffffffffffffffffffffffffffffff1673ffffffffffffffffffffffffffffffffffffffff168152602001908152602001600020600e01805480614517577f4e487b7100000000000000000000000000000000000000000000000000000000600052603160045260246000fd5b6001900381819060005260206000200160006101000a81549073ffffffffffffffffffffffffffffffffffffffff02191690559055614564565b808061455c90615ca7565b9150506141a2565b505050565b6040518060a001604052806060815260200160608152602001600073ffffffffffffffffffffffffffffffffffffffff16815260200160008152602001600060028111156145e0577f4e487b7100000000000000000000000000000000000000000000000000000000600052602160045260246000fd5b81525090565b8280546145f290615c44565b90600052602060002090601f016020900481019282614614576000855561465b565b82601f1061462d57805160ff191683800117855561465b565b8280016001018555821561465b579182015b8281111561465a57825182559160200191906001019061463f565b5b5090506146689190614895565b5090565b8280548282559060005260206000209081019282156146e5579160200282015b828111156146e45782518260006101000a81548173ffffffffffffffffffffffffffffffffffffffff021916908373ffffffffffffffffffffffffffffffffffffffff1602179055509160200191906001019061468c565b5b5090506146f29190614895565b5090565b828054828255906000526020600020908101928215614745579160200282015b828111156147445782518290805190602001906147349291906145e6565b5091602001919060010190614716565b5b50905061475291906148b2565b5090565b50805461476290615c44565b6000825580601f106147745750614793565b601f0160209004906000526020600020908101906147929190614895565b5b50565b8280546147a290615c44565b90600052602060002090601f0160209004810192826147c45760008555614812565b82601f106147d55780548555614812565b8280016001018555821561481257600052602060002091601f016020900482015b828111156148115782548255916001019190600101906147f6565b5b50905061481f9190614895565b5090565b60405180606001604052806148366148d6565b815260200160608152602001606081525090565b60405180610100016040528061485e6148d6565b8152602001606081526020016060815260200160608152602001606081526020016060815260200160608152602001606081525090565b5b808211156148ae576000816000905550600101614896565b5090565b5b808211156148d257600081816148c99190614756565b506001016148b3565b5090565b604051806101200160405280600073ffffffffffffffffffffffffffffffffffffffff16815260200160608152602001606081526020016060815260200160608152602001606081526020016060815260200160608152602001600081525090565b600061494b61494684615a25565b615a00565b9050808382526020820190508285602086028201111561496a57600080fd5b60005b8581101561499a57816149808882614a3f565b84526020840193506020830192505060018101905061496d565b5050509392505050565b60006149b76149b284615a51565b615a00565b9050808382526020820190508260005b858110156149f757813585016149dd8882614abd565b8452602084019350602083019250506001810190506149c7565b5050509392505050565b6000614a14614a0f84615a7d565b615a00565b905082815260208101848484011115614a2c57600080fd5b614a37848285615c02565b509392505050565b600081359050614a4e81615e02565b92915050565b600082601f830112614a6557600080fd5b8135614a75848260208601614938565b91505092915050565b600082601f830112614a8f57600080fd5b8135614a9f8482602086016149a4565b91505092915050565b600081359050614ab781615e19565b92915050565b600082601f830112614ace57600080fd5b8135614ade848260208601614a01565b91505092915050565b60006101208284031215614afa57600080fd5b614b05610120615a00565b90506000614b1584828501614a3f565b600083015250602082013567ffffffffffffffff811115614b3557600080fd5b614b4184828501614abd565b602083015250604082013567ffffffffffffffff811115614b6157600080fd5b614b6d84828501614abd565b604083015250606082013567ffffffffffffffff811115614b8d57600080fd5b614b9984828501614abd565b606083015250608082013567ffffffffffffffff811115614bb957600080fd5b614bc584828501614abd565b60808301525060a082013567ffffffffffffffff811115614be557600080fd5b614bf184828501614abd565b60a08301525060c082013567ffffffffffffffff811115614c1157600080fd5b614c1d84828501614abd565b60c08301525060e082013567ffffffffffffffff811115614c3d57600080fd5b614c4984828501614abd565b60e083015250610100614c5e84828501614c6b565b6101008301525092915050565b600081359050614c7a81615e29565b92915050565b600060208284031215614c9257600080fd5b6000614ca084828501614a3f565b91505092915050565b60008060408385031215614cbc57600080fd5b6000614cca85828601614a3f565b9250506020614cdb85828601614a3f565b9150509250929050565b600060208284031215614cf757600080fd5b600082013567ffffffffffffffff811115614d1157600080fd5b614d1d84828501614abd565b91505092915050565b60008060408385031215614d3957600080fd5b600083013567ffffffffffffffff811115614d5357600080fd5b614d5f85828601614abd565b9250506020614d7085828601614a3f565b9150509250929050565b60008060008060808587031215614d9057600080fd5b600085013567ffffffffffffffff811115614daa57600080fd5b614db687828801614abd565b945050602085013567ffffffffffffffff811115614dd357600080fd5b614ddf87828801614abd565b9350506040614df087828801614a3f565b9250506060614e0187828801614a3f565b91505092959194509250565b600080600060608486031215614e2257600080fd5b600084013567ffffffffffffffff811115614e3c57600080fd5b614e4886828701614abd565b935050602084013567ffffffffffffffff811115614e6557600080fd5b614e7186828701614abd565b9250506040614e8286828701614aa8565b9150509250925092565b600080600060608486031215614ea157600080fd5b600084013567ffffffffffffffff811115614ebb57600080fd5b614ec786828701614ae7565b935050602084013567ffffffffffffffff811115614ee457600080fd5b614ef086828701614abd565b925050604084013567ffffffffffffffff811115614f0d57600080fd5b614f1986828701614abd565b9150509250925092565b600080600080600080600080610100898b031215614f4057600080fd5b600089013567ffffffffffffffff811115614f5a57600080fd5b614f668b828c01614ae7565b985050602089013567ffffffffffffffff811115614f8357600080fd5b614f8f8b828c01614abd565b975050604089013567ffffffffffffffff811115614fac57600080fd5b614fb88b828c01614abd565b965050606089013567ffffffffffffffff811115614fd557600080fd5b614fe18b828c01614abd565b955050608089013567ffffffffffffffff811115614ffe57600080fd5b61500a8b828c01614abd565b94505060a089013567ffffffffffffffff81111561502757600080fd5b6150338b828c01614abd565b93505060c089013567ffffffffffffffff81111561505057600080fd5b61505c8b828c01614a54565b92505060e089013567ffffffffffffffff81111561507957600080fd5b6150858b828c01614a7e565b9150509295985092959890939650565b6000602082840312156150a757600080fd5b60006150b584828501614c6b565b91505092915050565b60006150ca83836150ea565b60208301905092915050565b60006150e28383615210565b905092915050565b6150f381615ba1565b82525050565b61510281615ba1565b82525050565b61511961511482615ba1565b615cf0565b82525050565b600061512a82615ae3565b6151348185615b1e565b935061513f83615aae565b8060005b8381101561517057815161515788826150be565b975061516283615b04565b925050600181019050615143565b5085935050505092915050565b600061518882615aee565b6151928185615b2f565b9350836020820285016151a485615abe565b8060005b858110156151e057848403895281516151c185826150d6565b94506151cc83615b11565b925060208a019950506001810190506151a8565b50829750879550505050505092915050565b6151fb81615bf0565b82525050565b61520a81615bf0565b82525050565b600061521b82615af9565b6152258185615b40565b9350615235818560208601615c11565b61523e81615dd0565b840191505092915050565b600061525482615af9565b61525e8185615b51565b935061526e818560208601615c11565b61527781615dd0565b840191505092915050565b600061528d82615af9565b6152978185615b62565b93506152a7818560208601615c11565b80840191505092915050565b600081546152c081615c44565b6152ca8186615b62565b945060018216600081146152e557600181146152f657615329565b60ff19831686528186019350615329565b6152ff85615ace565b60005b8381101561532157815481890152600182019150602081019050615302565b838801955050505b50505092915050565b6000606083016000830151848203600086015261534f82826154ee565b915050602083015184820360208601526153698282615210565b915050604083015184820360408601526153838282615210565b9150508091505092915050565b60006101008301600083015184820360008601526153ae82826154ee565b915050602083015184820360208601526153c88282615210565b915050604083015184820360408601526153e28282615210565b915050606083015184820360608601526153fc8282615210565b915050608083015184820360808601526154168282615210565b91505060a083015184820360a08601526154308282615210565b91505060c083015184820360c086015261544a828261511f565b91505060e083015184820360e0860152615464828261517d565b9150508091505092915050565b600060a083016000830151848203600086015261548e8282615210565b915050602083015184820360208601526154a88282615210565b91505060408301516154bd60408601826150ea565b5060608301516154d060608601826156cc565b5060808301516154e360808601826151f2565b508091505092915050565b60006101208301600083015161550760008601826150ea565b506020830151848203602086015261551f8282615210565b915050604083015184820360408601526155398282615210565b915050606083015184820360608601526155538282615210565b9150506080830151848203608086015261556d8282615210565b91505060a083015184820360a08601526155878282615210565b91505060c083015184820360c08601526155a18282615210565b91505060e083015184820360e08601526155bb8282615210565b9150506101008301516155d26101008601826156cc565b508091505092915050565b6000610120830160008301516155f660008601826150ea565b506020830151848203602086015261560e8282615210565b915050604083015184820360408601526156288282615210565b915050606083015184820360608601526156428282615210565b9150506080830151848203608086015261565c8282615210565b91505060a083015184820360a08601526156768282615210565b91505060c083015184820360c08601526156908282615210565b91505060e083015184820360e08601526156aa8282615210565b9150506101008301516156c16101008601826156cc565b508091505092915050565b6156d581615be6565b82525050565b6156e481615be6565b82525050565b60006156f68284615108565b60148201915081905092915050565b60006157118284615282565b915081905092915050565b600061572882846152b3565b915081905092915050565b600060208201905061574860008301846150f9565b92915050565b600060608201905061576360008301866150f9565b61577060208301856150f9565b61577d60408301846156db565b949350505050565b600060808201905061579a60008301876150f9565b81810360208301526157ac8186615249565b905081810360408301526157c08185615249565b90506157cf60608301846156db565b95945050505050565b600060a08201905081810360008301526157f28188615249565b905081810360208301526158068187615249565b905061581560408301866150f9565b61582260608301856156db565b61582f6080830184615201565b9695505050505050565b600060c08201905081810360008301526158538189615249565b905081810360208301526158678188615249565b905061587660408301876150f9565b61588360608301866156db565b6158906080830185615201565b61589d60a08301846150f9565b979650505050505050565b600060208201905081810360008301526158c28184615332565b905092915050565b600060208201905081810360008301526158e48184615390565b905092915050565b600060208201905081810360008301526159068184615471565b905092915050565b6000606082019050818103600083015261592881866155dd565b9050818103602083015261593c8185615249565b905081810360408301526159508184615249565b9050949350505050565b600060c082019050818103600083015261597481896155dd565b905081810360208301526159888188615249565b9050818103604083015261599c8187615249565b905081810360608301526159b08186615249565b905081810360808301526159c48185615249565b905081810360a08301526159d88184615249565b9050979650505050505050565b60006020820190506159fa60008301846156db565b92915050565b6000615a0a615a1b565b9050615a168282615c76565b919050565b6000604051905090565b600067ffffffffffffffff821115615a4057615a3f615da1565b5b602082029050602081019050919050565b600067ffffffffffffffff821115615a6c57615a6b615da1565b5b602082029050602081019050919050565b600067ffffffffffffffff821115615a9857615a97615da1565b5b615aa182615dd0565b9050602081019050919050565b6000819050602082019050919050565b6000819050602082019050919050565b60008190508160005260206000209050919050565b600081519050919050565b600081519050919050565b600081519050919050565b6000602082019050919050565b6000602082019050919050565b600082825260208201905092915050565b600082825260208201905092915050565b600082825260208201905092915050565b600082825260208201905092915050565b600081905092915050565b6000615b7882615be6565b9150615b8383615be6565b925082821015615b9657615b95615d14565b5b828203905092915050565b6000615bac82615bc6565b9050919050565b6000819050615bc182615dee565b919050565b600073ffffffffffffffffffffffffffffffffffffffff82169050919050565b6000819050919050565b6000615bfb82615bb3565b9050919050565b82818337600083830152505050565b60005b83811015615c2f578082015181840152602081019050615c14565b83811115615c3e576000848401525b50505050565b60006002820490506001821680615c5c57607f821691505b60208210811415615c7057615c6f615d72565b5b50919050565b615c7f82615dd0565b810181811067ffffffffffffffff82111715615c9e57615c9d615da1565b5b80604052505050565b6000615cb282615be6565b91507fffffffffffffffffffffffffffffffffffffffffffffffffffffffffffffffff821415615ce557615ce4615d14565b5b600182019050919050565b6000615cfb82615d02565b9050919050565b6000615d0d82615de1565b9050919050565b7f4e487b7100000000000000000000000000000000000000000000000000000000600052601160045260246000fd5b7f4e487b7100000000000000000000000000000000000000000000000000000000600052602160045260246000fd5b7f4e487b7100000000000000000000000000000000000000000000000000000000600052602260045260246000fd5b7f4e487b7100000000000000000000000000000000000000000000000000000000600052604160045260246000fd5b6000601f19601f8301169050919050565b60008160601b9050919050565b60038110615dff57615dfe615d43565b5b50565b615e0b81615ba1565b8114615e1657600080fd5b50565b60038110615e2657600080fd5b50565b615e3281615be6565b8114615e3d57600080fd5b5056fea2646970667358221220aa8e30a213cfdf7c08c40448f2ce0182372e83ee47c9bfbd7dca338e84b47fff64736f6c63430008020033",
  "immutableReferences": {},
  "source": "// SPDX-License-Identifier: MIT\npragma solidity 0.8.2;\npragma experimental ABIEncoderV2;\n\ncontract MainContract {\n    struct User {\n        address addr;\n        string IC;\n        string name;\n        string gender;\n        string birthdate;\n        string email;\n        string homeAddress;\n        string phone;\n        uint userSince;\n    }\n\n    struct Doctor {\n        User primaryInfo;\n        string qualification;\n        string major;\n    }\n\n    enum RecordStatus {\n        PENDING,\n        COMPLETED,\n        DECLINED\n    }\n\n    struct Record {\n        string encryptedID;\n        string dataHash;\n        address issuerDoctorAddr;\n        uint timestamp;\n        RecordStatus recordStatus;\n    }\n\n    struct Patient {\n        User primaryInfo;\n        string emergencyContact;\n        string emergencyNumber;\n        string bloodType;\n        string height;\n        string weight;\n        address[] whitelistedDoctor;\n        string[] recordList;\n    }\n\n    uint public totalPatients = 0;\n    uint public totalDoctors = 0;\n    mapping(uint => address) public patients;\n    mapping(uint => address) public doctors;\n    mapping(address => Patient) public patientList;\n    mapping(address => Doctor) public doctorList;\n    mapping(string => Record) public recordList;\n    mapping(address => bool) isPatient;\n    mapping(address => bool) isDoctor;\n\n    event PatientCreated(\n        address patientAddr,\n        string patientName,\n        string patientIC,\n        uint timestamp\n    );\n\n    event DoctorCreated(\n        address doctorAddr,\n        string doctorName,\n        string doctorIC,\n        uint timestamp\n    );\n\n    event WhitelistDoctor(\n        address patientAddr,\n        address doctorAddr,\n        uint timestamp\n    );\n\n    event RecordCreated(\n        string encryptedID,\n        string dataHash,\n        address issuerDoctorAddr,\n        uint timestamp,\n        RecordStatus recordStatus,\n        address patientAddr\n    );\n\n    function createPatient(\n        User memory userInfo,\n        string memory _emergencyContact,\n        string memory _emergencyNumber,\n        string memory _bloodType,\n        string memory _height,\n        string memory _weight,\n        address[] memory _whitelistedDoctor,\n        string[] memory _recordList\n    ) public {\n        address patientAddress = userInfo.addr;\n\n        require(!isPatient[userInfo.addr]);\n        isPatient[patientAddress] = true;\n\n        uint timestamp = userInfo.userSince;\n        patientList[patientAddress].primaryInfo = userInfo;\n        patientList[patientAddress].emergencyContact = _emergencyContact;\n        patientList[patientAddress].emergencyNumber = _emergencyNumber;\n        patientList[patientAddress].bloodType = _bloodType;\n        patientList[patientAddress].height = _height;\n        patientList[patientAddress].weight = _weight;\n\n        // address[] memory whitelistedDoctor;\n        for (uint i = 0; i < _whitelistedDoctor.length; i++) {\n            require(isDoctor[_whitelistedDoctor[i]]);\n        }\n        patientList[patientAddress].whitelistedDoctor = _whitelistedDoctor;\n        patientList[patientAddress].recordList = _recordList;\n\n        totalPatients++;\n\n        patients[totalPatients] = patientAddress;\n\n        emit PatientCreated(\n            userInfo.addr,\n            userInfo.name,\n            userInfo.IC,\n            timestamp\n        );\n    }\n\n    function setPatientDetails(\n        User memory userInfo,\n        string memory _emergencyContact,\n        string memory _emergencyNumber,\n        string memory _bloodType,\n        string memory _height,\n        string memory _weight,\n        address[] memory _whitelistedDoctor,\n        string[] memory _recordList\n    ) public {\n        address patientAddress = userInfo.addr;\n        require(isPatient[patientAddress]);\n        // Update all except address & userSince\n        patientList[patientAddress].primaryInfo.IC = userInfo.IC;\n        patientList[patientAddress].primaryInfo.name = userInfo.name;\n        patientList[patientAddress].primaryInfo.gender = userInfo.gender;\n        patientList[patientAddress].primaryInfo.birthdate = userInfo.birthdate;\n        patientList[patientAddress].primaryInfo.email = userInfo.email;\n        patientList[patientAddress].primaryInfo.homeAddress = userInfo\n            .homeAddress;\n        patientList[patientAddress].primaryInfo.phone = userInfo.phone;\n\n        patientList[patientAddress].emergencyContact = _emergencyContact;\n        patientList[patientAddress].emergencyNumber = _emergencyNumber;\n        patientList[patientAddress].bloodType = _bloodType;\n        patientList[patientAddress].height = _height;\n        patientList[patientAddress].weight = _weight;\n\n        // address[] memory whitelistedDoctor;\n        for (uint i = 0; i < _whitelistedDoctor.length; i++) {\n            require(isDoctor[_whitelistedDoctor[i]]);\n        }\n        patientList[patientAddress].whitelistedDoctor = _whitelistedDoctor;\n        patientList[patientAddress].recordList = _recordList;\n    }\n\n    function addWhitelistedDoctor(\n        address doctorAddress,\n        address patientAddress\n    ) public {\n        require(isDoctor[doctorAddress]);\n        require(isPatient[patientAddress]);\n        // for (\n        //     uint i = 0;\n        //     i < patientList[patientAddress].whitelistedDoctor.length;\n        //     i++\n        // ) {\n        //     if (\n        //         keccak256(\n        //             abi.encodePacked(\n        //                 patientList[patientAddress].whitelistedDoctor[i]\n        //             )\n        //         ) == keccak256(abi.encodePacked(doctorAddress))\n        //     ) {\n        //         break;\n        //     }\n        // }\n        patientList[patientAddress].whitelistedDoctor.push(doctorAddress);\n\n        emit WhitelistDoctor(doctorAddress, patientAddress, block.timestamp);\n    }\n\n    function removeWhitelistedDoctor(\n        address doctorAddress,\n        address patientAddress\n    ) public {\n        require(isDoctor[doctorAddress]);\n        require(isPatient[patientAddress]);\n\n        for (\n            uint i = 0;\n            i < patientList[patientAddress].whitelistedDoctor.length;\n            i++\n        ) {\n            if (\n                keccak256(\n                    abi.encodePacked(\n                        patientList[patientAddress].whitelistedDoctor[i]\n                    )\n                ) == keccak256(abi.encodePacked(doctorAddress))\n            ) {\n                patientList[patientAddress].whitelistedDoctor[i] = patientList[\n                    patientAddress\n                ].whitelistedDoctor[\n                        patientList[patientAddress].whitelistedDoctor.length - 1\n                    ];\n                patientList[patientAddress].whitelistedDoctor.pop();\n                break;\n            }\n        }\n    }\n\n    function getPatientDetails(\n        address patientAddress\n    ) public view returns (Patient memory) {\n        return patientList[patientAddress];\n    }\n\n    function createDoctor(\n        User memory userInfo,\n        string memory _qualification,\n        string memory _major\n    ) public {\n        address doctorAddress = userInfo.addr;\n        require(!isDoctor[doctorAddress]);\n\n        isDoctor[doctorAddress] = true;\n        uint timestamp = userInfo.userSince;\n\n        doctorList[doctorAddress].primaryInfo = userInfo;\n        doctorList[doctorAddress].qualification = _qualification;\n        doctorList[doctorAddress].major = _major;\n\n        totalDoctors++;\n\n        doctors[totalDoctors] = doctorAddress;\n\n        emit DoctorCreated(\n            userInfo.addr,\n            userInfo.name,\n            userInfo.IC,\n            timestamp\n        );\n    }\n\n    function setDoctorDetails(\n        User memory userInfo,\n        string memory _qualification,\n        string memory _major\n    ) public {\n        address doctorAddress = userInfo.addr;\n        require(isDoctor[doctorAddress]);\n\n        // Update all except address & userSince\n        doctorList[doctorAddress].primaryInfo.IC = userInfo.IC;\n        doctorList[doctorAddress].primaryInfo.name = userInfo.name;\n        doctorList[doctorAddress].primaryInfo.gender = userInfo.gender;\n        doctorList[doctorAddress].primaryInfo.birthdate = userInfo.birthdate;\n        doctorList[doctorAddress].primaryInfo.email = userInfo.email;\n        doctorList[doctorAddress].primaryInfo.homeAddress = userInfo\n            .homeAddress;\n        doctorList[doctorAddress].primaryInfo.phone = userInfo.phone;\n        doctorList[doctorAddress].qualification = _qualification;\n        doctorList[doctorAddress].major = _major;\n    }\n\n    function getDoctorDetails(\n        address doctorAddress\n    ) public view returns (Doctor memory) {\n        return doctorList[doctorAddress];\n    }\n\n    function createRecord(\n        string memory _encryptedID,\n        string memory _dataHash,\n        address _issuerDoctorAddr,\n        address _patientAddr\n    ) public {\n        require(isDoctor[_issuerDoctorAddr]);\n        require(isPatient[_patientAddr]);\n\n        uint timestamp = block.timestamp;\n        RecordStatus recordStatus = RecordStatus.PENDING;\n\n        recordList[_encryptedID].encryptedID = _encryptedID;\n        recordList[_encryptedID].dataHash = _dataHash;\n        recordList[_encryptedID].issuerDoctorAddr = _issuerDoctorAddr;\n        recordList[_encryptedID].timestamp = timestamp;\n        recordList[_encryptedID].recordStatus = recordStatus;\n\n        patientList[_patientAddr].recordList.push(_encryptedID);\n\n        emit RecordCreated(\n            _encryptedID,\n            _dataHash,\n            _issuerDoctorAddr,\n            timestamp,\n            recordStatus,\n            _patientAddr\n        );\n    }\n\n    function getRecordDetails(\n        string memory _encryptedID\n    ) public view returns (Record memory) {\n        return recordList[_encryptedID];\n    }\n\n    function editRecord(\n        string memory _encryptedID,\n        string memory _dataHash,\n        RecordStatus _recordStatus\n    ) public {\n        uint timestamp = block.timestamp;\n        recordList[_encryptedID].encryptedID = _encryptedID;\n        recordList[_encryptedID].dataHash = _dataHash;\n        recordList[_encryptedID].timestamp = timestamp;\n        recordList[_encryptedID].recordStatus = _recordStatus;\n    }\n\n    function removeRecord(\n        string memory _encryptedID,\n        address _patientAddress\n    ) public {\n        require(isPatient[_patientAddress]);\n        delete recordList[_encryptedID];\n\n        for (\n            uint i = 0;\n            i < patientList[_patientAddress].recordList.length;\n            i++\n        ) {\n            if (\n                keccak256(\n                    abi.encodePacked(patientList[_patientAddress].recordList[i])\n                ) == keccak256(abi.encodePacked(_encryptedID))\n            ) {\n                patientList[_patientAddress].recordList[i] = patientList[\n                    _patientAddress\n                ].recordList[\n                        patientList[_patientAddress].recordList.length - 1\n                    ];\n                patientList[_patientAddress].recordList.pop();\n                break;\n            }\n        }\n    }\n}\n",
  "sourcePath": "/Users/vanessachristy/Documents/School Y4S1/FYP/mymedtrust/contracts/MainContract.sol",
  "compiler": {
    "name": "solc",
    "version": "0.8.2+commit.661d1103.Emscripten.clang"
  },
  "schemaVersion": "3.4.15",
  "updatedAt": "2023-10-12T06:49:20.669Z",
  "networkType": "ethereum",
  "devdoc": {
    "kind": "dev",
    "methods": {},
    "version": 1
  },
  "userdoc": {
    "kind": "user",
    "methods": {},
    "version": 1
  }
}