{
  "contractName": "MainContract",
  "abi": [
    {
      "anonymous": false,
      "inputs": [
        {
          "indexed": false,
          "internalType": "address",
          "name": "doctorAddr",
          "type": "address"
        },
        {
          "indexed": false,
          "internalType": "string",
          "name": "doctorName",
          "type": "string"
        },
        {
          "indexed": false,
          "internalType": "string",
          "name": "doctorIC",
          "type": "string"
        },
        {
          "indexed": false,
          "internalType": "uint256",
          "name": "timestamp",
          "type": "uint256"
        }
      ],
      "name": "DoctorCreated",
      "type": "event"
    },
    {
      "anonymous": false,
      "inputs": [
        {
          "indexed": false,
          "internalType": "address",
          "name": "patientAddr",
          "type": "address"
        },
        {
          "indexed": false,
          "internalType": "string",
          "name": "patientName",
          "type": "string"
        },
        {
          "indexed": false,
          "internalType": "string",
          "name": "patientIC",
          "type": "string"
        },
        {
          "indexed": false,
          "internalType": "uint256",
          "name": "timestamp",
          "type": "uint256"
        }
      ],
      "name": "PatientCreated",
      "type": "event"
    },
    {
      "anonymous": false,
      "inputs": [
        {
          "indexed": false,
          "internalType": "string",
          "name": "encryptedID",
          "type": "string"
        },
        {
          "indexed": false,
          "internalType": "string",
          "name": "dataHash",
          "type": "string"
        },
        {
          "indexed": false,
          "internalType": "address",
          "name": "issuerDoctorAddr",
          "type": "address"
        },
        {
          "indexed": false,
          "internalType": "uint256",
          "name": "timestamp",
          "type": "uint256"
        },
        {
          "indexed": false,
          "internalType": "enum MainContract.RecordStatus",
          "name": "recordStatus",
          "type": "uint8"
        },
        {
          "indexed": false,
          "internalType": "address",
          "name": "patientAddr",
          "type": "address"
        }
      ],
      "name": "RecordCreated",
      "type": "event"
    },
    {
      "anonymous": false,
      "inputs": [
        {
          "indexed": false,
          "internalType": "address",
          "name": "patientAddr",
          "type": "address"
        },
        {
          "indexed": false,
          "internalType": "address",
          "name": "doctorAddr",
          "type": "address"
        },
        {
          "indexed": false,
          "internalType": "uint256",
          "name": "timestamp",
          "type": "uint256"
        }
      ],
      "name": "WhitelistDoctor",
      "type": "event"
    },
    {
      "inputs": [
        {
          "internalType": "address",
          "name": "",
          "type": "address"
        }
      ],
      "name": "doctorList",
      "outputs": [
        {
          "components": [
            {
              "internalType": "address",
              "name": "addr",
              "type": "address"
            },
            {
              "internalType": "string",
              "name": "IC",
              "type": "string"
            },
            {
              "internalType": "string",
              "name": "name",
              "type": "string"
            },
            {
              "internalType": "string",
              "name": "gender",
              "type": "string"
            },
            {
              "internalType": "string",
              "name": "birthdate",
              "type": "string"
            },
            {
              "internalType": "string",
              "name": "email",
              "type": "string"
            },
            {
              "internalType": "string",
              "name": "homeAddress",
              "type": "string"
            },
            {
              "internalType": "string",
              "name": "phone",
              "type": "string"
            },
            {
              "internalType": "uint256",
              "name": "userSince",
              "type": "uint256"
            }
          ],
          "internalType": "struct MainContract.User",
          "name": "primaryInfo",
          "type": "tuple"
        },
        {
          "internalType": "string",
          "name": "qualification",
          "type": "string"
        },
        {
          "internalType": "string",
          "name": "major",
          "type": "string"
        }
      ],
      "stateMutability": "view",
      "type": "function",
      "constant": true
    },
    {
      "inputs": [
        {
          "internalType": "uint256",
          "name": "",
          "type": "uint256"
        }
      ],
      "name": "doctors",
      "outputs": [
        {
          "internalType": "address",
          "name": "",
          "type": "address"
        }
      ],
      "stateMutability": "view",
      "type": "function",
      "constant": true
    },
    {
      "inputs": [
        {
          "internalType": "address",
          "name": "",
          "type": "address"
        }
      ],
      "name": "patientList",
      "outputs": [
        {
          "components": [
            {
              "internalType": "address",
              "name": "addr",
              "type": "address"
            },
            {
              "internalType": "string",
              "name": "IC",
              "type": "string"
            },
            {
              "internalType": "string",
              "name": "name",
              "type": "string"
            },
            {
              "internalType": "string",
              "name": "gender",
              "type": "string"
            },
            {
              "internalType": "string",
              "name": "birthdate",
              "type": "string"
            },
            {
              "internalType": "string",
              "name": "email",
              "type": "string"
            },
            {
              "internalType": "string",
              "name": "homeAddress",
              "type": "string"
            },
            {
              "internalType": "string",
              "name": "phone",
              "type": "string"
            },
            {
              "internalType": "uint256",
              "name": "userSince",
              "type": "uint256"
            }
          ],
          "internalType": "struct MainContract.User",
          "name": "primaryInfo",
          "type": "tuple"
        },
        {
          "internalType": "string",
          "name": "emergencyContact",
          "type": "string"
        },
        {
          "internalType": "string",
          "name": "emergencyNumber",
          "type": "string"
        },
        {
          "internalType": "string",
          "name": "bloodType",
          "type": "string"
        },
        {
          "internalType": "string",
          "name": "height",
          "type": "string"
        },
        {
          "internalType": "string",
          "name": "weight",
          "type": "string"
        }
      ],
      "stateMutability": "view",
      "type": "function",
      "constant": true
    },
    {
      "inputs": [
        {
          "internalType": "uint256",
          "name": "",
          "type": "uint256"
        }
      ],
      "name": "patients",
      "outputs": [
        {
          "internalType": "address",
          "name": "",
          "type": "address"
        }
      ],
      "stateMutability": "view",
      "type": "function",
      "constant": true
    },
    {
      "inputs": [
        {
          "internalType": "string",
          "name": "",
          "type": "string"
        }
      ],
      "name": "recordList",
      "outputs": [
        {
          "internalType": "string",
          "name": "encryptedID",
          "type": "string"
        },
        {
          "internalType": "string",
          "name": "dataHash",
          "type": "string"
        },
        {
          "internalType": "address",
          "name": "issuerDoctorAddr",
          "type": "address"
        },
        {
          "internalType": "address",
          "name": "patientAddr",
          "type": "address"
        },
        {
          "internalType": "uint256",
          "name": "timestamp",
          "type": "uint256"
        },
        {
          "internalType": "enum MainContract.RecordStatus",
          "name": "recordStatus",
          "type": "uint8"
        }
      ],
      "stateMutability": "view",
      "type": "function",
      "constant": true
    },
    {
      "inputs": [],
      "name": "totalDoctors",
      "outputs": [
        {
          "internalType": "uint256",
          "name": "",
          "type": "uint256"
        }
      ],
      "stateMutability": "view",
      "type": "function",
      "constant": true
    },
    {
      "inputs": [],
      "name": "totalPatients",
      "outputs": [
        {
          "internalType": "uint256",
          "name": "",
          "type": "uint256"
        }
      ],
      "stateMutability": "view",
      "type": "function",
      "constant": true
    },
    {
      "inputs": [
        {
          "components": [
            {
              "internalType": "address",
              "name": "addr",
              "type": "address"
            },
            {
              "internalType": "string",
              "name": "IC",
              "type": "string"
            },
            {
              "internalType": "string",
              "name": "name",
              "type": "string"
            },
            {
              "internalType": "string",
              "name": "gender",
              "type": "string"
            },
            {
              "internalType": "string",
              "name": "birthdate",
              "type": "string"
            },
            {
              "internalType": "string",
              "name": "email",
              "type": "string"
            },
            {
              "internalType": "string",
              "name": "homeAddress",
              "type": "string"
            },
            {
              "internalType": "string",
              "name": "phone",
              "type": "string"
            },
            {
              "internalType": "uint256",
              "name": "userSince",
              "type": "uint256"
            }
          ],
          "internalType": "struct MainContract.User",
          "name": "userInfo",
          "type": "tuple"
        },
        {
          "internalType": "string",
          "name": "_emergencyContact",
          "type": "string"
        },
        {
          "internalType": "string",
          "name": "_emergencyNumber",
          "type": "string"
        },
        {
          "internalType": "string",
          "name": "_bloodType",
          "type": "string"
        },
        {
          "internalType": "string",
          "name": "_height",
          "type": "string"
        },
        {
          "internalType": "string",
          "name": "_weight",
          "type": "string"
        },
        {
          "internalType": "address[]",
          "name": "_whitelistedDoctor",
          "type": "address[]"
        },
        {
          "internalType": "string[]",
          "name": "_recordList",
          "type": "string[]"
        }
      ],
      "name": "createPatient",
      "outputs": [],
      "stateMutability": "nonpayable",
      "type": "function"
    },
    {
      "inputs": [
        {
          "components": [
            {
              "internalType": "address",
              "name": "addr",
              "type": "address"
            },
            {
              "internalType": "string",
              "name": "IC",
              "type": "string"
            },
            {
              "internalType": "string",
              "name": "name",
              "type": "string"
            },
            {
              "internalType": "string",
              "name": "gender",
              "type": "string"
            },
            {
              "internalType": "string",
              "name": "birthdate",
              "type": "string"
            },
            {
              "internalType": "string",
              "name": "email",
              "type": "string"
            },
            {
              "internalType": "string",
              "name": "homeAddress",
              "type": "string"
            },
            {
              "internalType": "string",
              "name": "phone",
              "type": "string"
            },
            {
              "internalType": "uint256",
              "name": "userSince",
              "type": "uint256"
            }
          ],
          "internalType": "struct MainContract.User",
          "name": "userInfo",
          "type": "tuple"
        },
        {
          "internalType": "string",
          "name": "_emergencyContact",
          "type": "string"
        },
        {
          "internalType": "string",
          "name": "_emergencyNumber",
          "type": "string"
        },
        {
          "internalType": "string",
          "name": "_bloodType",
          "type": "string"
        },
        {
          "internalType": "string",
          "name": "_height",
          "type": "string"
        },
        {
          "internalType": "string",
          "name": "_weight",
          "type": "string"
        },
        {
          "internalType": "address[]",
          "name": "_whitelistedDoctor",
          "type": "address[]"
        },
        {
          "internalType": "string[]",
          "name": "_recordList",
          "type": "string[]"
        }
      ],
      "name": "setPatientDetails",
      "outputs": [],
      "stateMutability": "nonpayable",
      "type": "function"
    },
    {
      "inputs": [
        {
          "internalType": "address",
          "name": "doctorAddress",
          "type": "address"
        },
        {
          "internalType": "address",
          "name": "patientAddress",
          "type": "address"
        }
      ],
      "name": "addWhitelistedDoctor",
      "outputs": [],
      "stateMutability": "nonpayable",
      "type": "function"
    },
    {
      "inputs": [
        {
          "internalType": "address",
          "name": "doctorAddress",
          "type": "address"
        },
        {
          "internalType": "address",
          "name": "patientAddress",
          "type": "address"
        }
      ],
      "name": "removeWhitelistedDoctor",
      "outputs": [],
      "stateMutability": "nonpayable",
      "type": "function"
    },
    {
      "inputs": [
        {
          "internalType": "address",
          "name": "patientAddress",
          "type": "address"
        }
      ],
      "name": "getPatientDetails",
      "outputs": [
        {
          "components": [
            {
              "components": [
                {
                  "internalType": "address",
                  "name": "addr",
                  "type": "address"
                },
                {
                  "internalType": "string",
                  "name": "IC",
                  "type": "string"
                },
                {
                  "internalType": "string",
                  "name": "name",
                  "type": "string"
                },
                {
                  "internalType": "string",
                  "name": "gender",
                  "type": "string"
                },
                {
                  "internalType": "string",
                  "name": "birthdate",
                  "type": "string"
                },
                {
                  "internalType": "string",
                  "name": "email",
                  "type": "string"
                },
                {
                  "internalType": "string",
                  "name": "homeAddress",
                  "type": "string"
                },
                {
                  "internalType": "string",
                  "name": "phone",
                  "type": "string"
                },
                {
                  "internalType": "uint256",
                  "name": "userSince",
                  "type": "uint256"
                }
              ],
              "internalType": "struct MainContract.User",
              "name": "primaryInfo",
              "type": "tuple"
            },
            {
              "internalType": "string",
              "name": "emergencyContact",
              "type": "string"
            },
            {
              "internalType": "string",
              "name": "emergencyNumber",
              "type": "string"
            },
            {
              "internalType": "string",
              "name": "bloodType",
              "type": "string"
            },
            {
              "internalType": "string",
              "name": "height",
              "type": "string"
            },
            {
              "internalType": "string",
              "name": "weight",
              "type": "string"
            },
            {
              "internalType": "address[]",
              "name": "whitelistedDoctor",
              "type": "address[]"
            },
            {
              "internalType": "string[]",
              "name": "recordList",
              "type": "string[]"
            }
          ],
          "internalType": "struct MainContract.Patient",
          "name": "",
          "type": "tuple"
        }
      ],
      "stateMutability": "view",
      "type": "function",
      "constant": true
    },
    {
      "inputs": [
        {
          "components": [
            {
              "internalType": "address",
              "name": "addr",
              "type": "address"
            },
            {
              "internalType": "string",
              "name": "IC",
              "type": "string"
            },
            {
              "internalType": "string",
              "name": "name",
              "type": "string"
            },
            {
              "internalType": "string",
              "name": "gender",
              "type": "string"
            },
            {
              "internalType": "string",
              "name": "birthdate",
              "type": "string"
            },
            {
              "internalType": "string",
              "name": "email",
              "type": "string"
            },
            {
              "internalType": "string",
              "name": "homeAddress",
              "type": "string"
            },
            {
              "internalType": "string",
              "name": "phone",
              "type": "string"
            },
            {
              "internalType": "uint256",
              "name": "userSince",
              "type": "uint256"
            }
          ],
          "internalType": "struct MainContract.User",
          "name": "userInfo",
          "type": "tuple"
        },
        {
          "internalType": "string",
          "name": "_qualification",
          "type": "string"
        },
        {
          "internalType": "string",
          "name": "_major",
          "type": "string"
        }
      ],
      "name": "createDoctor",
      "outputs": [],
      "stateMutability": "nonpayable",
      "type": "function"
    },
    {
      "inputs": [
        {
          "components": [
            {
              "internalType": "address",
              "name": "addr",
              "type": "address"
            },
            {
              "internalType": "string",
              "name": "IC",
              "type": "string"
            },
            {
              "internalType": "string",
              "name": "name",
              "type": "string"
            },
            {
              "internalType": "string",
              "name": "gender",
              "type": "string"
            },
            {
              "internalType": "string",
              "name": "birthdate",
              "type": "string"
            },
            {
              "internalType": "string",
              "name": "email",
              "type": "string"
            },
            {
              "internalType": "string",
              "name": "homeAddress",
              "type": "string"
            },
            {
              "internalType": "string",
              "name": "phone",
              "type": "string"
            },
            {
              "internalType": "uint256",
              "name": "userSince",
              "type": "uint256"
            }
          ],
          "internalType": "struct MainContract.User",
          "name": "userInfo",
          "type": "tuple"
        },
        {
          "internalType": "string",
          "name": "_qualification",
          "type": "string"
        },
        {
          "internalType": "string",
          "name": "_major",
          "type": "string"
        }
      ],
      "name": "setDoctorDetails",
      "outputs": [],
      "stateMutability": "nonpayable",
      "type": "function"
    },
    {
      "inputs": [
        {
          "internalType": "address",
          "name": "doctorAddress",
          "type": "address"
        }
      ],
      "name": "getDoctorDetails",
      "outputs": [
        {
          "components": [
            {
              "components": [
                {
                  "internalType": "address",
                  "name": "addr",
                  "type": "address"
                },
                {
                  "internalType": "string",
                  "name": "IC",
                  "type": "string"
                },
                {
                  "internalType": "string",
                  "name": "name",
                  "type": "string"
                },
                {
                  "internalType": "string",
                  "name": "gender",
                  "type": "string"
                },
                {
                  "internalType": "string",
                  "name": "birthdate",
                  "type": "string"
                },
                {
                  "internalType": "string",
                  "name": "email",
                  "type": "string"
                },
                {
                  "internalType": "string",
                  "name": "homeAddress",
                  "type": "string"
                },
                {
                  "internalType": "string",
                  "name": "phone",
                  "type": "string"
                },
                {
                  "internalType": "uint256",
                  "name": "userSince",
                  "type": "uint256"
                }
              ],
              "internalType": "struct MainContract.User",
              "name": "primaryInfo",
              "type": "tuple"
            },
            {
              "internalType": "string",
              "name": "qualification",
              "type": "string"
            },
            {
              "internalType": "string",
              "name": "major",
              "type": "string"
            }
          ],
          "internalType": "struct MainContract.Doctor",
          "name": "",
          "type": "tuple"
        }
      ],
      "stateMutability": "view",
      "type": "function",
      "constant": true
    },
    {
      "inputs": [
        {
          "internalType": "string",
          "name": "_encryptedID",
          "type": "string"
        },
        {
          "internalType": "string",
          "name": "_dataHash",
          "type": "string"
        },
        {
          "internalType": "address",
          "name": "_issuerDoctorAddr",
          "type": "address"
        },
        {
          "internalType": "address",
          "name": "_patientAddr",
          "type": "address"
        }
      ],
      "name": "createRecord",
      "outputs": [],
      "stateMutability": "nonpayable",
      "type": "function"
    },
    {
      "inputs": [
        {
          "internalType": "string",
          "name": "_encryptedID",
          "type": "string"
        }
      ],
      "name": "getRecordDetails",
      "outputs": [
        {
          "components": [
            {
              "internalType": "string",
              "name": "encryptedID",
              "type": "string"
            },
            {
              "internalType": "string",
              "name": "dataHash",
              "type": "string"
            },
            {
              "internalType": "address",
              "name": "issuerDoctorAddr",
              "type": "address"
            },
            {
              "internalType": "address",
              "name": "patientAddr",
              "type": "address"
            },
            {
              "internalType": "uint256",
              "name": "timestamp",
              "type": "uint256"
            },
            {
              "internalType": "enum MainContract.RecordStatus",
              "name": "recordStatus",
              "type": "uint8"
            }
          ],
          "internalType": "struct MainContract.Record",
          "name": "",
          "type": "tuple"
        }
      ],
      "stateMutability": "view",
      "type": "function",
      "constant": true
    },
    {
      "inputs": [
        {
          "internalType": "string",
          "name": "_encryptedID",
          "type": "string"
        },
        {
          "internalType": "string",
          "name": "_dataHash",
          "type": "string"
        },
        {
          "internalType": "enum MainContract.RecordStatus",
          "name": "_recordStatus",
          "type": "uint8"
        }
      ],
      "name": "editRecord",
      "outputs": [],
      "stateMutability": "nonpayable",
      "type": "function"
    },
    {
      "inputs": [
        {
          "internalType": "string",
          "name": "_encryptedID",
          "type": "string"
        },
        {
          "internalType": "address",
          "name": "_patientAddress",
          "type": "address"
        }
      ],
      "name": "removeRecord",
      "outputs": [],
      "stateMutability": "nonpayable",
      "type": "function"
    }
  ],
  "bytecode": "0x608060405260008055600060015534801561001957600080fd5b50615fb8806200002a6000396000f3fe608060405234801561001057600080fd5b50600436106101215760003560e01c806393119a83116100ad578063da2e626f11610071578063da2e626f14610319578063deb5ef091461034e578063e6224df41461036c578063efe2ccc11461039e578063f40339a4146103ce57610121565b806393119a83146102655780639eaf795814610295578063b6b8ba36146102b1578063b715962c146102cd578063bab90dbd146102e957610121565b80634fce2b68116100f45780634fce2b68146101c357806365b44d7e146101df5780636efb1b84146101fd578063879272151461022d5780638e55966d1461024957610121565b80631a9e48f5146101265780631bc7a79a1461015657806322d0741b14610172578063448259e81461018e575b600080fd5b610140600480360381019061013b9190614e06565b6103ea565b60405161014d9190615a2e565b60405180910390f35b610170600480360381019061016b9190614fad565b610683565b005b61018c60048036038101906101879190614e9b565b610a28565b005b6101a860048036038101906101a39190614e06565b610d61565b6040516101ba9695949392919061590c565b60405180910390f35b6101dd60048036038101906101d89190614dca565b610f10565b005b6101e761109e565b6040516101f49190615b27565b60405180910390f35b610217600480360381019061021291906151b6565b6110a4565b6040516102249190615867565b60405180910390f35b61024760048036038101906102429190615044565b6110d7565b005b610263600480360381019061025e9190614e47565b6116d6565b005b61027f600480360381019061027a91906151b6565b611b22565b60405161028c9190615867565b60405180910390f35b6102af60048036038101906102aa9190614f2e565b611b55565b005b6102cb60048036038101906102c69190615044565b611c61565b005b6102e760048036038101906102e29190614fad565b612274565b005b61030360048036038101906102fe9190614da1565b612603565b60405161031091906159ea565b60405180910390f35b610333600480360381019061032e9190614da1565b612bf3565b60405161034596959493929190615a9c565b60405180910390f35b610356613340565b6040516103639190615b27565b60405180910390f35b61038660048036038101906103819190614da1565b613346565b60405161039593929190615a50565b60405180910390f35b6103b860048036038101906103b39190614da1565b6138e9565b6040516103c59190615a0c565b60405180910390f35b6103e860048036038101906103e39190614dca565b6141f7565b005b6103f261466d565b6006826040516104029190615839565b90815260200160405180910390206040518060c001604052908160008201805461042b90615d86565b80601f016020809104026020016040519081016040528092919081815260200182805461045790615d86565b80156104a45780601f10610479576101008083540402835291602001916104a4565b820191906000526020600020905b81548152906001019060200180831161048757829003601f168201915b505050505081526020016001820180546104bd90615d86565b80601f01602080910402602001604051908101604052809291908181526020018280546104e990615d86565b80156105365780601f1061050b57610100808354040283529160200191610536565b820191906000526020600020905b81548152906001019060200180831161051957829003601f168201915b505050505081526020016002820160009054906101000a900473ffffffffffffffffffffffffffffffffffffffff1673ffffffffffffffffffffffffffffffffffffffff1673ffffffffffffffffffffffffffffffffffffffff1681526020016003820160009054906101000a900473ffffffffffffffffffffffffffffffffffffffff1673ffffffffffffffffffffffffffffffffffffffff1673ffffffffffffffffffffffffffffffffffffffff168152602001600482015481526020016005820160009054906101000a900460ff166002811115610640577f4e487b7100000000000000000000000000000000000000000000000000000000600052602160045260246000fd5b6002811115610678577f4e487b7100000000000000000000000000000000000000000000000000000000600052602160045260246000fd5b815250509050919050565b600083600001519050600860008273ffffffffffffffffffffffffffffffffffffffff1673ffffffffffffffffffffffffffffffffffffffff16815260200190815260200160002060009054906101000a900460ff166106e257600080fd5b8360200151600560008373ffffffffffffffffffffffffffffffffffffffff1673ffffffffffffffffffffffffffffffffffffffff168152602001908152602001600020600001600101908051906020019061073f929190614707565b508360400151600560008373ffffffffffffffffffffffffffffffffffffffff1673ffffffffffffffffffffffffffffffffffffffff168152602001908152602001600020600001600201908051906020019061079d929190614707565b508360600151600560008373ffffffffffffffffffffffffffffffffffffffff1673ffffffffffffffffffffffffffffffffffffffff16815260200190815260200160002060000160030190805190602001906107fb929190614707565b508360800151600560008373ffffffffffffffffffffffffffffffffffffffff1673ffffffffffffffffffffffffffffffffffffffff1681526020019081526020016000206000016004019080519060200190610859929190614707565b508360a00151600560008373ffffffffffffffffffffffffffffffffffffffff1673ffffffffffffffffffffffffffffffffffffffff16815260200190815260200160002060000160050190805190602001906108b7929190614707565b508360c00151600560008373ffffffffffffffffffffffffffffffffffffffff1673ffffffffffffffffffffffffffffffffffffffff1681526020019081526020016000206000016006019080519060200190610915929190614707565b508360e00151600560008373ffffffffffffffffffffffffffffffffffffffff1673ffffffffffffffffffffffffffffffffffffffff1681526020019081526020016000206000016007019080519060200190610973929190614707565b5082600560008373ffffffffffffffffffffffffffffffffffffffff1673ffffffffffffffffffffffffffffffffffffffff16815260200190815260200160002060090190805190602001906109ca929190614707565b5081600560008373ffffffffffffffffffffffffffffffffffffffff1673ffffffffffffffffffffffffffffffffffffffff168152602001908152602001600020600a019080519060200190610a21929190614707565b5050505050565b600860008373ffffffffffffffffffffffffffffffffffffffff1673ffffffffffffffffffffffffffffffffffffffff16815260200190815260200160002060009054906101000a900460ff16610a7e57600080fd5b600760008273ffffffffffffffffffffffffffffffffffffffff1673ffffffffffffffffffffffffffffffffffffffff16815260200190815260200160002060009054906101000a900460ff16610ad457600080fd5b6000429050600085600687604051610aec9190615839565b90815260200160405180910390206000019080519060200190610b10929190614707565b5084600687604051610b229190615839565b90815260200160405180910390206001019080519060200190610b46929190614707565b5083600687604051610b589190615839565b908152602001604051809103902060020160006101000a81548173ffffffffffffffffffffffffffffffffffffffff021916908373ffffffffffffffffffffffffffffffffffffffff16021790555082600687604051610bb89190615839565b908152602001604051809103902060030160006101000a81548173ffffffffffffffffffffffffffffffffffffffff021916908373ffffffffffffffffffffffffffffffffffffffff16021790555081600687604051610c189190615839565b90815260200160405180910390206004018190555080600687604051610c3e9190615839565b908152602001604051809103902060050160006101000a81548160ff02191690836002811115610c97577f4e487b7100000000000000000000000000000000000000000000000000000000600052602160045260246000fd5b0217905550600460008473ffffffffffffffffffffffffffffffffffffffff1673ffffffffffffffffffffffffffffffffffffffff168152602001908152602001600020600f0186908060018154018082558091505060019003906000526020600020016000909190919091509080519060200190610d17929190614707565b507fa8f9b0e7d42327661d46e236a278fc31bd69ab6e6da45464ed9722bbb8503f09868686858588604051610d519695949392919061597b565b60405180910390a1505050505050565b600681805160208101820180518482526020830160208501208183528095505050505050600091509050806000018054610d9a90615d86565b80601f0160208091040260200160405190810160405280929190818152602001828054610dc690615d86565b8015610e135780601f10610de857610100808354040283529160200191610e13565b820191906000526020600020905b815481529060010190602001808311610df657829003601f168201915b505050505090806001018054610e2890615d86565b80601f0160208091040260200160405190810160405280929190818152602001828054610e5490615d86565b8015610ea15780601f10610e7657610100808354040283529160200191610ea1565b820191906000526020600020905b815481529060010190602001808311610e8457829003601f168201915b5050505050908060020160009054906101000a900473ffffffffffffffffffffffffffffffffffffffff16908060030160009054906101000a900473ffffffffffffffffffffffffffffffffffffffff16908060040154908060050160009054906101000a900460ff16905086565b600860008373ffffffffffffffffffffffffffffffffffffffff1673ffffffffffffffffffffffffffffffffffffffff16815260200190815260200160002060009054906101000a900460ff16610f6657600080fd5b600760008273ffffffffffffffffffffffffffffffffffffffff1673ffffffffffffffffffffffffffffffffffffffff16815260200190815260200160002060009054906101000a900460ff16610fbc57600080fd5b600460008273ffffffffffffffffffffffffffffffffffffffff1673ffffffffffffffffffffffffffffffffffffffff168152602001908152602001600020600e01829080600181540180825580915050600190039060005260206000200160009091909190916101000a81548173ffffffffffffffffffffffffffffffffffffffff021916908373ffffffffffffffffffffffffffffffffffffffff1602179055507fa58fd95ad438335ebea70c43acd7ba96835900dab734d4444ebcd10b286c8bd182824260405161109293929190615882565b60405180910390a15050565b60015481565b60036020528060005260406000206000915054906101000a900473ffffffffffffffffffffffffffffffffffffffff1681565b600088600001519050600760008a6000015173ffffffffffffffffffffffffffffffffffffffff1673ffffffffffffffffffffffffffffffffffffffff16815260200190815260200160002060009054906101000a900460ff161561113b57600080fd5b6001600760008373ffffffffffffffffffffffffffffffffffffffff1673ffffffffffffffffffffffffffffffffffffffff16815260200190815260200160002060006101000a81548160ff0219169083151502179055506000896101000151905089600460008473ffffffffffffffffffffffffffffffffffffffff1673ffffffffffffffffffffffffffffffffffffffff16815260200190815260200160002060000160008201518160000160006101000a81548173ffffffffffffffffffffffffffffffffffffffff021916908373ffffffffffffffffffffffffffffffffffffffff1602179055506020820151816001019080519060200190611243929190614707565b506040820151816002019080519060200190611260929190614707565b50606082015181600301908051906020019061127d929190614707565b50608082015181600401908051906020019061129a929190614707565b5060a08201518160050190805190602001906112b7929190614707565b5060c08201518160060190805190602001906112d4929190614707565b5060e08201518160070190805190602001906112f1929190614707565b50610100820151816008015590505088600460008473ffffffffffffffffffffffffffffffffffffffff1673ffffffffffffffffffffffffffffffffffffffff1681526020019081526020016000206009019080519060200190611356929190614707565b5087600460008473ffffffffffffffffffffffffffffffffffffffff1673ffffffffffffffffffffffffffffffffffffffff168152602001908152602001600020600a0190805190602001906113ad929190614707565b5086600460008473ffffffffffffffffffffffffffffffffffffffff1673ffffffffffffffffffffffffffffffffffffffff168152602001908152602001600020600b019080519060200190611404929190614707565b5085600460008473ffffffffffffffffffffffffffffffffffffffff1673ffffffffffffffffffffffffffffffffffffffff168152602001908152602001600020600c01908051906020019061145b929190614707565b5084600460008473ffffffffffffffffffffffffffffffffffffffff1673ffffffffffffffffffffffffffffffffffffffff168152602001908152602001600020600d0190805190602001906114b2929190614707565b5060005b845181101561156857600860008683815181106114fc577f4e487b7100000000000000000000000000000000000000000000000000000000600052603260045260246000fd5b602002602001015173ffffffffffffffffffffffffffffffffffffffff1673ffffffffffffffffffffffffffffffffffffffff16815260200190815260200160002060009054906101000a900460ff1661155557600080fd5b808061156090615de9565b9150506114b6565b5083600460008473ffffffffffffffffffffffffffffffffffffffff1673ffffffffffffffffffffffffffffffffffffffff168152602001908152602001600020600e0190805190602001906115bf92919061478d565b5082600460008473ffffffffffffffffffffffffffffffffffffffff1673ffffffffffffffffffffffffffffffffffffffff168152602001908152602001600020600f019080519060200190611616929190614817565b5060008081548092919061162990615de9565b919050555081600260008054815260200190815260200160002060006101000a81548173ffffffffffffffffffffffffffffffffffffffff021916908373ffffffffffffffffffffffffffffffffffffffff1602179055507f88a4b268a245c7e81b8962a18a5abe198a80bfa3d1ea8dd32a9e468ed97f265b8a600001518b604001518c60200151846040516116c294939291906158b9565b60405180910390a150505050505050505050565b600760008273ffffffffffffffffffffffffffffffffffffffff1673ffffffffffffffffffffffffffffffffffffffff16815260200190815260200160002060009054906101000a900460ff1661172c57600080fd5b60068260405161173c9190615839565b90815260200160405180910390206000808201600061175b9190614877565b60018201600061176b9190614877565b6002820160006101000a81549073ffffffffffffffffffffffffffffffffffffffff02191690556003820160006101000a81549073ffffffffffffffffffffffffffffffffffffffff021916905560048201600090556005820160006101000a81549060ff0219169055505060005b600460008373ffffffffffffffffffffffffffffffffffffffff1673ffffffffffffffffffffffffffffffffffffffff168152602001908152602001600020600f0180549050811015611b1d57826040516020016118389190615839565b60405160208183030381529060405280519060200120600460008473ffffffffffffffffffffffffffffffffffffffff1673ffffffffffffffffffffffffffffffffffffffff168152602001908152602001600020600f0182815481106118c8577f4e487b7100000000000000000000000000000000000000000000000000000000600052603260045260246000fd5b906000526020600020016040516020016118e29190615850565b604051602081830303815290604052805190602001201415611b0a57600460008373ffffffffffffffffffffffffffffffffffffffff1673ffffffffffffffffffffffffffffffffffffffff168152602001908152602001600020600f016001600460008573ffffffffffffffffffffffffffffffffffffffff1673ffffffffffffffffffffffffffffffffffffffff168152602001908152602001600020600f01805490506119929190615caf565b815481106119c9577f4e487b7100000000000000000000000000000000000000000000000000000000600052603260045260246000fd5b90600052602060002001600460008473ffffffffffffffffffffffffffffffffffffffff1673ffffffffffffffffffffffffffffffffffffffff168152602001908152602001600020600f018281548110611a4d577f4e487b7100000000000000000000000000000000000000000000000000000000600052603260045260246000fd5b90600052602060002001908054611a6390615d86565b611a6e9291906148b7565b50600460008373ffffffffffffffffffffffffffffffffffffffff1673ffffffffffffffffffffffffffffffffffffffff168152602001908152602001600020600f01805480611ae7577f4e487b7100000000000000000000000000000000000000000000000000000000600052603160045260246000fd5b600190038181906000526020600020016000611b039190614877565b9055611b1d565b8080611b1590615de9565b9150506117da565b505050565b60026020528060005260406000206000915054906101000a900473ffffffffffffffffffffffffffffffffffffffff1681565b600042905083600685604051611b6b9190615839565b90815260200160405180910390206000019080519060200190611b8f929190614707565b5082600685604051611ba19190615839565b90815260200160405180910390206001019080519060200190611bc5929190614707565b5080600685604051611bd79190615839565b90815260200160405180910390206004018190555081600685604051611bfd9190615839565b908152602001604051809103902060050160006101000a81548160ff02191690836002811115611c56577f4e487b7100000000000000000000000000000000000000000000000000000000600052602160045260246000fd5b021790555050505050565b600088600001519050600760008273ffffffffffffffffffffffffffffffffffffffff1673ffffffffffffffffffffffffffffffffffffffff16815260200190815260200160002060009054906101000a900460ff16611cc057600080fd5b8860200151600460008373ffffffffffffffffffffffffffffffffffffffff1673ffffffffffffffffffffffffffffffffffffffff1681526020019081526020016000206000016001019080519060200190611d1d929190614707565b508860400151600460008373ffffffffffffffffffffffffffffffffffffffff1673ffffffffffffffffffffffffffffffffffffffff1681526020019081526020016000206000016002019080519060200190611d7b929190614707565b508860600151600460008373ffffffffffffffffffffffffffffffffffffffff1673ffffffffffffffffffffffffffffffffffffffff1681526020019081526020016000206000016003019080519060200190611dd9929190614707565b508860800151600460008373ffffffffffffffffffffffffffffffffffffffff1673ffffffffffffffffffffffffffffffffffffffff1681526020019081526020016000206000016004019080519060200190611e37929190614707565b508860a00151600460008373ffffffffffffffffffffffffffffffffffffffff1673ffffffffffffffffffffffffffffffffffffffff1681526020019081526020016000206000016005019080519060200190611e95929190614707565b508860c00151600460008373ffffffffffffffffffffffffffffffffffffffff1673ffffffffffffffffffffffffffffffffffffffff1681526020019081526020016000206000016006019080519060200190611ef3929190614707565b508860e00151600460008373ffffffffffffffffffffffffffffffffffffffff1673ffffffffffffffffffffffffffffffffffffffff1681526020019081526020016000206000016007019080519060200190611f51929190614707565b5087600460008373ffffffffffffffffffffffffffffffffffffffff1673ffffffffffffffffffffffffffffffffffffffff1681526020019081526020016000206009019080519060200190611fa8929190614707565b5086600460008373ffffffffffffffffffffffffffffffffffffffff1673ffffffffffffffffffffffffffffffffffffffff168152602001908152602001600020600a019080519060200190611fff929190614707565b5085600460008373ffffffffffffffffffffffffffffffffffffffff1673ffffffffffffffffffffffffffffffffffffffff168152602001908152602001600020600b019080519060200190612056929190614707565b5084600460008373ffffffffffffffffffffffffffffffffffffffff1673ffffffffffffffffffffffffffffffffffffffff168152602001908152602001600020600c0190805190602001906120ad929190614707565b5083600460008373ffffffffffffffffffffffffffffffffffffffff1673ffffffffffffffffffffffffffffffffffffffff168152602001908152602001600020600d019080519060200190612104929190614707565b5060005b83518110156121ba576008600085838151811061214e577f4e487b7100000000000000000000000000000000000000000000000000000000600052603260045260246000fd5b602002602001015173ffffffffffffffffffffffffffffffffffffffff1673ffffffffffffffffffffffffffffffffffffffff16815260200190815260200160002060009054906101000a900460ff166121a757600080fd5b80806121b290615de9565b915050612108565b5082600460008373ffffffffffffffffffffffffffffffffffffffff1673ffffffffffffffffffffffffffffffffffffffff168152602001908152602001600020600e01908051906020019061221192919061478d565b5081600460008373ffffffffffffffffffffffffffffffffffffffff1673ffffffffffffffffffffffffffffffffffffffff168152602001908152602001600020600f019080519060200190612268929190614817565b50505050505050505050565b600083600001519050600860008273ffffffffffffffffffffffffffffffffffffffff1673ffffffffffffffffffffffffffffffffffffffff16815260200190815260200160002060009054906101000a900460ff16156122d457600080fd5b6001600860008373ffffffffffffffffffffffffffffffffffffffff1673ffffffffffffffffffffffffffffffffffffffff16815260200190815260200160002060006101000a81548160ff0219169083151502179055506000846101000151905084600560008473ffffffffffffffffffffffffffffffffffffffff1673ffffffffffffffffffffffffffffffffffffffff16815260200190815260200160002060000160008201518160000160006101000a81548173ffffffffffffffffffffffffffffffffffffffff021916908373ffffffffffffffffffffffffffffffffffffffff16021790555060208201518160010190805190602001906123dc929190614707565b5060408201518160020190805190602001906123f9929190614707565b506060820151816003019080519060200190612416929190614707565b506080820151816004019080519060200190612433929190614707565b5060a0820151816005019080519060200190612450929190614707565b5060c082015181600601908051906020019061246d929190614707565b5060e082015181600701908051906020019061248a929190614707565b50610100820151816008015590505083600560008473ffffffffffffffffffffffffffffffffffffffff1673ffffffffffffffffffffffffffffffffffffffff16815260200190815260200160002060090190805190602001906124ef929190614707565b5082600560008473ffffffffffffffffffffffffffffffffffffffff1673ffffffffffffffffffffffffffffffffffffffff168152602001908152602001600020600a019080519060200190612546929190614707565b506001600081548092919061255a90615de9565b91905055508160036000600154815260200190815260200160002060006101000a81548173ffffffffffffffffffffffffffffffffffffffff021916908373ffffffffffffffffffffffffffffffffffffffff1602179055507f87c5c024b616aed507b1cd9756c0594f4efc94d637550067d61b2293d03a6ea9856000015186604001518760200151846040516125f494939291906158b9565b60405180910390a15050505050565b61260b614944565b600560008373ffffffffffffffffffffffffffffffffffffffff1673ffffffffffffffffffffffffffffffffffffffff16815260200190815260200160002060405180606001604052908160008201604051806101200160405290816000820160009054906101000a900473ffffffffffffffffffffffffffffffffffffffff1673ffffffffffffffffffffffffffffffffffffffff1673ffffffffffffffffffffffffffffffffffffffff1681526020016001820180546126cc90615d86565b80601f01602080910402602001604051908101604052809291908181526020018280546126f890615d86565b80156127455780601f1061271a57610100808354040283529160200191612745565b820191906000526020600020905b81548152906001019060200180831161272857829003601f168201915b5050505050815260200160028201805461275e90615d86565b80601f016020809104026020016040519081016040528092919081815260200182805461278a90615d86565b80156127d75780601f106127ac576101008083540402835291602001916127d7565b820191906000526020600020905b8154815290600101906020018083116127ba57829003601f168201915b505050505081526020016003820180546127f090615d86565b80601f016020809104026020016040519081016040528092919081815260200182805461281c90615d86565b80156128695780601f1061283e57610100808354040283529160200191612869565b820191906000526020600020905b81548152906001019060200180831161284c57829003601f168201915b5050505050815260200160048201805461288290615d86565b80601f01602080910402602001604051908101604052809291908181526020018280546128ae90615d86565b80156128fb5780601f106128d0576101008083540402835291602001916128fb565b820191906000526020600020905b8154815290600101906020018083116128de57829003601f168201915b5050505050815260200160058201805461291490615d86565b80601f016020809104026020016040519081016040528092919081815260200182805461294090615d86565b801561298d5780601f106129625761010080835404028352916020019161298d565b820191906000526020600020905b81548152906001019060200180831161297057829003601f168201915b505050505081526020016006820180546129a690615d86565b80601f01602080910402602001604051908101604052809291908181526020018280546129d290615d86565b8015612a1f5780601f106129f457610100808354040283529160200191612a1f565b820191906000526020600020905b815481529060010190602001808311612a0257829003601f168201915b50505050508152602001600782018054612a3890615d86565b80601f0160208091040260200160405190810160405280929190818152602001828054612a6490615d86565b8015612ab15780601f10612a8657610100808354040283529160200191612ab1565b820191906000526020600020905b815481529060010190602001808311612a9457829003601f168201915b505050505081526020016008820154815250508152602001600982018054612ad890615d86565b80601f0160208091040260200160405190810160405280929190818152602001828054612b0490615d86565b8015612b515780601f10612b2657610100808354040283529160200191612b51565b820191906000526020600020905b815481529060010190602001808311612b3457829003601f168201915b50505050508152602001600a82018054612b6a90615d86565b80601f0160208091040260200160405190810160405280929190818152602001828054612b9690615d86565b8015612be35780601f10612bb857610100808354040283529160200191612be3565b820191906000526020600020905b815481529060010190602001808311612bc657829003601f168201915b5050505050815250509050919050565b600460205280600052604060002060009150905080600001604051806101200160405290816000820160009054906101000a900473ffffffffffffffffffffffffffffffffffffffff1673ffffffffffffffffffffffffffffffffffffffff1673ffffffffffffffffffffffffffffffffffffffff168152602001600182018054612c7d90615d86565b80601f0160208091040260200160405190810160405280929190818152602001828054612ca990615d86565b8015612cf65780601f10612ccb57610100808354040283529160200191612cf6565b820191906000526020600020905b815481529060010190602001808311612cd957829003601f168201915b50505050508152602001600282018054612d0f90615d86565b80601f0160208091040260200160405190810160405280929190818152602001828054612d3b90615d86565b8015612d885780601f10612d5d57610100808354040283529160200191612d88565b820191906000526020600020905b815481529060010190602001808311612d6b57829003601f168201915b50505050508152602001600382018054612da190615d86565b80601f0160208091040260200160405190810160405280929190818152602001828054612dcd90615d86565b8015612e1a5780601f10612def57610100808354040283529160200191612e1a565b820191906000526020600020905b815481529060010190602001808311612dfd57829003601f168201915b50505050508152602001600482018054612e3390615d86565b80601f0160208091040260200160405190810160405280929190818152602001828054612e5f90615d86565b8015612eac5780601f10612e8157610100808354040283529160200191612eac565b820191906000526020600020905b815481529060010190602001808311612e8f57829003601f168201915b50505050508152602001600582018054612ec590615d86565b80601f0160208091040260200160405190810160405280929190818152602001828054612ef190615d86565b8015612f3e5780601f10612f1357610100808354040283529160200191612f3e565b820191906000526020600020905b815481529060010190602001808311612f2157829003601f168201915b50505050508152602001600682018054612f5790615d86565b80601f0160208091040260200160405190810160405280929190818152602001828054612f8390615d86565b8015612fd05780601f10612fa557610100808354040283529160200191612fd0565b820191906000526020600020905b815481529060010190602001808311612fb357829003601f168201915b50505050508152602001600782018054612fe990615d86565b80601f016020809104026020016040519081016040528092919081815260200182805461301590615d86565b80156130625780601f1061303757610100808354040283529160200191613062565b820191906000526020600020905b81548152906001019060200180831161304557829003601f168201915b505050505081526020016008820154815250509080600901805461308590615d86565b80601f01602080910402602001604051908101604052809291908181526020018280546130b190615d86565b80156130fe5780601f106130d3576101008083540402835291602001916130fe565b820191906000526020600020905b8154815290600101906020018083116130e157829003601f168201915b50505050509080600a01805461311390615d86565b80601f016020809104026020016040519081016040528092919081815260200182805461313f90615d86565b801561318c5780601f106131615761010080835404028352916020019161318c565b820191906000526020600020905b81548152906001019060200180831161316f57829003601f168201915b50505050509080600b0180546131a190615d86565b80601f01602080910402602001604051908101604052809291908181526020018280546131cd90615d86565b801561321a5780601f106131ef5761010080835404028352916020019161321a565b820191906000526020600020905b8154815290600101906020018083116131fd57829003601f168201915b50505050509080600c01805461322f90615d86565b80601f016020809104026020016040519081016040528092919081815260200182805461325b90615d86565b80156132a85780601f1061327d576101008083540402835291602001916132a8565b820191906000526020600020905b81548152906001019060200180831161328b57829003601f168201915b50505050509080600d0180546132bd90615d86565b80601f01602080910402602001604051908101604052809291908181526020018280546132e990615d86565b80156133365780601f1061330b57610100808354040283529160200191613336565b820191906000526020600020905b81548152906001019060200180831161331957829003601f168201915b5050505050905086565b60005481565b600560205280600052604060002060009150905080600001604051806101200160405290816000820160009054906101000a900473ffffffffffffffffffffffffffffffffffffffff1673ffffffffffffffffffffffffffffffffffffffff1673ffffffffffffffffffffffffffffffffffffffff1681526020016001820180546133d090615d86565b80601f01602080910402602001604051908101604052809291908181526020018280546133fc90615d86565b80156134495780601f1061341e57610100808354040283529160200191613449565b820191906000526020600020905b81548152906001019060200180831161342c57829003601f168201915b5050505050815260200160028201805461346290615d86565b80601f016020809104026020016040519081016040528092919081815260200182805461348e90615d86565b80156134db5780601f106134b0576101008083540402835291602001916134db565b820191906000526020600020905b8154815290600101906020018083116134be57829003601f168201915b505050505081526020016003820180546134f490615d86565b80601f016020809104026020016040519081016040528092919081815260200182805461352090615d86565b801561356d5780601f106135425761010080835404028352916020019161356d565b820191906000526020600020905b81548152906001019060200180831161355057829003601f168201915b5050505050815260200160048201805461358690615d86565b80601f01602080910402602001604051908101604052809291908181526020018280546135b290615d86565b80156135ff5780601f106135d4576101008083540402835291602001916135ff565b820191906000526020600020905b8154815290600101906020018083116135e257829003601f168201915b5050505050815260200160058201805461361890615d86565b80601f016020809104026020016040519081016040528092919081815260200182805461364490615d86565b80156136915780601f1061366657610100808354040283529160200191613691565b820191906000526020600020905b81548152906001019060200180831161367457829003601f168201915b505050505081526020016006820180546136aa90615d86565b80601f01602080910402602001604051908101604052809291908181526020018280546136d690615d86565b80156137235780601f106136f857610100808354040283529160200191613723565b820191906000526020600020905b81548152906001019060200180831161370657829003601f168201915b5050505050815260200160078201805461373c90615d86565b80601f016020809104026020016040519081016040528092919081815260200182805461376890615d86565b80156137b55780601f1061378a576101008083540402835291602001916137b5565b820191906000526020600020905b81548152906001019060200180831161379857829003601f168201915b50505050508152602001600882015481525050908060090180546137d890615d86565b80601f016020809104026020016040519081016040528092919081815260200182805461380490615d86565b80156138515780601f1061382657610100808354040283529160200191613851565b820191906000526020600020905b81548152906001019060200180831161383457829003601f168201915b50505050509080600a01805461386690615d86565b80601f016020809104026020016040519081016040528092919081815260200182805461389290615d86565b80156138df5780601f106138b4576101008083540402835291602001916138df565b820191906000526020600020905b8154815290600101906020018083116138c257829003601f168201915b5050505050905083565b6138f161496b565b600460008373ffffffffffffffffffffffffffffffffffffffff1673ffffffffffffffffffffffffffffffffffffffff1681526020019081526020016000206040518061010001604052908160008201604051806101200160405290816000820160009054906101000a900473ffffffffffffffffffffffffffffffffffffffff1673ffffffffffffffffffffffffffffffffffffffff1673ffffffffffffffffffffffffffffffffffffffff1681526020016001820180546139b390615d86565b80601f01602080910402602001604051908101604052809291908181526020018280546139df90615d86565b8015613a2c5780601f10613a0157610100808354040283529160200191613a2c565b820191906000526020600020905b815481529060010190602001808311613a0f57829003601f168201915b50505050508152602001600282018054613a4590615d86565b80601f0160208091040260200160405190810160405280929190818152602001828054613a7190615d86565b8015613abe5780601f10613a9357610100808354040283529160200191613abe565b820191906000526020600020905b815481529060010190602001808311613aa157829003601f168201915b50505050508152602001600382018054613ad790615d86565b80601f0160208091040260200160405190810160405280929190818152602001828054613b0390615d86565b8015613b505780601f10613b2557610100808354040283529160200191613b50565b820191906000526020600020905b815481529060010190602001808311613b3357829003601f168201915b50505050508152602001600482018054613b6990615d86565b80601f0160208091040260200160405190810160405280929190818152602001828054613b9590615d86565b8015613be25780601f10613bb757610100808354040283529160200191613be2565b820191906000526020600020905b815481529060010190602001808311613bc557829003601f168201915b50505050508152602001600582018054613bfb90615d86565b80601f0160208091040260200160405190810160405280929190818152602001828054613c2790615d86565b8015613c745780601f10613c4957610100808354040283529160200191613c74565b820191906000526020600020905b815481529060010190602001808311613c5757829003601f168201915b50505050508152602001600682018054613c8d90615d86565b80601f0160208091040260200160405190810160405280929190818152602001828054613cb990615d86565b8015613d065780601f10613cdb57610100808354040283529160200191613d06565b820191906000526020600020905b815481529060010190602001808311613ce957829003601f168201915b50505050508152602001600782018054613d1f90615d86565b80601f0160208091040260200160405190810160405280929190818152602001828054613d4b90615d86565b8015613d985780601f10613d6d57610100808354040283529160200191613d98565b820191906000526020600020905b815481529060010190602001808311613d7b57829003601f168201915b505050505081526020016008820154815250508152602001600982018054613dbf90615d86565b80601f0160208091040260200160405190810160405280929190818152602001828054613deb90615d86565b8015613e385780601f10613e0d57610100808354040283529160200191613e38565b820191906000526020600020905b815481529060010190602001808311613e1b57829003601f168201915b50505050508152602001600a82018054613e5190615d86565b80601f0160208091040260200160405190810160405280929190818152602001828054613e7d90615d86565b8015613eca5780601f10613e9f57610100808354040283529160200191613eca565b820191906000526020600020905b815481529060010190602001808311613ead57829003601f168201915b50505050508152602001600b82018054613ee390615d86565b80601f0160208091040260200160405190810160405280929190818152602001828054613f0f90615d86565b8015613f5c5780601f10613f3157610100808354040283529160200191613f5c565b820191906000526020600020905b815481529060010190602001808311613f3f57829003601f168201915b50505050508152602001600c82018054613f7590615d86565b80601f0160208091040260200160405190810160405280929190818152602001828054613fa190615d86565b8015613fee5780601f10613fc357610100808354040283529160200191613fee565b820191906000526020600020905b815481529060010190602001808311613fd157829003601f168201915b50505050508152602001600d8201805461400790615d86565b80601f016020809104026020016040519081016040528092919081815260200182805461403390615d86565b80156140805780601f1061405557610100808354040283529160200191614080565b820191906000526020600020905b81548152906001019060200180831161406357829003601f168201915b50505050508152602001600e820180548060200260200160405190810160405280929190818152602001828054801561410e57602002820191906000526020600020905b8160009054906101000a900473ffffffffffffffffffffffffffffffffffffffff1673ffffffffffffffffffffffffffffffffffffffff16815260200190600101908083116140c4575b50505050508152602001600f8201805480602002602001604051908101604052809291908181526020016000905b828210156141e857838290600052602060002001805461415b90615d86565b80601f016020809104026020016040519081016040528092919081815260200182805461418790615d86565b80156141d45780601f106141a9576101008083540402835291602001916141d4565b820191906000526020600020905b8154815290600101906020018083116141b757829003601f168201915b50505050508152602001906001019061413c565b50505050815250509050919050565b600860008373ffffffffffffffffffffffffffffffffffffffff1673ffffffffffffffffffffffffffffffffffffffff16815260200190815260200160002060009054906101000a900460ff1661424d57600080fd5b600760008273ffffffffffffffffffffffffffffffffffffffff1673ffffffffffffffffffffffffffffffffffffffff16815260200190815260200160002060009054906101000a900460ff166142a357600080fd5b60005b600460008373ffffffffffffffffffffffffffffffffffffffff1673ffffffffffffffffffffffffffffffffffffffff168152602001908152602001600020600e01805490508110156146685782604051602001614304919061581e565b60405160208183030381529060405280519060200120600460008473ffffffffffffffffffffffffffffffffffffffff1673ffffffffffffffffffffffffffffffffffffffff168152602001908152602001600020600e018281548110614394577f4e487b7100000000000000000000000000000000000000000000000000000000600052603260045260246000fd5b9060005260206000200160009054906101000a900473ffffffffffffffffffffffffffffffffffffffff166040516020016143cf919061581e565b60405160208183030381529060405280519060200120141561465557600460008373ffffffffffffffffffffffffffffffffffffffff1673ffffffffffffffffffffffffffffffffffffffff168152602001908152602001600020600e016001600460008573ffffffffffffffffffffffffffffffffffffffff1673ffffffffffffffffffffffffffffffffffffffff168152602001908152602001600020600e018054905061447f9190615caf565b815481106144b6577f4e487b7100000000000000000000000000000000000000000000000000000000600052603260045260246000fd5b9060005260206000200160009054906101000a900473ffffffffffffffffffffffffffffffffffffffff16600460008473ffffffffffffffffffffffffffffffffffffffff1673ffffffffffffffffffffffffffffffffffffffff168152602001908152602001600020600e01828154811061455b577f4e487b7100000000000000000000000000000000000000000000000000000000600052603260045260246000fd5b9060005260206000200160006101000a81548173ffffffffffffffffffffffffffffffffffffffff021916908373ffffffffffffffffffffffffffffffffffffffff160217905550600460008373ffffffffffffffffffffffffffffffffffffffff1673ffffffffffffffffffffffffffffffffffffffff168152602001908152602001600020600e0180548061461b577f4e487b7100000000000000000000000000000000000000000000000000000000600052603160045260246000fd5b6001900381819060005260206000200160006101000a81549073ffffffffffffffffffffffffffffffffffffffff02191690559055614668565b808061466090615de9565b9150506142a6565b505050565b6040518060c001604052806060815260200160608152602001600073ffffffffffffffffffffffffffffffffffffffff168152602001600073ffffffffffffffffffffffffffffffffffffffff1681526020016000815260200160006002811115614701577f4e487b7100000000000000000000000000000000000000000000000000000000600052602160045260246000fd5b81525090565b82805461471390615d86565b90600052602060002090601f016020900481019282614735576000855561477c565b82601f1061474e57805160ff191683800117855561477c565b8280016001018555821561477c579182015b8281111561477b578251825591602001919060010190614760565b5b50905061478991906149b6565b5090565b828054828255906000526020600020908101928215614806579160200282015b828111156148055782518260006101000a81548173ffffffffffffffffffffffffffffffffffffffff021916908373ffffffffffffffffffffffffffffffffffffffff160217905550916020019190600101906147ad565b5b50905061481391906149b6565b5090565b828054828255906000526020600020908101928215614866579160200282015b82811115614865578251829080519060200190614855929190614707565b5091602001919060010190614837565b5b50905061487391906149d3565b5090565b50805461488390615d86565b6000825580601f1061489557506148b4565b601f0160209004906000526020600020908101906148b391906149b6565b5b50565b8280546148c390615d86565b90600052602060002090601f0160209004810192826148e55760008555614933565b82601f106148f65780548555614933565b8280016001018555821561493357600052602060002091601f016020900482015b82811115614932578254825591600101919060010190614917565b5b50905061494091906149b6565b5090565b60405180606001604052806149576149f7565b815260200160608152602001606081525090565b60405180610100016040528061497f6149f7565b8152602001606081526020016060815260200160608152602001606081526020016060815260200160608152602001606081525090565b5b808211156149cf5760008160009055506001016149b7565b5090565b5b808211156149f357600081816149ea9190614877565b506001016149d4565b5090565b604051806101200160405280600073ffffffffffffffffffffffffffffffffffffffff16815260200160608152602001606081526020016060815260200160608152602001606081526020016060815260200160608152602001600081525090565b6000614a6c614a6784615b67565b615b42565b90508083825260208201905082856020860282011115614a8b57600080fd5b60005b85811015614abb5781614aa18882614b60565b845260208401935060208301925050600181019050614a8e565b5050509392505050565b6000614ad8614ad384615b93565b615b42565b9050808382526020820190508260005b85811015614b185781358501614afe8882614bde565b845260208401935060208301925050600181019050614ae8565b5050509392505050565b6000614b35614b3084615bbf565b615b42565b905082815260208101848484011115614b4d57600080fd5b614b58848285615d44565b509392505050565b600081359050614b6f81615f44565b92915050565b600082601f830112614b8657600080fd5b8135614b96848260208601614a59565b91505092915050565b600082601f830112614bb057600080fd5b8135614bc0848260208601614ac5565b91505092915050565b600081359050614bd881615f5b565b92915050565b600082601f830112614bef57600080fd5b8135614bff848260208601614b22565b91505092915050565b60006101208284031215614c1b57600080fd5b614c26610120615b42565b90506000614c3684828501614b60565b600083015250602082013567ffffffffffffffff811115614c5657600080fd5b614c6284828501614bde565b602083015250604082013567ffffffffffffffff811115614c8257600080fd5b614c8e84828501614bde565b604083015250606082013567ffffffffffffffff811115614cae57600080fd5b614cba84828501614bde565b606083015250608082013567ffffffffffffffff811115614cda57600080fd5b614ce684828501614bde565b60808301525060a082013567ffffffffffffffff811115614d0657600080fd5b614d1284828501614bde565b60a08301525060c082013567ffffffffffffffff811115614d3257600080fd5b614d3e84828501614bde565b60c08301525060e082013567ffffffffffffffff811115614d5e57600080fd5b614d6a84828501614bde565b60e083015250610100614d7f84828501614d8c565b6101008301525092915050565b600081359050614d9b81615f6b565b92915050565b600060208284031215614db357600080fd5b6000614dc184828501614b60565b91505092915050565b60008060408385031215614ddd57600080fd5b6000614deb85828601614b60565b9250506020614dfc85828601614b60565b9150509250929050565b600060208284031215614e1857600080fd5b600082013567ffffffffffffffff811115614e3257600080fd5b614e3e84828501614bde565b91505092915050565b60008060408385031215614e5a57600080fd5b600083013567ffffffffffffffff811115614e7457600080fd5b614e8085828601614bde565b9250506020614e9185828601614b60565b9150509250929050565b60008060008060808587031215614eb157600080fd5b600085013567ffffffffffffffff811115614ecb57600080fd5b614ed787828801614bde565b945050602085013567ffffffffffffffff811115614ef457600080fd5b614f0087828801614bde565b9350506040614f1187828801614b60565b9250506060614f2287828801614b60565b91505092959194509250565b600080600060608486031215614f4357600080fd5b600084013567ffffffffffffffff811115614f5d57600080fd5b614f6986828701614bde565b935050602084013567ffffffffffffffff811115614f8657600080fd5b614f9286828701614bde565b9250506040614fa386828701614bc9565b9150509250925092565b600080600060608486031215614fc257600080fd5b600084013567ffffffffffffffff811115614fdc57600080fd5b614fe886828701614c08565b935050602084013567ffffffffffffffff81111561500557600080fd5b61501186828701614bde565b925050604084013567ffffffffffffffff81111561502e57600080fd5b61503a86828701614bde565b9150509250925092565b600080600080600080600080610100898b03121561506157600080fd5b600089013567ffffffffffffffff81111561507b57600080fd5b6150878b828c01614c08565b985050602089013567ffffffffffffffff8111156150a457600080fd5b6150b08b828c01614bde565b975050604089013567ffffffffffffffff8111156150cd57600080fd5b6150d98b828c01614bde565b965050606089013567ffffffffffffffff8111156150f657600080fd5b6151028b828c01614bde565b955050608089013567ffffffffffffffff81111561511f57600080fd5b61512b8b828c01614bde565b94505060a089013567ffffffffffffffff81111561514857600080fd5b6151548b828c01614bde565b93505060c089013567ffffffffffffffff81111561517157600080fd5b61517d8b828c01614b75565b92505060e089013567ffffffffffffffff81111561519a57600080fd5b6151a68b828c01614b9f565b9150509295985092959890939650565b6000602082840312156151c857600080fd5b60006151d684828501614d8c565b91505092915050565b60006151eb838361520b565b60208301905092915050565b60006152038383615331565b905092915050565b61521481615ce3565b82525050565b61522381615ce3565b82525050565b61523a61523582615ce3565b615e32565b82525050565b600061524b82615c25565b6152558185615c60565b935061526083615bf0565b8060005b8381101561529157815161527888826151df565b975061528383615c46565b925050600181019050615264565b5085935050505092915050565b60006152a982615c30565b6152b38185615c71565b9350836020820285016152c585615c00565b8060005b8581101561530157848403895281516152e285826151f7565b94506152ed83615c53565b925060208a019950506001810190506152c9565b50829750879550505050505092915050565b61531c81615d32565b82525050565b61532b81615d32565b82525050565b600061533c82615c3b565b6153468185615c82565b9350615356818560208601615d53565b61535f81615f12565b840191505092915050565b600061537582615c3b565b61537f8185615c93565b935061538f818560208601615d53565b61539881615f12565b840191505092915050565b60006153ae82615c3b565b6153b88185615ca4565b93506153c8818560208601615d53565b80840191505092915050565b600081546153e181615d86565b6153eb8186615ca4565b9450600182166000811461540657600181146154175761544a565b60ff1983168652818601935061544a565b61542085615c10565b60005b8381101561544257815481890152600182019150602081019050615423565b838801955050505b50505092915050565b600060608301600083015184820360008601526154708282615622565b9150506020830151848203602086015261548a8282615331565b915050604083015184820360408601526154a48282615331565b9150508091505092915050565b60006101008301600083015184820360008601526154cf8282615622565b915050602083015184820360208601526154e98282615331565b915050604083015184820360408601526155038282615331565b9150506060830151848203606086015261551d8282615331565b915050608083015184820360808601526155378282615331565b91505060a083015184820360a08601526155518282615331565b91505060c083015184820360c086015261556b8282615240565b91505060e083015184820360e0860152615585828261529e565b9150508091505092915050565b600060c08301600083015184820360008601526155af8282615331565b915050602083015184820360208601526155c98282615331565b91505060408301516155de604086018261520b565b5060608301516155f1606086018261520b565b5060808301516156046080860182615800565b5060a083015161561760a0860182615313565b508091505092915050565b60006101208301600083015161563b600086018261520b565b50602083015184820360208601526156538282615331565b9150506040830151848203604086015261566d8282615331565b915050606083015184820360608601526156878282615331565b915050608083015184820360808601526156a18282615331565b91505060a083015184820360a08601526156bb8282615331565b91505060c083015184820360c08601526156d58282615331565b91505060e083015184820360e08601526156ef8282615331565b915050610100830151615706610100860182615800565b508091505092915050565b60006101208301600083015161572a600086018261520b565b50602083015184820360208601526157428282615331565b9150506040830151848203604086015261575c8282615331565b915050606083015184820360608601526157768282615331565b915050608083015184820360808601526157908282615331565b91505060a083015184820360a08601526157aa8282615331565b91505060c083015184820360c08601526157c48282615331565b91505060e083015184820360e08601526157de8282615331565b9150506101008301516157f5610100860182615800565b508091505092915050565b61580981615d28565b82525050565b61581881615d28565b82525050565b600061582a8284615229565b60148201915081905092915050565b600061584582846153a3565b915081905092915050565b600061585c82846153d4565b915081905092915050565b600060208201905061587c600083018461521a565b92915050565b6000606082019050615897600083018661521a565b6158a4602083018561521a565b6158b1604083018461580f565b949350505050565b60006080820190506158ce600083018761521a565b81810360208301526158e0818661536a565b905081810360408301526158f4818561536a565b9050615903606083018461580f565b95945050505050565b600060c0820190508181036000830152615926818961536a565b9050818103602083015261593a818861536a565b9050615949604083018761521a565b615956606083018661521a565b615963608083018561580f565b61597060a0830184615322565b979650505050505050565b600060c0820190508181036000830152615995818961536a565b905081810360208301526159a9818861536a565b90506159b8604083018761521a565b6159c5606083018661580f565b6159d26080830185615322565b6159df60a083018461521a565b979650505050505050565b60006020820190508181036000830152615a048184615453565b905092915050565b60006020820190508181036000830152615a2681846154b1565b905092915050565b60006020820190508181036000830152615a488184615592565b905092915050565b60006060820190508181036000830152615a6a8186615711565b90508181036020830152615a7e818561536a565b90508181036040830152615a92818461536a565b9050949350505050565b600060c0820190508181036000830152615ab68189615711565b90508181036020830152615aca818861536a565b90508181036040830152615ade818761536a565b90508181036060830152615af2818661536a565b90508181036080830152615b06818561536a565b905081810360a0830152615b1a818461536a565b9050979650505050505050565b6000602082019050615b3c600083018461580f565b92915050565b6000615b4c615b5d565b9050615b588282615db8565b919050565b6000604051905090565b600067ffffffffffffffff821115615b8257615b81615ee3565b5b602082029050602081019050919050565b600067ffffffffffffffff821115615bae57615bad615ee3565b5b602082029050602081019050919050565b600067ffffffffffffffff821115615bda57615bd9615ee3565b5b615be382615f12565b9050602081019050919050565b6000819050602082019050919050565b6000819050602082019050919050565b60008190508160005260206000209050919050565b600081519050919050565b600081519050919050565b600081519050919050565b6000602082019050919050565b6000602082019050919050565b600082825260208201905092915050565b600082825260208201905092915050565b600082825260208201905092915050565b600082825260208201905092915050565b600081905092915050565b6000615cba82615d28565b9150615cc583615d28565b925082821015615cd857615cd7615e56565b5b828203905092915050565b6000615cee82615d08565b9050919050565b6000819050615d0382615f30565b919050565b600073ffffffffffffffffffffffffffffffffffffffff82169050919050565b6000819050919050565b6000615d3d82615cf5565b9050919050565b82818337600083830152505050565b60005b83811015615d71578082015181840152602081019050615d56565b83811115615d80576000848401525b50505050565b60006002820490506001821680615d9e57607f821691505b60208210811415615db257615db1615eb4565b5b50919050565b615dc182615f12565b810181811067ffffffffffffffff82111715615de057615ddf615ee3565b5b80604052505050565b6000615df482615d28565b91507fffffffffffffffffffffffffffffffffffffffffffffffffffffffffffffffff821415615e2757615e26615e56565b5b600182019050919050565b6000615e3d82615e44565b9050919050565b6000615e4f82615f23565b9050919050565b7f4e487b7100000000000000000000000000000000000000000000000000000000600052601160045260246000fd5b7f4e487b7100000000000000000000000000000000000000000000000000000000600052602160045260246000fd5b7f4e487b7100000000000000000000000000000000000000000000000000000000600052602260045260246000fd5b7f4e487b7100000000000000000000000000000000000000000000000000000000600052604160045260246000fd5b6000601f19601f8301169050919050565b60008160601b9050919050565b60038110615f4157615f40615e85565b5b50565b615f4d81615ce3565b8114615f5857600080fd5b50565b60038110615f6857600080fd5b50565b615f7481615d28565b8114615f7f57600080fd5b5056fea264697066735822122070869fd69821022b109c75c053ac48d2e027286079bad11f31c91d31e27dcc6a64736f6c63430008020033",
  "immutableReferences": {},
  "source": "// SPDX-License-Identifier: MIT\npragma solidity 0.8.2;\npragma experimental ABIEncoderV2;\n\ncontract MainContract {\n    struct User {\n        address addr;\n        string IC;\n        string name;\n        string gender;\n        string birthdate;\n        string email;\n        string homeAddress;\n        string phone;\n        uint userSince;\n    }\n\n    struct Doctor {\n        User primaryInfo;\n        string qualification;\n        string major;\n    }\n\n    enum RecordStatus {\n        PENDING,\n        COMPLETED,\n        DECLINED\n    }\n\n    struct Record {\n        string encryptedID;\n        string dataHash;\n        address issuerDoctorAddr;\n        address patientAddr;\n        uint timestamp;\n        RecordStatus recordStatus;\n    }\n\n    struct Patient {\n        User primaryInfo;\n        string emergencyContact;\n        string emergencyNumber;\n        string bloodType;\n        string height;\n        string weight;\n        address[] whitelistedDoctor;\n        string[] recordList;\n    }\n\n    uint public totalPatients = 0;\n    uint public totalDoctors = 0;\n    mapping(uint => address) public patients;\n    mapping(uint => address) public doctors;\n    mapping(address => Patient) public patientList;\n    mapping(address => Doctor) public doctorList;\n    mapping(string => Record) public recordList;\n    mapping(address => bool) isPatient;\n    mapping(address => bool) isDoctor;\n\n    event PatientCreated(\n        address patientAddr,\n        string patientName,\n        string patientIC,\n        uint timestamp\n    );\n\n    event DoctorCreated(\n        address doctorAddr,\n        string doctorName,\n        string doctorIC,\n        uint timestamp\n    );\n\n    event WhitelistDoctor(\n        address patientAddr,\n        address doctorAddr,\n        uint timestamp\n    );\n\n    event RecordCreated(\n        string encryptedID,\n        string dataHash,\n        address issuerDoctorAddr,\n        uint timestamp,\n        RecordStatus recordStatus,\n        address patientAddr\n    );\n\n    function createPatient(\n        User memory userInfo,\n        string memory _emergencyContact,\n        string memory _emergencyNumber,\n        string memory _bloodType,\n        string memory _height,\n        string memory _weight,\n        address[] memory _whitelistedDoctor,\n        string[] memory _recordList\n    ) public {\n        address patientAddress = userInfo.addr;\n\n        require(!isPatient[userInfo.addr]);\n        isPatient[patientAddress] = true;\n\n        uint timestamp = userInfo.userSince;\n        patientList[patientAddress].primaryInfo = userInfo;\n        patientList[patientAddress].emergencyContact = _emergencyContact;\n        patientList[patientAddress].emergencyNumber = _emergencyNumber;\n        patientList[patientAddress].bloodType = _bloodType;\n        patientList[patientAddress].height = _height;\n        patientList[patientAddress].weight = _weight;\n\n        // address[] memory whitelistedDoctor;\n        for (uint i = 0; i < _whitelistedDoctor.length; i++) {\n            require(isDoctor[_whitelistedDoctor[i]]);\n        }\n        patientList[patientAddress].whitelistedDoctor = _whitelistedDoctor;\n        patientList[patientAddress].recordList = _recordList;\n\n        totalPatients++;\n\n        patients[totalPatients] = patientAddress;\n\n        emit PatientCreated(\n            userInfo.addr,\n            userInfo.name,\n            userInfo.IC,\n            timestamp\n        );\n    }\n\n    function setPatientDetails(\n        User memory userInfo,\n        string memory _emergencyContact,\n        string memory _emergencyNumber,\n        string memory _bloodType,\n        string memory _height,\n        string memory _weight,\n        address[] memory _whitelistedDoctor,\n        string[] memory _recordList\n    ) public {\n        address patientAddress = userInfo.addr;\n        require(isPatient[patientAddress]);\n        // Update all except address & userSince\n        patientList[patientAddress].primaryInfo.IC = userInfo.IC;\n        patientList[patientAddress].primaryInfo.name = userInfo.name;\n        patientList[patientAddress].primaryInfo.gender = userInfo.gender;\n        patientList[patientAddress].primaryInfo.birthdate = userInfo.birthdate;\n        patientList[patientAddress].primaryInfo.email = userInfo.email;\n        patientList[patientAddress].primaryInfo.homeAddress = userInfo\n            .homeAddress;\n        patientList[patientAddress].primaryInfo.phone = userInfo.phone;\n\n        patientList[patientAddress].emergencyContact = _emergencyContact;\n        patientList[patientAddress].emergencyNumber = _emergencyNumber;\n        patientList[patientAddress].bloodType = _bloodType;\n        patientList[patientAddress].height = _height;\n        patientList[patientAddress].weight = _weight;\n\n        // address[] memory whitelistedDoctor;\n        for (uint i = 0; i < _whitelistedDoctor.length; i++) {\n            require(isDoctor[_whitelistedDoctor[i]]);\n        }\n        patientList[patientAddress].whitelistedDoctor = _whitelistedDoctor;\n        patientList[patientAddress].recordList = _recordList;\n    }\n\n    function addWhitelistedDoctor(\n        address doctorAddress,\n        address patientAddress\n    ) public {\n        require(isDoctor[doctorAddress]);\n        require(isPatient[patientAddress]);\n        // for (\n        //     uint i = 0;\n        //     i < patientList[patientAddress].whitelistedDoctor.length;\n        //     i++\n        // ) {\n        //     if (\n        //         keccak256(\n        //             abi.encodePacked(\n        //                 patientList[patientAddress].whitelistedDoctor[i]\n        //             )\n        //         ) == keccak256(abi.encodePacked(doctorAddress))\n        //     ) {\n        //         break;\n        //     }\n        // }\n        patientList[patientAddress].whitelistedDoctor.push(doctorAddress);\n\n        emit WhitelistDoctor(doctorAddress, patientAddress, block.timestamp);\n    }\n\n    function removeWhitelistedDoctor(\n        address doctorAddress,\n        address patientAddress\n    ) public {\n        require(isDoctor[doctorAddress]);\n        require(isPatient[patientAddress]);\n\n        for (\n            uint i = 0;\n            i < patientList[patientAddress].whitelistedDoctor.length;\n            i++\n        ) {\n            if (\n                keccak256(\n                    abi.encodePacked(\n                        patientList[patientAddress].whitelistedDoctor[i]\n                    )\n                ) == keccak256(abi.encodePacked(doctorAddress))\n            ) {\n                patientList[patientAddress].whitelistedDoctor[i] = patientList[\n                    patientAddress\n                ].whitelistedDoctor[\n                        patientList[patientAddress].whitelistedDoctor.length - 1\n                    ];\n                patientList[patientAddress].whitelistedDoctor.pop();\n                break;\n            }\n        }\n    }\n\n    function getPatientDetails(\n        address patientAddress\n    ) public view returns (Patient memory) {\n        return patientList[patientAddress];\n    }\n\n    function createDoctor(\n        User memory userInfo,\n        string memory _qualification,\n        string memory _major\n    ) public {\n        address doctorAddress = userInfo.addr;\n        require(!isDoctor[doctorAddress]);\n\n        isDoctor[doctorAddress] = true;\n        uint timestamp = userInfo.userSince;\n\n        doctorList[doctorAddress].primaryInfo = userInfo;\n        doctorList[doctorAddress].qualification = _qualification;\n        doctorList[doctorAddress].major = _major;\n\n        totalDoctors++;\n\n        doctors[totalDoctors] = doctorAddress;\n\n        emit DoctorCreated(\n            userInfo.addr,\n            userInfo.name,\n            userInfo.IC,\n            timestamp\n        );\n    }\n\n    function setDoctorDetails(\n        User memory userInfo,\n        string memory _qualification,\n        string memory _major\n    ) public {\n        address doctorAddress = userInfo.addr;\n        require(isDoctor[doctorAddress]);\n\n        // Update all except address & userSince\n        doctorList[doctorAddress].primaryInfo.IC = userInfo.IC;\n        doctorList[doctorAddress].primaryInfo.name = userInfo.name;\n        doctorList[doctorAddress].primaryInfo.gender = userInfo.gender;\n        doctorList[doctorAddress].primaryInfo.birthdate = userInfo.birthdate;\n        doctorList[doctorAddress].primaryInfo.email = userInfo.email;\n        doctorList[doctorAddress].primaryInfo.homeAddress = userInfo\n            .homeAddress;\n        doctorList[doctorAddress].primaryInfo.phone = userInfo.phone;\n        doctorList[doctorAddress].qualification = _qualification;\n        doctorList[doctorAddress].major = _major;\n    }\n\n    function getDoctorDetails(\n        address doctorAddress\n    ) public view returns (Doctor memory) {\n        return doctorList[doctorAddress];\n    }\n\n    function createRecord(\n        string memory _encryptedID,\n        string memory _dataHash,\n        address _issuerDoctorAddr,\n        address _patientAddr\n    ) public {\n        require(isDoctor[_issuerDoctorAddr]);\n        require(isPatient[_patientAddr]);\n\n        uint timestamp = block.timestamp;\n        RecordStatus recordStatus = RecordStatus.PENDING;\n\n        recordList[_encryptedID].encryptedID = _encryptedID;\n        recordList[_encryptedID].dataHash = _dataHash;\n        recordList[_encryptedID].issuerDoctorAddr = _issuerDoctorAddr;\n        recordList[_encryptedID].patientAddr = _patientAddr;\n        recordList[_encryptedID].timestamp = timestamp;\n        recordList[_encryptedID].recordStatus = recordStatus;\n\n        patientList[_patientAddr].recordList.push(_encryptedID);\n\n        emit RecordCreated(\n            _encryptedID,\n            _dataHash,\n            _issuerDoctorAddr,\n            timestamp,\n            recordStatus,\n            _patientAddr\n        );\n    }\n\n    function getRecordDetails(\n        string memory _encryptedID\n    ) public view returns (Record memory) {\n        return recordList[_encryptedID];\n    }\n\n    function editRecord(\n        string memory _encryptedID,\n        string memory _dataHash,\n        RecordStatus _recordStatus\n    ) public {\n        uint timestamp = block.timestamp;\n        recordList[_encryptedID].encryptedID = _encryptedID;\n        recordList[_encryptedID].dataHash = _dataHash;\n        recordList[_encryptedID].timestamp = timestamp;\n        recordList[_encryptedID].recordStatus = _recordStatus;\n    }\n\n    function removeRecord(\n        string memory _encryptedID,\n        address _patientAddress\n    ) public {\n        require(isPatient[_patientAddress]);\n        delete recordList[_encryptedID];\n\n        for (\n            uint i = 0;\n            i < patientList[_patientAddress].recordList.length;\n            i++\n        ) {\n            if (\n                keccak256(\n                    abi.encodePacked(patientList[_patientAddress].recordList[i])\n                ) == keccak256(abi.encodePacked(_encryptedID))\n            ) {\n                patientList[_patientAddress].recordList[i] = patientList[\n                    _patientAddress\n                ].recordList[\n                        patientList[_patientAddress].recordList.length - 1\n                    ];\n                patientList[_patientAddress].recordList.pop();\n                break;\n            }\n        }\n    }\n}\n",
  "sourcePath": "/Users/vanessachristy/Documents/School Y4S1/FYP/mymedtrust/contracts/MainContract.sol",
  "compiler": {
    "name": "solc",
    "version": "0.8.2+commit.661d1103.Emscripten.clang"
  },
  "schemaVersion": "3.4.15",
  "updatedAt": "2023-10-12T08:22:37.172Z",
  "networkType": "ethereum",
  "devdoc": {
    "kind": "dev",
    "methods": {},
    "version": 1
  },
  "userdoc": {
    "kind": "user",
    "methods": {},
    "version": 1
  }
}