{
  "contractName": "MainContract",
  "abi": [
    {
      "anonymous": false,
      "inputs": [
        {
          "indexed": false,
          "internalType": "address",
          "name": "doctorAddr",
          "type": "address"
        },
        {
          "indexed": false,
          "internalType": "string",
          "name": "doctorName",
          "type": "string"
        },
        {
          "indexed": false,
          "internalType": "string",
          "name": "doctorIC",
          "type": "string"
        },
        {
          "indexed": false,
          "internalType": "uint256",
          "name": "timestamp",
          "type": "uint256"
        }
      ],
      "name": "DoctorCreated",
      "type": "event"
    },
    {
      "anonymous": false,
      "inputs": [
        {
          "indexed": false,
          "internalType": "address",
          "name": "patientAddr",
          "type": "address"
        },
        {
          "indexed": false,
          "internalType": "string",
          "name": "patientName",
          "type": "string"
        },
        {
          "indexed": false,
          "internalType": "string",
          "name": "patientIC",
          "type": "string"
        },
        {
          "indexed": false,
          "internalType": "uint256",
          "name": "timestamp",
          "type": "uint256"
        }
      ],
      "name": "PatientCreated",
      "type": "event"
    },
    {
      "anonymous": false,
      "inputs": [
        {
          "indexed": false,
          "internalType": "address",
          "name": "patientAddr",
          "type": "address"
        },
        {
          "indexed": false,
          "internalType": "address",
          "name": "doctorAddr",
          "type": "address"
        },
        {
          "indexed": false,
          "internalType": "uint256",
          "name": "timestamp",
          "type": "uint256"
        }
      ],
      "name": "WhitelistDoctor",
      "type": "event"
    },
    {
      "inputs": [
        {
          "internalType": "address",
          "name": "",
          "type": "address"
        }
      ],
      "name": "doctorList",
      "outputs": [
        {
          "components": [
            {
              "internalType": "address",
              "name": "addr",
              "type": "address"
            },
            {
              "internalType": "string",
              "name": "IC",
              "type": "string"
            },
            {
              "internalType": "string",
              "name": "name",
              "type": "string"
            },
            {
              "internalType": "string",
              "name": "gender",
              "type": "string"
            },
            {
              "internalType": "string",
              "name": "birthdate",
              "type": "string"
            },
            {
              "internalType": "string",
              "name": "email",
              "type": "string"
            },
            {
              "internalType": "string",
              "name": "homeAddress",
              "type": "string"
            },
            {
              "internalType": "string",
              "name": "phone",
              "type": "string"
            },
            {
              "internalType": "uint256",
              "name": "userSince",
              "type": "uint256"
            }
          ],
          "internalType": "struct MainContract.User",
          "name": "primaryInfo",
          "type": "tuple"
        },
        {
          "internalType": "string",
          "name": "qualification",
          "type": "string"
        },
        {
          "internalType": "string",
          "name": "major",
          "type": "string"
        }
      ],
      "stateMutability": "view",
      "type": "function",
      "constant": true
    },
    {
      "inputs": [
        {
          "internalType": "uint256",
          "name": "",
          "type": "uint256"
        }
      ],
      "name": "doctors",
      "outputs": [
        {
          "internalType": "address",
          "name": "",
          "type": "address"
        }
      ],
      "stateMutability": "view",
      "type": "function",
      "constant": true
    },
    {
      "inputs": [
        {
          "internalType": "address",
          "name": "",
          "type": "address"
        }
      ],
      "name": "patientList",
      "outputs": [
        {
          "components": [
            {
              "internalType": "address",
              "name": "addr",
              "type": "address"
            },
            {
              "internalType": "string",
              "name": "IC",
              "type": "string"
            },
            {
              "internalType": "string",
              "name": "name",
              "type": "string"
            },
            {
              "internalType": "string",
              "name": "gender",
              "type": "string"
            },
            {
              "internalType": "string",
              "name": "birthdate",
              "type": "string"
            },
            {
              "internalType": "string",
              "name": "email",
              "type": "string"
            },
            {
              "internalType": "string",
              "name": "homeAddress",
              "type": "string"
            },
            {
              "internalType": "string",
              "name": "phone",
              "type": "string"
            },
            {
              "internalType": "uint256",
              "name": "userSince",
              "type": "uint256"
            }
          ],
          "internalType": "struct MainContract.User",
          "name": "primaryInfo",
          "type": "tuple"
        },
        {
          "internalType": "string",
          "name": "emergencyContact",
          "type": "string"
        },
        {
          "internalType": "string",
          "name": "emergencyNumber",
          "type": "string"
        },
        {
          "internalType": "string",
          "name": "bloodType",
          "type": "string"
        },
        {
          "internalType": "string",
          "name": "height",
          "type": "string"
        },
        {
          "internalType": "string",
          "name": "weight",
          "type": "string"
        }
      ],
      "stateMutability": "view",
      "type": "function",
      "constant": true
    },
    {
      "inputs": [
        {
          "internalType": "uint256",
          "name": "",
          "type": "uint256"
        }
      ],
      "name": "patients",
      "outputs": [
        {
          "internalType": "address",
          "name": "",
          "type": "address"
        }
      ],
      "stateMutability": "view",
      "type": "function",
      "constant": true
    },
    {
      "inputs": [],
      "name": "totalDoctors",
      "outputs": [
        {
          "internalType": "uint256",
          "name": "",
          "type": "uint256"
        }
      ],
      "stateMutability": "view",
      "type": "function",
      "constant": true
    },
    {
      "inputs": [],
      "name": "totalPatients",
      "outputs": [
        {
          "internalType": "uint256",
          "name": "",
          "type": "uint256"
        }
      ],
      "stateMutability": "view",
      "type": "function",
      "constant": true
    },
    {
      "inputs": [
        {
          "components": [
            {
              "internalType": "address",
              "name": "addr",
              "type": "address"
            },
            {
              "internalType": "string",
              "name": "IC",
              "type": "string"
            },
            {
              "internalType": "string",
              "name": "name",
              "type": "string"
            },
            {
              "internalType": "string",
              "name": "gender",
              "type": "string"
            },
            {
              "internalType": "string",
              "name": "birthdate",
              "type": "string"
            },
            {
              "internalType": "string",
              "name": "email",
              "type": "string"
            },
            {
              "internalType": "string",
              "name": "homeAddress",
              "type": "string"
            },
            {
              "internalType": "string",
              "name": "phone",
              "type": "string"
            },
            {
              "internalType": "uint256",
              "name": "userSince",
              "type": "uint256"
            }
          ],
          "internalType": "struct MainContract.User",
          "name": "userInfo",
          "type": "tuple"
        },
        {
          "internalType": "string",
          "name": "_emergencyContact",
          "type": "string"
        },
        {
          "internalType": "string",
          "name": "_emergencyNumber",
          "type": "string"
        },
        {
          "internalType": "string",
          "name": "_bloodType",
          "type": "string"
        },
        {
          "internalType": "string",
          "name": "_height",
          "type": "string"
        },
        {
          "internalType": "string",
          "name": "_weight",
          "type": "string"
        },
        {
          "internalType": "address[]",
          "name": "_whitelistedDoctor",
          "type": "address[]"
        },
        {
          "internalType": "string[]",
          "name": "_recordList",
          "type": "string[]"
        }
      ],
      "name": "createPatient",
      "outputs": [],
      "stateMutability": "nonpayable",
      "type": "function"
    },
    {
      "inputs": [
        {
          "components": [
            {
              "internalType": "address",
              "name": "addr",
              "type": "address"
            },
            {
              "internalType": "string",
              "name": "IC",
              "type": "string"
            },
            {
              "internalType": "string",
              "name": "name",
              "type": "string"
            },
            {
              "internalType": "string",
              "name": "gender",
              "type": "string"
            },
            {
              "internalType": "string",
              "name": "birthdate",
              "type": "string"
            },
            {
              "internalType": "string",
              "name": "email",
              "type": "string"
            },
            {
              "internalType": "string",
              "name": "homeAddress",
              "type": "string"
            },
            {
              "internalType": "string",
              "name": "phone",
              "type": "string"
            },
            {
              "internalType": "uint256",
              "name": "userSince",
              "type": "uint256"
            }
          ],
          "internalType": "struct MainContract.User",
          "name": "userInfo",
          "type": "tuple"
        },
        {
          "internalType": "string",
          "name": "_emergencyContact",
          "type": "string"
        },
        {
          "internalType": "string",
          "name": "_emergencyNumber",
          "type": "string"
        },
        {
          "internalType": "string",
          "name": "_bloodType",
          "type": "string"
        },
        {
          "internalType": "string",
          "name": "_height",
          "type": "string"
        },
        {
          "internalType": "string",
          "name": "_weight",
          "type": "string"
        },
        {
          "internalType": "address[]",
          "name": "_whitelistedDoctor",
          "type": "address[]"
        },
        {
          "internalType": "string[]",
          "name": "_recordList",
          "type": "string[]"
        }
      ],
      "name": "setPatientDetails",
      "outputs": [],
      "stateMutability": "nonpayable",
      "type": "function"
    },
    {
      "inputs": [
        {
          "internalType": "address",
          "name": "doctorAddress",
          "type": "address"
        },
        {
          "internalType": "address",
          "name": "patientAddress",
          "type": "address"
        }
      ],
      "name": "addWhitelistedDoctor",
      "outputs": [],
      "stateMutability": "nonpayable",
      "type": "function"
    },
    {
      "inputs": [
        {
          "internalType": "address",
          "name": "doctorAddress",
          "type": "address"
        },
        {
          "internalType": "address",
          "name": "patientAddress",
          "type": "address"
        }
      ],
      "name": "removeWhitelistedDoctor",
      "outputs": [],
      "stateMutability": "nonpayable",
      "type": "function"
    },
    {
      "inputs": [
        {
          "internalType": "address",
          "name": "patientAddress",
          "type": "address"
        }
      ],
      "name": "getPatientDetails",
      "outputs": [
        {
          "components": [
            {
              "components": [
                {
                  "internalType": "address",
                  "name": "addr",
                  "type": "address"
                },
                {
                  "internalType": "string",
                  "name": "IC",
                  "type": "string"
                },
                {
                  "internalType": "string",
                  "name": "name",
                  "type": "string"
                },
                {
                  "internalType": "string",
                  "name": "gender",
                  "type": "string"
                },
                {
                  "internalType": "string",
                  "name": "birthdate",
                  "type": "string"
                },
                {
                  "internalType": "string",
                  "name": "email",
                  "type": "string"
                },
                {
                  "internalType": "string",
                  "name": "homeAddress",
                  "type": "string"
                },
                {
                  "internalType": "string",
                  "name": "phone",
                  "type": "string"
                },
                {
                  "internalType": "uint256",
                  "name": "userSince",
                  "type": "uint256"
                }
              ],
              "internalType": "struct MainContract.User",
              "name": "primaryInfo",
              "type": "tuple"
            },
            {
              "internalType": "string",
              "name": "emergencyContact",
              "type": "string"
            },
            {
              "internalType": "string",
              "name": "emergencyNumber",
              "type": "string"
            },
            {
              "internalType": "string",
              "name": "bloodType",
              "type": "string"
            },
            {
              "internalType": "string",
              "name": "height",
              "type": "string"
            },
            {
              "internalType": "string",
              "name": "weight",
              "type": "string"
            },
            {
              "internalType": "address[]",
              "name": "whitelistedDoctor",
              "type": "address[]"
            },
            {
              "internalType": "string[]",
              "name": "recordList",
              "type": "string[]"
            }
          ],
          "internalType": "struct MainContract.Patient",
          "name": "",
          "type": "tuple"
        }
      ],
      "stateMutability": "view",
      "type": "function",
      "constant": true
    },
    {
      "inputs": [
        {
          "components": [
            {
              "internalType": "address",
              "name": "addr",
              "type": "address"
            },
            {
              "internalType": "string",
              "name": "IC",
              "type": "string"
            },
            {
              "internalType": "string",
              "name": "name",
              "type": "string"
            },
            {
              "internalType": "string",
              "name": "gender",
              "type": "string"
            },
            {
              "internalType": "string",
              "name": "birthdate",
              "type": "string"
            },
            {
              "internalType": "string",
              "name": "email",
              "type": "string"
            },
            {
              "internalType": "string",
              "name": "homeAddress",
              "type": "string"
            },
            {
              "internalType": "string",
              "name": "phone",
              "type": "string"
            },
            {
              "internalType": "uint256",
              "name": "userSince",
              "type": "uint256"
            }
          ],
          "internalType": "struct MainContract.User",
          "name": "userInfo",
          "type": "tuple"
        },
        {
          "internalType": "string",
          "name": "_qualification",
          "type": "string"
        },
        {
          "internalType": "string",
          "name": "_major",
          "type": "string"
        }
      ],
      "name": "createDoctor",
      "outputs": [],
      "stateMutability": "nonpayable",
      "type": "function"
    },
    {
      "inputs": [
        {
          "components": [
            {
              "internalType": "address",
              "name": "addr",
              "type": "address"
            },
            {
              "internalType": "string",
              "name": "IC",
              "type": "string"
            },
            {
              "internalType": "string",
              "name": "name",
              "type": "string"
            },
            {
              "internalType": "string",
              "name": "gender",
              "type": "string"
            },
            {
              "internalType": "string",
              "name": "birthdate",
              "type": "string"
            },
            {
              "internalType": "string",
              "name": "email",
              "type": "string"
            },
            {
              "internalType": "string",
              "name": "homeAddress",
              "type": "string"
            },
            {
              "internalType": "string",
              "name": "phone",
              "type": "string"
            },
            {
              "internalType": "uint256",
              "name": "userSince",
              "type": "uint256"
            }
          ],
          "internalType": "struct MainContract.User",
          "name": "userInfo",
          "type": "tuple"
        },
        {
          "internalType": "string",
          "name": "_qualification",
          "type": "string"
        },
        {
          "internalType": "string",
          "name": "_major",
          "type": "string"
        }
      ],
      "name": "setDoctorDetails",
      "outputs": [],
      "stateMutability": "nonpayable",
      "type": "function"
    },
    {
      "inputs": [
        {
          "internalType": "address",
          "name": "doctorAddress",
          "type": "address"
        }
      ],
      "name": "getDoctorDetails",
      "outputs": [
        {
          "components": [
            {
              "components": [
                {
                  "internalType": "address",
                  "name": "addr",
                  "type": "address"
                },
                {
                  "internalType": "string",
                  "name": "IC",
                  "type": "string"
                },
                {
                  "internalType": "string",
                  "name": "name",
                  "type": "string"
                },
                {
                  "internalType": "string",
                  "name": "gender",
                  "type": "string"
                },
                {
                  "internalType": "string",
                  "name": "birthdate",
                  "type": "string"
                },
                {
                  "internalType": "string",
                  "name": "email",
                  "type": "string"
                },
                {
                  "internalType": "string",
                  "name": "homeAddress",
                  "type": "string"
                },
                {
                  "internalType": "string",
                  "name": "phone",
                  "type": "string"
                },
                {
                  "internalType": "uint256",
                  "name": "userSince",
                  "type": "uint256"
                }
              ],
              "internalType": "struct MainContract.User",
              "name": "primaryInfo",
              "type": "tuple"
            },
            {
              "internalType": "string",
              "name": "qualification",
              "type": "string"
            },
            {
              "internalType": "string",
              "name": "major",
              "type": "string"
            }
          ],
          "internalType": "struct MainContract.Doctor",
          "name": "",
          "type": "tuple"
        }
      ],
      "stateMutability": "view",
      "type": "function",
      "constant": true
    },
    {
      "inputs": [
        {
          "internalType": "string",
          "name": "_encryptedID",
          "type": "string"
        },
        {
          "internalType": "address",
          "name": "_patientAddr",
          "type": "address"
        }
      ],
      "name": "createRecord",
      "outputs": [],
      "stateMutability": "nonpayable",
      "type": "function"
    },
    {
      "inputs": [
        {
          "internalType": "string",
          "name": "_encryptedID",
          "type": "string"
        },
        {
          "internalType": "address",
          "name": "_patientAddress",
          "type": "address"
        }
      ],
      "name": "removeRecord",
      "outputs": [],
      "stateMutability": "nonpayable",
      "type": "function"
    }
  ],
  "bytecode": "0x608060405260008055600060015534801561001957600080fd5b50615236806100296000396000f3fe608060405234801561001057600080fd5b50600436106101005760003560e01c8063b6b8ba3611610097578063deb5ef0911610066578063deb5ef09146102ac578063e6224df4146102ca578063efe2ccc1146102fc578063f40339a41461032c57610100565b8063b6b8ba361461020f578063b715962c1461022b578063bab90dbd14610247578063da2e626f1461027757610100565b80636efb1b84116100d35780636efb1b841461017757806387927215146101a75780638e55966d146101c357806393119a83146101df57610100565b806305a73a39146101055780631bc7a79a146101215780634fce2b681461013d57806365b44d7e14610159575b600080fd5b61011f600480360381019061011a91906143fd565b610348565b005b61013b60048036038101906101369190614451565b6103c8565b005b610157600480360381019061015291906143c1565b61076d565b005b6101616108fb565b60405161016e9190614e1d565b60405180910390f35b610191600480360381019061018c919061465a565b610901565b60405161019e9190614c5d565b60405180910390f35b6101c160048036038101906101bc91906144e8565b610934565b005b6101dd60048036038101906101d891906143fd565b610f33565b005b6101f960048036038101906101f4919061465a565b6112d4565b6040516102069190614c5d565b60405180910390f35b610229600480360381019061022491906144e8565b611307565b005b61024560048036038101906102409190614451565b61191a565b005b610261600480360381019061025c9190614398565b611ca9565b60405161026e9190614d02565b60405180910390f35b610291600480360381019061028c9190614398565b612299565b6040516102a396959493929190614d92565b60405180910390f35b6102b46129e6565b6040516102c19190614e1d565b60405180910390f35b6102e460048036038101906102df9190614398565b6129ec565b6040516102f393929190614d46565b60405180910390f35b61031660048036038101906103119190614398565b612f8f565b6040516103239190614d24565b60405180910390f35b610346600480360381019061034191906143c1565b61389d565b005b600460008273ffffffffffffffffffffffffffffffffffffffff1673ffffffffffffffffffffffffffffffffffffffff168152602001908152602001600020600f01829080600181540180825580915050600190039060005260206000200160009091909190915090805190602001906103c3929190613d13565b505050565b600083600001519050600760008273ffffffffffffffffffffffffffffffffffffffff1673ffffffffffffffffffffffffffffffffffffffff16815260200190815260200160002060009054906101000a900460ff1661042757600080fd5b8360200151600560008373ffffffffffffffffffffffffffffffffffffffff1673ffffffffffffffffffffffffffffffffffffffff1681526020019081526020016000206000016001019080519060200190610484929190613d13565b508360400151600560008373ffffffffffffffffffffffffffffffffffffffff1673ffffffffffffffffffffffffffffffffffffffff16815260200190815260200160002060000160020190805190602001906104e2929190613d13565b508360600151600560008373ffffffffffffffffffffffffffffffffffffffff1673ffffffffffffffffffffffffffffffffffffffff1681526020019081526020016000206000016003019080519060200190610540929190613d13565b508360800151600560008373ffffffffffffffffffffffffffffffffffffffff1673ffffffffffffffffffffffffffffffffffffffff168152602001908152602001600020600001600401908051906020019061059e929190613d13565b508360a00151600560008373ffffffffffffffffffffffffffffffffffffffff1673ffffffffffffffffffffffffffffffffffffffff16815260200190815260200160002060000160050190805190602001906105fc929190613d13565b508360c00151600560008373ffffffffffffffffffffffffffffffffffffffff1673ffffffffffffffffffffffffffffffffffffffff168152602001908152602001600020600001600601908051906020019061065a929190613d13565b508360e00151600560008373ffffffffffffffffffffffffffffffffffffffff1673ffffffffffffffffffffffffffffffffffffffff16815260200190815260200160002060000160070190805190602001906106b8929190613d13565b5082600560008373ffffffffffffffffffffffffffffffffffffffff1673ffffffffffffffffffffffffffffffffffffffff168152602001908152602001600020600901908051906020019061070f929190613d13565b5081600560008373ffffffffffffffffffffffffffffffffffffffff1673ffffffffffffffffffffffffffffffffffffffff168152602001908152602001600020600a019080519060200190610766929190613d13565b5050505050565b600760008373ffffffffffffffffffffffffffffffffffffffff1673ffffffffffffffffffffffffffffffffffffffff16815260200190815260200160002060009054906101000a900460ff166107c357600080fd5b600660008273ffffffffffffffffffffffffffffffffffffffff1673ffffffffffffffffffffffffffffffffffffffff16815260200190815260200160002060009054906101000a900460ff1661081957600080fd5b600460008273ffffffffffffffffffffffffffffffffffffffff1673ffffffffffffffffffffffffffffffffffffffff168152602001908152602001600020600e01829080600181540180825580915050600190039060005260206000200160009091909190916101000a81548173ffffffffffffffffffffffffffffffffffffffff021916908373ffffffffffffffffffffffffffffffffffffffff1602179055507fa58fd95ad438335ebea70c43acd7ba96835900dab734d4444ebcd10b286c8bd18282426040516108ef93929190614c78565b60405180910390a15050565b60015481565b60036020528060005260406000206000915054906101000a900473ffffffffffffffffffffffffffffffffffffffff1681565b600088600001519050600660008a6000015173ffffffffffffffffffffffffffffffffffffffff1673ffffffffffffffffffffffffffffffffffffffff16815260200190815260200160002060009054906101000a900460ff161561099857600080fd5b6001600660008373ffffffffffffffffffffffffffffffffffffffff1673ffffffffffffffffffffffffffffffffffffffff16815260200190815260200160002060006101000a81548160ff0219169083151502179055506000896101000151905089600460008473ffffffffffffffffffffffffffffffffffffffff1673ffffffffffffffffffffffffffffffffffffffff16815260200190815260200160002060000160008201518160000160006101000a81548173ffffffffffffffffffffffffffffffffffffffff021916908373ffffffffffffffffffffffffffffffffffffffff1602179055506020820151816001019080519060200190610aa0929190613d13565b506040820151816002019080519060200190610abd929190613d13565b506060820151816003019080519060200190610ada929190613d13565b506080820151816004019080519060200190610af7929190613d13565b5060a0820151816005019080519060200190610b14929190613d13565b5060c0820151816006019080519060200190610b31929190613d13565b5060e0820151816007019080519060200190610b4e929190613d13565b50610100820151816008015590505088600460008473ffffffffffffffffffffffffffffffffffffffff1673ffffffffffffffffffffffffffffffffffffffff1681526020019081526020016000206009019080519060200190610bb3929190613d13565b5087600460008473ffffffffffffffffffffffffffffffffffffffff1673ffffffffffffffffffffffffffffffffffffffff168152602001908152602001600020600a019080519060200190610c0a929190613d13565b5086600460008473ffffffffffffffffffffffffffffffffffffffff1673ffffffffffffffffffffffffffffffffffffffff168152602001908152602001600020600b019080519060200190610c61929190613d13565b5085600460008473ffffffffffffffffffffffffffffffffffffffff1673ffffffffffffffffffffffffffffffffffffffff168152602001908152602001600020600c019080519060200190610cb8929190613d13565b5084600460008473ffffffffffffffffffffffffffffffffffffffff1673ffffffffffffffffffffffffffffffffffffffff168152602001908152602001600020600d019080519060200190610d0f929190613d13565b5060005b8451811015610dc55760076000868381518110610d59577f4e487b7100000000000000000000000000000000000000000000000000000000600052603260045260246000fd5b602002602001015173ffffffffffffffffffffffffffffffffffffffff1673ffffffffffffffffffffffffffffffffffffffff16815260200190815260200160002060009054906101000a900460ff16610db257600080fd5b8080610dbd906150ba565b915050610d13565b5083600460008473ffffffffffffffffffffffffffffffffffffffff1673ffffffffffffffffffffffffffffffffffffffff168152602001908152602001600020600e019080519060200190610e1c929190613d99565b5082600460008473ffffffffffffffffffffffffffffffffffffffff1673ffffffffffffffffffffffffffffffffffffffff168152602001908152602001600020600f019080519060200190610e73929190613e23565b50600080815480929190610e86906150ba565b919050555081600260008054815260200190815260200160002060006101000a81548173ffffffffffffffffffffffffffffffffffffffff021916908373ffffffffffffffffffffffffffffffffffffffff1602179055507f88a4b268a245c7e81b8962a18a5abe198a80bfa3d1ea8dd32a9e468ed97f265b8a600001518b604001518c6020015184604051610f1f9493929190614caf565b60405180910390a150505050505050505050565b600660008273ffffffffffffffffffffffffffffffffffffffff1673ffffffffffffffffffffffffffffffffffffffff16815260200190815260200160002060009054906101000a900460ff16610f8957600080fd5b60005b600460008373ffffffffffffffffffffffffffffffffffffffff1673ffffffffffffffffffffffffffffffffffffffff168152602001908152602001600020600f01805490508110156112cf5782604051602001610fea9190614c2f565b60405160208183030381529060405280519060200120600460008473ffffffffffffffffffffffffffffffffffffffff1673ffffffffffffffffffffffffffffffffffffffff168152602001908152602001600020600f01828154811061107a577f4e487b7100000000000000000000000000000000000000000000000000000000600052603260045260246000fd5b906000526020600020016040516020016110949190614c46565b6040516020818303038152906040528051906020012014156112bc57600460008373ffffffffffffffffffffffffffffffffffffffff1673ffffffffffffffffffffffffffffffffffffffff168152602001908152602001600020600f016001600460008573ffffffffffffffffffffffffffffffffffffffff1673ffffffffffffffffffffffffffffffffffffffff168152602001908152602001600020600f01805490506111449190614fa5565b8154811061117b577f4e487b7100000000000000000000000000000000000000000000000000000000600052603260045260246000fd5b90600052602060002001600460008473ffffffffffffffffffffffffffffffffffffffff1673ffffffffffffffffffffffffffffffffffffffff168152602001908152602001600020600f0182815481106111ff577f4e487b7100000000000000000000000000000000000000000000000000000000600052603260045260246000fd5b9060005260206000200190805461121590615057565b611220929190613e83565b50600460008373ffffffffffffffffffffffffffffffffffffffff1673ffffffffffffffffffffffffffffffffffffffff168152602001908152602001600020600f01805480611299577f4e487b7100000000000000000000000000000000000000000000000000000000600052603160045260246000fd5b6001900381819060005260206000200160006112b59190613f10565b90556112cf565b80806112c7906150ba565b915050610f8c565b505050565b60026020528060005260406000206000915054906101000a900473ffffffffffffffffffffffffffffffffffffffff1681565b600088600001519050600660008273ffffffffffffffffffffffffffffffffffffffff1673ffffffffffffffffffffffffffffffffffffffff16815260200190815260200160002060009054906101000a900460ff1661136657600080fd5b8860200151600460008373ffffffffffffffffffffffffffffffffffffffff1673ffffffffffffffffffffffffffffffffffffffff16815260200190815260200160002060000160010190805190602001906113c3929190613d13565b508860400151600460008373ffffffffffffffffffffffffffffffffffffffff1673ffffffffffffffffffffffffffffffffffffffff1681526020019081526020016000206000016002019080519060200190611421929190613d13565b508860600151600460008373ffffffffffffffffffffffffffffffffffffffff1673ffffffffffffffffffffffffffffffffffffffff168152602001908152602001600020600001600301908051906020019061147f929190613d13565b508860800151600460008373ffffffffffffffffffffffffffffffffffffffff1673ffffffffffffffffffffffffffffffffffffffff16815260200190815260200160002060000160040190805190602001906114dd929190613d13565b508860a00151600460008373ffffffffffffffffffffffffffffffffffffffff1673ffffffffffffffffffffffffffffffffffffffff168152602001908152602001600020600001600501908051906020019061153b929190613d13565b508860c00151600460008373ffffffffffffffffffffffffffffffffffffffff1673ffffffffffffffffffffffffffffffffffffffff1681526020019081526020016000206000016006019080519060200190611599929190613d13565b508860e00151600460008373ffffffffffffffffffffffffffffffffffffffff1673ffffffffffffffffffffffffffffffffffffffff16815260200190815260200160002060000160070190805190602001906115f7929190613d13565b5087600460008373ffffffffffffffffffffffffffffffffffffffff1673ffffffffffffffffffffffffffffffffffffffff168152602001908152602001600020600901908051906020019061164e929190613d13565b5086600460008373ffffffffffffffffffffffffffffffffffffffff1673ffffffffffffffffffffffffffffffffffffffff168152602001908152602001600020600a0190805190602001906116a5929190613d13565b5085600460008373ffffffffffffffffffffffffffffffffffffffff1673ffffffffffffffffffffffffffffffffffffffff168152602001908152602001600020600b0190805190602001906116fc929190613d13565b5084600460008373ffffffffffffffffffffffffffffffffffffffff1673ffffffffffffffffffffffffffffffffffffffff168152602001908152602001600020600c019080519060200190611753929190613d13565b5083600460008373ffffffffffffffffffffffffffffffffffffffff1673ffffffffffffffffffffffffffffffffffffffff168152602001908152602001600020600d0190805190602001906117aa929190613d13565b5060005b835181101561186057600760008583815181106117f4577f4e487b7100000000000000000000000000000000000000000000000000000000600052603260045260246000fd5b602002602001015173ffffffffffffffffffffffffffffffffffffffff1673ffffffffffffffffffffffffffffffffffffffff16815260200190815260200160002060009054906101000a900460ff1661184d57600080fd5b8080611858906150ba565b9150506117ae565b5082600460008373ffffffffffffffffffffffffffffffffffffffff1673ffffffffffffffffffffffffffffffffffffffff168152602001908152602001600020600e0190805190602001906118b7929190613d99565b5081600460008373ffffffffffffffffffffffffffffffffffffffff1673ffffffffffffffffffffffffffffffffffffffff168152602001908152602001600020600f01908051906020019061190e929190613e23565b50505050505050505050565b600083600001519050600760008273ffffffffffffffffffffffffffffffffffffffff1673ffffffffffffffffffffffffffffffffffffffff16815260200190815260200160002060009054906101000a900460ff161561197a57600080fd5b6001600760008373ffffffffffffffffffffffffffffffffffffffff1673ffffffffffffffffffffffffffffffffffffffff16815260200190815260200160002060006101000a81548160ff0219169083151502179055506000846101000151905084600560008473ffffffffffffffffffffffffffffffffffffffff1673ffffffffffffffffffffffffffffffffffffffff16815260200190815260200160002060000160008201518160000160006101000a81548173ffffffffffffffffffffffffffffffffffffffff021916908373ffffffffffffffffffffffffffffffffffffffff1602179055506020820151816001019080519060200190611a82929190613d13565b506040820151816002019080519060200190611a9f929190613d13565b506060820151816003019080519060200190611abc929190613d13565b506080820151816004019080519060200190611ad9929190613d13565b5060a0820151816005019080519060200190611af6929190613d13565b5060c0820151816006019080519060200190611b13929190613d13565b5060e0820151816007019080519060200190611b30929190613d13565b50610100820151816008015590505083600560008473ffffffffffffffffffffffffffffffffffffffff1673ffffffffffffffffffffffffffffffffffffffff1681526020019081526020016000206009019080519060200190611b95929190613d13565b5082600560008473ffffffffffffffffffffffffffffffffffffffff1673ffffffffffffffffffffffffffffffffffffffff168152602001908152602001600020600a019080519060200190611bec929190613d13565b5060016000815480929190611c00906150ba565b91905055508160036000600154815260200190815260200160002060006101000a81548173ffffffffffffffffffffffffffffffffffffffff021916908373ffffffffffffffffffffffffffffffffffffffff1602179055507f87c5c024b616aed507b1cd9756c0594f4efc94d637550067d61b2293d03a6ea985600001518660400151876020015184604051611c9a9493929190614caf565b60405180910390a15050505050565b611cb1613f50565b600560008373ffffffffffffffffffffffffffffffffffffffff1673ffffffffffffffffffffffffffffffffffffffff16815260200190815260200160002060405180606001604052908160008201604051806101200160405290816000820160009054906101000a900473ffffffffffffffffffffffffffffffffffffffff1673ffffffffffffffffffffffffffffffffffffffff1673ffffffffffffffffffffffffffffffffffffffff168152602001600182018054611d7290615057565b80601f0160208091040260200160405190810160405280929190818152602001828054611d9e90615057565b8015611deb5780601f10611dc057610100808354040283529160200191611deb565b820191906000526020600020905b815481529060010190602001808311611dce57829003601f168201915b50505050508152602001600282018054611e0490615057565b80601f0160208091040260200160405190810160405280929190818152602001828054611e3090615057565b8015611e7d5780601f10611e5257610100808354040283529160200191611e7d565b820191906000526020600020905b815481529060010190602001808311611e6057829003601f168201915b50505050508152602001600382018054611e9690615057565b80601f0160208091040260200160405190810160405280929190818152602001828054611ec290615057565b8015611f0f5780601f10611ee457610100808354040283529160200191611f0f565b820191906000526020600020905b815481529060010190602001808311611ef257829003601f168201915b50505050508152602001600482018054611f2890615057565b80601f0160208091040260200160405190810160405280929190818152602001828054611f5490615057565b8015611fa15780601f10611f7657610100808354040283529160200191611fa1565b820191906000526020600020905b815481529060010190602001808311611f8457829003601f168201915b50505050508152602001600582018054611fba90615057565b80601f0160208091040260200160405190810160405280929190818152602001828054611fe690615057565b80156120335780601f1061200857610100808354040283529160200191612033565b820191906000526020600020905b81548152906001019060200180831161201657829003601f168201915b5050505050815260200160068201805461204c90615057565b80601f016020809104026020016040519081016040528092919081815260200182805461207890615057565b80156120c55780601f1061209a576101008083540402835291602001916120c5565b820191906000526020600020905b8154815290600101906020018083116120a857829003601f168201915b505050505081526020016007820180546120de90615057565b80601f016020809104026020016040519081016040528092919081815260200182805461210a90615057565b80156121575780601f1061212c57610100808354040283529160200191612157565b820191906000526020600020905b81548152906001019060200180831161213a57829003601f168201915b50505050508152602001600882015481525050815260200160098201805461217e90615057565b80601f01602080910402602001604051908101604052809291908181526020018280546121aa90615057565b80156121f75780601f106121cc576101008083540402835291602001916121f7565b820191906000526020600020905b8154815290600101906020018083116121da57829003601f168201915b50505050508152602001600a8201805461221090615057565b80601f016020809104026020016040519081016040528092919081815260200182805461223c90615057565b80156122895780601f1061225e57610100808354040283529160200191612289565b820191906000526020600020905b81548152906001019060200180831161226c57829003601f168201915b5050505050815250509050919050565b600460205280600052604060002060009150905080600001604051806101200160405290816000820160009054906101000a900473ffffffffffffffffffffffffffffffffffffffff1673ffffffffffffffffffffffffffffffffffffffff1673ffffffffffffffffffffffffffffffffffffffff16815260200160018201805461232390615057565b80601f016020809104026020016040519081016040528092919081815260200182805461234f90615057565b801561239c5780601f106123715761010080835404028352916020019161239c565b820191906000526020600020905b81548152906001019060200180831161237f57829003601f168201915b505050505081526020016002820180546123b590615057565b80601f01602080910402602001604051908101604052809291908181526020018280546123e190615057565b801561242e5780601f106124035761010080835404028352916020019161242e565b820191906000526020600020905b81548152906001019060200180831161241157829003601f168201915b5050505050815260200160038201805461244790615057565b80601f016020809104026020016040519081016040528092919081815260200182805461247390615057565b80156124c05780601f10612495576101008083540402835291602001916124c0565b820191906000526020600020905b8154815290600101906020018083116124a357829003601f168201915b505050505081526020016004820180546124d990615057565b80601f016020809104026020016040519081016040528092919081815260200182805461250590615057565b80156125525780601f1061252757610100808354040283529160200191612552565b820191906000526020600020905b81548152906001019060200180831161253557829003601f168201915b5050505050815260200160058201805461256b90615057565b80601f016020809104026020016040519081016040528092919081815260200182805461259790615057565b80156125e45780601f106125b9576101008083540402835291602001916125e4565b820191906000526020600020905b8154815290600101906020018083116125c757829003601f168201915b505050505081526020016006820180546125fd90615057565b80601f016020809104026020016040519081016040528092919081815260200182805461262990615057565b80156126765780601f1061264b57610100808354040283529160200191612676565b820191906000526020600020905b81548152906001019060200180831161265957829003601f168201915b5050505050815260200160078201805461268f90615057565b80601f01602080910402602001604051908101604052809291908181526020018280546126bb90615057565b80156127085780601f106126dd57610100808354040283529160200191612708565b820191906000526020600020905b8154815290600101906020018083116126eb57829003601f168201915b505050505081526020016008820154815250509080600901805461272b90615057565b80601f016020809104026020016040519081016040528092919081815260200182805461275790615057565b80156127a45780601f10612779576101008083540402835291602001916127a4565b820191906000526020600020905b81548152906001019060200180831161278757829003601f168201915b50505050509080600a0180546127b990615057565b80601f01602080910402602001604051908101604052809291908181526020018280546127e590615057565b80156128325780601f1061280757610100808354040283529160200191612832565b820191906000526020600020905b81548152906001019060200180831161281557829003601f168201915b50505050509080600b01805461284790615057565b80601f016020809104026020016040519081016040528092919081815260200182805461287390615057565b80156128c05780601f10612895576101008083540402835291602001916128c0565b820191906000526020600020905b8154815290600101906020018083116128a357829003601f168201915b50505050509080600c0180546128d590615057565b80601f016020809104026020016040519081016040528092919081815260200182805461290190615057565b801561294e5780601f106129235761010080835404028352916020019161294e565b820191906000526020600020905b81548152906001019060200180831161293157829003601f168201915b50505050509080600d01805461296390615057565b80601f016020809104026020016040519081016040528092919081815260200182805461298f90615057565b80156129dc5780601f106129b1576101008083540402835291602001916129dc565b820191906000526020600020905b8154815290600101906020018083116129bf57829003601f168201915b5050505050905086565b60005481565b600560205280600052604060002060009150905080600001604051806101200160405290816000820160009054906101000a900473ffffffffffffffffffffffffffffffffffffffff1673ffffffffffffffffffffffffffffffffffffffff1673ffffffffffffffffffffffffffffffffffffffff168152602001600182018054612a7690615057565b80601f0160208091040260200160405190810160405280929190818152602001828054612aa290615057565b8015612aef5780601f10612ac457610100808354040283529160200191612aef565b820191906000526020600020905b815481529060010190602001808311612ad257829003601f168201915b50505050508152602001600282018054612b0890615057565b80601f0160208091040260200160405190810160405280929190818152602001828054612b3490615057565b8015612b815780601f10612b5657610100808354040283529160200191612b81565b820191906000526020600020905b815481529060010190602001808311612b6457829003601f168201915b50505050508152602001600382018054612b9a90615057565b80601f0160208091040260200160405190810160405280929190818152602001828054612bc690615057565b8015612c135780601f10612be857610100808354040283529160200191612c13565b820191906000526020600020905b815481529060010190602001808311612bf657829003601f168201915b50505050508152602001600482018054612c2c90615057565b80601f0160208091040260200160405190810160405280929190818152602001828054612c5890615057565b8015612ca55780601f10612c7a57610100808354040283529160200191612ca5565b820191906000526020600020905b815481529060010190602001808311612c8857829003601f168201915b50505050508152602001600582018054612cbe90615057565b80601f0160208091040260200160405190810160405280929190818152602001828054612cea90615057565b8015612d375780601f10612d0c57610100808354040283529160200191612d37565b820191906000526020600020905b815481529060010190602001808311612d1a57829003601f168201915b50505050508152602001600682018054612d5090615057565b80601f0160208091040260200160405190810160405280929190818152602001828054612d7c90615057565b8015612dc95780601f10612d9e57610100808354040283529160200191612dc9565b820191906000526020600020905b815481529060010190602001808311612dac57829003601f168201915b50505050508152602001600782018054612de290615057565b80601f0160208091040260200160405190810160405280929190818152602001828054612e0e90615057565b8015612e5b5780601f10612e3057610100808354040283529160200191612e5b565b820191906000526020600020905b815481529060010190602001808311612e3e57829003601f168201915b5050505050815260200160088201548152505090806009018054612e7e90615057565b80601f0160208091040260200160405190810160405280929190818152602001828054612eaa90615057565b8015612ef75780601f10612ecc57610100808354040283529160200191612ef7565b820191906000526020600020905b815481529060010190602001808311612eda57829003601f168201915b50505050509080600a018054612f0c90615057565b80601f0160208091040260200160405190810160405280929190818152602001828054612f3890615057565b8015612f855780601f10612f5a57610100808354040283529160200191612f85565b820191906000526020600020905b815481529060010190602001808311612f6857829003601f168201915b5050505050905083565b612f97613f77565b600460008373ffffffffffffffffffffffffffffffffffffffff1673ffffffffffffffffffffffffffffffffffffffff1681526020019081526020016000206040518061010001604052908160008201604051806101200160405290816000820160009054906101000a900473ffffffffffffffffffffffffffffffffffffffff1673ffffffffffffffffffffffffffffffffffffffff1673ffffffffffffffffffffffffffffffffffffffff16815260200160018201805461305990615057565b80601f016020809104026020016040519081016040528092919081815260200182805461308590615057565b80156130d25780601f106130a7576101008083540402835291602001916130d2565b820191906000526020600020905b8154815290600101906020018083116130b557829003601f168201915b505050505081526020016002820180546130eb90615057565b80601f016020809104026020016040519081016040528092919081815260200182805461311790615057565b80156131645780601f1061313957610100808354040283529160200191613164565b820191906000526020600020905b81548152906001019060200180831161314757829003601f168201915b5050505050815260200160038201805461317d90615057565b80601f01602080910402602001604051908101604052809291908181526020018280546131a990615057565b80156131f65780601f106131cb576101008083540402835291602001916131f6565b820191906000526020600020905b8154815290600101906020018083116131d957829003601f168201915b5050505050815260200160048201805461320f90615057565b80601f016020809104026020016040519081016040528092919081815260200182805461323b90615057565b80156132885780601f1061325d57610100808354040283529160200191613288565b820191906000526020600020905b81548152906001019060200180831161326b57829003601f168201915b505050505081526020016005820180546132a190615057565b80601f01602080910402602001604051908101604052809291908181526020018280546132cd90615057565b801561331a5780601f106132ef5761010080835404028352916020019161331a565b820191906000526020600020905b8154815290600101906020018083116132fd57829003601f168201915b5050505050815260200160068201805461333390615057565b80601f016020809104026020016040519081016040528092919081815260200182805461335f90615057565b80156133ac5780601f10613381576101008083540402835291602001916133ac565b820191906000526020600020905b81548152906001019060200180831161338f57829003601f168201915b505050505081526020016007820180546133c590615057565b80601f01602080910402602001604051908101604052809291908181526020018280546133f190615057565b801561343e5780601f106134135761010080835404028352916020019161343e565b820191906000526020600020905b81548152906001019060200180831161342157829003601f168201915b50505050508152602001600882015481525050815260200160098201805461346590615057565b80601f016020809104026020016040519081016040528092919081815260200182805461349190615057565b80156134de5780601f106134b3576101008083540402835291602001916134de565b820191906000526020600020905b8154815290600101906020018083116134c157829003601f168201915b50505050508152602001600a820180546134f790615057565b80601f016020809104026020016040519081016040528092919081815260200182805461352390615057565b80156135705780601f1061354557610100808354040283529160200191613570565b820191906000526020600020905b81548152906001019060200180831161355357829003601f168201915b50505050508152602001600b8201805461358990615057565b80601f01602080910402602001604051908101604052809291908181526020018280546135b590615057565b80156136025780601f106135d757610100808354040283529160200191613602565b820191906000526020600020905b8154815290600101906020018083116135e557829003601f168201915b50505050508152602001600c8201805461361b90615057565b80601f016020809104026020016040519081016040528092919081815260200182805461364790615057565b80156136945780601f1061366957610100808354040283529160200191613694565b820191906000526020600020905b81548152906001019060200180831161367757829003601f168201915b50505050508152602001600d820180546136ad90615057565b80601f01602080910402602001604051908101604052809291908181526020018280546136d990615057565b80156137265780601f106136fb57610100808354040283529160200191613726565b820191906000526020600020905b81548152906001019060200180831161370957829003601f168201915b50505050508152602001600e82018054806020026020016040519081016040528092919081815260200182805480156137b457602002820191906000526020600020905b8160009054906101000a900473ffffffffffffffffffffffffffffffffffffffff1673ffffffffffffffffffffffffffffffffffffffff168152602001906001019080831161376a575b50505050508152602001600f8201805480602002602001604051908101604052809291908181526020016000905b8282101561388e57838290600052602060002001805461380190615057565b80601f016020809104026020016040519081016040528092919081815260200182805461382d90615057565b801561387a5780601f1061384f5761010080835404028352916020019161387a565b820191906000526020600020905b81548152906001019060200180831161385d57829003601f168201915b5050505050815260200190600101906137e2565b50505050815250509050919050565b600760008373ffffffffffffffffffffffffffffffffffffffff1673ffffffffffffffffffffffffffffffffffffffff16815260200190815260200160002060009054906101000a900460ff166138f357600080fd5b600660008273ffffffffffffffffffffffffffffffffffffffff1673ffffffffffffffffffffffffffffffffffffffff16815260200190815260200160002060009054906101000a900460ff1661394957600080fd5b60005b600460008373ffffffffffffffffffffffffffffffffffffffff1673ffffffffffffffffffffffffffffffffffffffff168152602001908152602001600020600e0180549050811015613d0e57826040516020016139aa9190614c14565b60405160208183030381529060405280519060200120600460008473ffffffffffffffffffffffffffffffffffffffff1673ffffffffffffffffffffffffffffffffffffffff168152602001908152602001600020600e018281548110613a3a577f4e487b7100000000000000000000000000000000000000000000000000000000600052603260045260246000fd5b9060005260206000200160009054906101000a900473ffffffffffffffffffffffffffffffffffffffff16604051602001613a759190614c14565b604051602081830303815290604052805190602001201415613cfb57600460008373ffffffffffffffffffffffffffffffffffffffff1673ffffffffffffffffffffffffffffffffffffffff168152602001908152602001600020600e016001600460008573ffffffffffffffffffffffffffffffffffffffff1673ffffffffffffffffffffffffffffffffffffffff168152602001908152602001600020600e0180549050613b259190614fa5565b81548110613b5c577f4e487b7100000000000000000000000000000000000000000000000000000000600052603260045260246000fd5b9060005260206000200160009054906101000a900473ffffffffffffffffffffffffffffffffffffffff16600460008473ffffffffffffffffffffffffffffffffffffffff1673ffffffffffffffffffffffffffffffffffffffff168152602001908152602001600020600e018281548110613c01577f4e487b7100000000000000000000000000000000000000000000000000000000600052603260045260246000fd5b9060005260206000200160006101000a81548173ffffffffffffffffffffffffffffffffffffffff021916908373ffffffffffffffffffffffffffffffffffffffff160217905550600460008373ffffffffffffffffffffffffffffffffffffffff1673ffffffffffffffffffffffffffffffffffffffff168152602001908152602001600020600e01805480613cc1577f4e487b7100000000000000000000000000000000000000000000000000000000600052603160045260246000fd5b6001900381819060005260206000200160006101000a81549073ffffffffffffffffffffffffffffffffffffffff02191690559055613d0e565b8080613d06906150ba565b91505061394c565b505050565b828054613d1f90615057565b90600052602060002090601f016020900481019282613d415760008555613d88565b82601f10613d5a57805160ff1916838001178555613d88565b82800160010185558215613d88579182015b82811115613d87578251825591602001919060010190613d6c565b5b509050613d959190613fc2565b5090565b828054828255906000526020600020908101928215613e12579160200282015b82811115613e115782518260006101000a81548173ffffffffffffffffffffffffffffffffffffffff021916908373ffffffffffffffffffffffffffffffffffffffff16021790555091602001919060010190613db9565b5b509050613e1f9190613fc2565b5090565b828054828255906000526020600020908101928215613e72579160200282015b82811115613e71578251829080519060200190613e61929190613d13565b5091602001919060010190613e43565b5b509050613e7f9190613fdf565b5090565b828054613e8f90615057565b90600052602060002090601f016020900481019282613eb15760008555613eff565b82601f10613ec25780548555613eff565b82800160010185558215613eff57600052602060002091601f016020900482015b82811115613efe578254825591600101919060010190613ee3565b5b509050613f0c9190613fc2565b5090565b508054613f1c90615057565b6000825580601f10613f2e5750613f4d565b601f016020900490600052602060002090810190613f4c9190613fc2565b5b50565b6040518060600160405280613f63614003565b815260200160608152602001606081525090565b604051806101000160405280613f8b614003565b8152602001606081526020016060815260200160608152602001606081526020016060815260200160608152602001606081525090565b5b80821115613fdb576000816000905550600101613fc3565b5090565b5b80821115613fff5760008181613ff69190613f10565b50600101613fe0565b5090565b604051806101200160405280600073ffffffffffffffffffffffffffffffffffffffff16815260200160608152602001606081526020016060815260200160608152602001606081526020016060815260200160608152602001600081525090565b600061407861407384614e5d565b614e38565b9050808382526020820190508285602086028201111561409757600080fd5b60005b858110156140c757816140ad888261416c565b84526020840193506020830192505060018101905061409a565b5050509392505050565b60006140e46140df84614e89565b614e38565b9050808382526020820190508260005b85811015614124578135850161410a88826141d5565b8452602084019350602083019250506001810190506140f4565b5050509392505050565b600061414161413c84614eb5565b614e38565b90508281526020810184848401111561415957600080fd5b614164848285615015565b509392505050565b60008135905061417b816151d2565b92915050565b600082601f83011261419257600080fd5b81356141a2848260208601614065565b91505092915050565b600082601f8301126141bc57600080fd5b81356141cc8482602086016140d1565b91505092915050565b600082601f8301126141e657600080fd5b81356141f684826020860161412e565b91505092915050565b6000610120828403121561421257600080fd5b61421d610120614e38565b9050600061422d8482850161416c565b600083015250602082013567ffffffffffffffff81111561424d57600080fd5b614259848285016141d5565b602083015250604082013567ffffffffffffffff81111561427957600080fd5b614285848285016141d5565b604083015250606082013567ffffffffffffffff8111156142a557600080fd5b6142b1848285016141d5565b606083015250608082013567ffffffffffffffff8111156142d157600080fd5b6142dd848285016141d5565b60808301525060a082013567ffffffffffffffff8111156142fd57600080fd5b614309848285016141d5565b60a08301525060c082013567ffffffffffffffff81111561432957600080fd5b614335848285016141d5565b60c08301525060e082013567ffffffffffffffff81111561435557600080fd5b614361848285016141d5565b60e08301525061010061437684828501614383565b6101008301525092915050565b600081359050614392816151e9565b92915050565b6000602082840312156143aa57600080fd5b60006143b88482850161416c565b91505092915050565b600080604083850312156143d457600080fd5b60006143e28582860161416c565b92505060206143f38582860161416c565b9150509250929050565b6000806040838503121561441057600080fd5b600083013567ffffffffffffffff81111561442a57600080fd5b614436858286016141d5565b92505060206144478582860161416c565b9150509250929050565b60008060006060848603121561446657600080fd5b600084013567ffffffffffffffff81111561448057600080fd5b61448c868287016141ff565b935050602084013567ffffffffffffffff8111156144a957600080fd5b6144b5868287016141d5565b925050604084013567ffffffffffffffff8111156144d257600080fd5b6144de868287016141d5565b9150509250925092565b600080600080600080600080610100898b03121561450557600080fd5b600089013567ffffffffffffffff81111561451f57600080fd5b61452b8b828c016141ff565b985050602089013567ffffffffffffffff81111561454857600080fd5b6145548b828c016141d5565b975050604089013567ffffffffffffffff81111561457157600080fd5b61457d8b828c016141d5565b965050606089013567ffffffffffffffff81111561459a57600080fd5b6145a68b828c016141d5565b955050608089013567ffffffffffffffff8111156145c357600080fd5b6145cf8b828c016141d5565b94505060a089013567ffffffffffffffff8111156145ec57600080fd5b6145f88b828c016141d5565b93505060c089013567ffffffffffffffff81111561461557600080fd5b6146218b828c01614181565b92505060e089013567ffffffffffffffff81111561463e57600080fd5b61464a8b828c016141ab565b9150509295985092959890939650565b60006020828403121561466c57600080fd5b600061467a84828501614383565b91505092915050565b600061468f83836146af565b60208301905092915050565b60006146a783836147b7565b905092915050565b6146b881614fd9565b82525050565b6146c781614fd9565b82525050565b6146de6146d982614fd9565b615103565b82525050565b60006146ef82614f1b565b6146f98185614f56565b935061470483614ee6565b8060005b8381101561473557815161471c8882614683565b975061472783614f3c565b925050600181019050614708565b5085935050505092915050565b600061474d82614f26565b6147578185614f67565b93508360208202850161476985614ef6565b8060005b858110156147a55784840389528151614786858261469b565b945061479183614f49565b925060208a0199505060018101905061476d565b50829750879550505050505092915050565b60006147c282614f31565b6147cc8185614f78565b93506147dc818560208601615024565b6147e5816151b4565b840191505092915050565b60006147fb82614f31565b6148058185614f89565b9350614815818560208601615024565b61481e816151b4565b840191505092915050565b600061483482614f31565b61483e8185614f9a565b935061484e818560208601615024565b80840191505092915050565b6000815461486781615057565b6148718186614f9a565b9450600182166000811461488c576001811461489d576148d0565b60ff198316865281860193506148d0565b6148a685614f06565b60005b838110156148c8578154818901526001820191506020810190506148a9565b838801955050505b50505092915050565b600060608301600083015184820360008601526148f68282614a18565b9150506020830151848203602086015261491082826147b7565b9150506040830151848203604086015261492a82826147b7565b9150508091505092915050565b60006101008301600083015184820360008601526149558282614a18565b9150506020830151848203602086015261496f82826147b7565b9150506040830151848203604086015261498982826147b7565b915050606083015184820360608601526149a382826147b7565b915050608083015184820360808601526149bd82826147b7565b91505060a083015184820360a08601526149d782826147b7565b91505060c083015184820360c08601526149f182826146e4565b91505060e083015184820360e0860152614a0b8282614742565b9150508091505092915050565b600061012083016000830151614a3160008601826146af565b5060208301518482036020860152614a4982826147b7565b91505060408301518482036040860152614a6382826147b7565b91505060608301518482036060860152614a7d82826147b7565b91505060808301518482036080860152614a9782826147b7565b91505060a083015184820360a0860152614ab182826147b7565b91505060c083015184820360c0860152614acb82826147b7565b91505060e083015184820360e0860152614ae582826147b7565b915050610100830151614afc610100860182614bf6565b508091505092915050565b600061012083016000830151614b2060008601826146af565b5060208301518482036020860152614b3882826147b7565b91505060408301518482036040860152614b5282826147b7565b91505060608301518482036060860152614b6c82826147b7565b91505060808301518482036080860152614b8682826147b7565b91505060a083015184820360a0860152614ba082826147b7565b91505060c083015184820360c0860152614bba82826147b7565b91505060e083015184820360e0860152614bd482826147b7565b915050610100830151614beb610100860182614bf6565b508091505092915050565b614bff8161500b565b82525050565b614c0e8161500b565b82525050565b6000614c2082846146cd565b60148201915081905092915050565b6000614c3b8284614829565b915081905092915050565b6000614c52828461485a565b915081905092915050565b6000602082019050614c7260008301846146be565b92915050565b6000606082019050614c8d60008301866146be565b614c9a60208301856146be565b614ca76040830184614c05565b949350505050565b6000608082019050614cc460008301876146be565b8181036020830152614cd681866147f0565b90508181036040830152614cea81856147f0565b9050614cf96060830184614c05565b95945050505050565b60006020820190508181036000830152614d1c81846148d9565b905092915050565b60006020820190508181036000830152614d3e8184614937565b905092915050565b60006060820190508181036000830152614d608186614b07565b90508181036020830152614d7481856147f0565b90508181036040830152614d8881846147f0565b9050949350505050565b600060c0820190508181036000830152614dac8189614b07565b90508181036020830152614dc081886147f0565b90508181036040830152614dd481876147f0565b90508181036060830152614de881866147f0565b90508181036080830152614dfc81856147f0565b905081810360a0830152614e1081846147f0565b9050979650505050505050565b6000602082019050614e326000830184614c05565b92915050565b6000614e42614e53565b9050614e4e8282615089565b919050565b6000604051905090565b600067ffffffffffffffff821115614e7857614e77615185565b5b602082029050602081019050919050565b600067ffffffffffffffff821115614ea457614ea3615185565b5b602082029050602081019050919050565b600067ffffffffffffffff821115614ed057614ecf615185565b5b614ed9826151b4565b9050602081019050919050565b6000819050602082019050919050565b6000819050602082019050919050565b60008190508160005260206000209050919050565b600081519050919050565b600081519050919050565b600081519050919050565b6000602082019050919050565b6000602082019050919050565b600082825260208201905092915050565b600082825260208201905092915050565b600082825260208201905092915050565b600082825260208201905092915050565b600081905092915050565b6000614fb08261500b565b9150614fbb8361500b565b925082821015614fce57614fcd615127565b5b828203905092915050565b6000614fe482614feb565b9050919050565b600073ffffffffffffffffffffffffffffffffffffffff82169050919050565b6000819050919050565b82818337600083830152505050565b60005b83811015615042578082015181840152602081019050615027565b83811115615051576000848401525b50505050565b6000600282049050600182168061506f57607f821691505b6020821081141561508357615082615156565b5b50919050565b615092826151b4565b810181811067ffffffffffffffff821117156150b1576150b0615185565b5b80604052505050565b60006150c58261500b565b91507fffffffffffffffffffffffffffffffffffffffffffffffffffffffffffffffff8214156150f8576150f7615127565b5b600182019050919050565b600061510e82615115565b9050919050565b6000615120826151c5565b9050919050565b7f4e487b7100000000000000000000000000000000000000000000000000000000600052601160045260246000fd5b7f4e487b7100000000000000000000000000000000000000000000000000000000600052602260045260246000fd5b7f4e487b7100000000000000000000000000000000000000000000000000000000600052604160045260246000fd5b6000601f19601f8301169050919050565b60008160601b9050919050565b6151db81614fd9565b81146151e657600080fd5b50565b6151f28161500b565b81146151fd57600080fd5b5056fea26469706673582212206bab6eb8c1fbd2ec2f060f646fae066c3feda1fb407d6075cc6b25c6f39c4c6064736f6c63430008020033",
  "immutableReferences": {},
  "source": "// SPDX-License-Identifier: MIT\npragma solidity 0.8.2;\npragma experimental ABIEncoderV2;\n\ncontract MainContract {\n    struct User {\n        address addr;\n        string IC;\n        string name;\n        string gender;\n        string birthdate;\n        string email;\n        string homeAddress;\n        string phone;\n        uint userSince;\n    }\n\n    struct Doctor {\n        User primaryInfo;\n        string qualification;\n        string major;\n    }\n\n    // enum RecordStatus {\n    //     PENDING,\n    //     COMPLETED,\n    //     DECLINED\n    // }\n\n    // struct Record {\n    //     string encryptedID;\n    //     string dataHash;\n    //     address issuerDoctorAddr;\n    //     address patientAddr;\n    //     uint timestamp;\n    //     RecordStatus recordStatus;\n    // }\n\n    struct Patient {\n        User primaryInfo;\n        string emergencyContact;\n        string emergencyNumber;\n        string bloodType;\n        string height;\n        string weight;\n        address[] whitelistedDoctor;\n        string[] recordList;\n    }\n\n    uint public totalPatients = 0;\n    uint public totalDoctors = 0;\n    mapping(uint => address) public patients;\n    mapping(uint => address) public doctors;\n    mapping(address => Patient) public patientList;\n    mapping(address => Doctor) public doctorList;\n    // mapping(string => Record) public recordList;\n    mapping(address => bool) isPatient;\n    mapping(address => bool) isDoctor;\n\n    event PatientCreated(\n        address patientAddr,\n        string patientName,\n        string patientIC,\n        uint timestamp\n    );\n\n    event DoctorCreated(\n        address doctorAddr,\n        string doctorName,\n        string doctorIC,\n        uint timestamp\n    );\n\n    event WhitelistDoctor(\n        address patientAddr,\n        address doctorAddr,\n        uint timestamp\n    );\n\n    // event RecordCreated(\n    //     string encryptedID,\n    //     string dataHash,\n    //     address issuerDoctorAddr,\n    //     uint timestamp,\n    //     RecordStatus recordStatus,\n    //     address patientAddr\n    // );\n\n    function createPatient(\n        User memory userInfo,\n        string memory _emergencyContact,\n        string memory _emergencyNumber,\n        string memory _bloodType,\n        string memory _height,\n        string memory _weight,\n        address[] memory _whitelistedDoctor,\n        string[] memory _recordList\n    ) public {\n        address patientAddress = userInfo.addr;\n\n        require(!isPatient[userInfo.addr]);\n        isPatient[patientAddress] = true;\n\n        uint timestamp = userInfo.userSince;\n        patientList[patientAddress].primaryInfo = userInfo;\n        patientList[patientAddress].emergencyContact = _emergencyContact;\n        patientList[patientAddress].emergencyNumber = _emergencyNumber;\n        patientList[patientAddress].bloodType = _bloodType;\n        patientList[patientAddress].height = _height;\n        patientList[patientAddress].weight = _weight;\n\n        // address[] memory whitelistedDoctor;\n        for (uint i = 0; i < _whitelistedDoctor.length; i++) {\n            require(isDoctor[_whitelistedDoctor[i]]);\n        }\n        patientList[patientAddress].whitelistedDoctor = _whitelistedDoctor;\n        patientList[patientAddress].recordList = _recordList;\n\n        totalPatients++;\n\n        patients[totalPatients] = patientAddress;\n\n        emit PatientCreated(\n            userInfo.addr,\n            userInfo.name,\n            userInfo.IC,\n            timestamp\n        );\n    }\n\n    function setPatientDetails(\n        User memory userInfo,\n        string memory _emergencyContact,\n        string memory _emergencyNumber,\n        string memory _bloodType,\n        string memory _height,\n        string memory _weight,\n        address[] memory _whitelistedDoctor,\n        string[] memory _recordList\n    ) public {\n        address patientAddress = userInfo.addr;\n        require(isPatient[patientAddress]);\n        // Update all except address & userSince\n        patientList[patientAddress].primaryInfo.IC = userInfo.IC;\n        patientList[patientAddress].primaryInfo.name = userInfo.name;\n        patientList[patientAddress].primaryInfo.gender = userInfo.gender;\n        patientList[patientAddress].primaryInfo.birthdate = userInfo.birthdate;\n        patientList[patientAddress].primaryInfo.email = userInfo.email;\n        patientList[patientAddress].primaryInfo.homeAddress = userInfo\n            .homeAddress;\n        patientList[patientAddress].primaryInfo.phone = userInfo.phone;\n\n        patientList[patientAddress].emergencyContact = _emergencyContact;\n        patientList[patientAddress].emergencyNumber = _emergencyNumber;\n        patientList[patientAddress].bloodType = _bloodType;\n        patientList[patientAddress].height = _height;\n        patientList[patientAddress].weight = _weight;\n\n        // address[] memory whitelistedDoctor;\n        for (uint i = 0; i < _whitelistedDoctor.length; i++) {\n            require(isDoctor[_whitelistedDoctor[i]]);\n        }\n        patientList[patientAddress].whitelistedDoctor = _whitelistedDoctor;\n        patientList[patientAddress].recordList = _recordList;\n    }\n\n    function addWhitelistedDoctor(\n        address doctorAddress,\n        address patientAddress\n    ) public {\n        require(isDoctor[doctorAddress]);\n        require(isPatient[patientAddress]);\n        patientList[patientAddress].whitelistedDoctor.push(doctorAddress);\n\n        emit WhitelistDoctor(doctorAddress, patientAddress, block.timestamp);\n    }\n\n    function removeWhitelistedDoctor(\n        address doctorAddress,\n        address patientAddress\n    ) public {\n        require(isDoctor[doctorAddress]);\n        require(isPatient[patientAddress]);\n\n        for (\n            uint i = 0;\n            i < patientList[patientAddress].whitelistedDoctor.length;\n            i++\n        ) {\n            if (\n                keccak256(\n                    abi.encodePacked(\n                        patientList[patientAddress].whitelistedDoctor[i]\n                    )\n                ) == keccak256(abi.encodePacked(doctorAddress))\n            ) {\n                patientList[patientAddress].whitelistedDoctor[i] = patientList[\n                    patientAddress\n                ].whitelistedDoctor[\n                        patientList[patientAddress].whitelistedDoctor.length - 1\n                    ];\n                patientList[patientAddress].whitelistedDoctor.pop();\n                break;\n            }\n        }\n    }\n\n    function getPatientDetails(\n        address patientAddress\n    ) public view returns (Patient memory) {\n        return patientList[patientAddress];\n    }\n\n    function createDoctor(\n        User memory userInfo,\n        string memory _qualification,\n        string memory _major\n    ) public {\n        address doctorAddress = userInfo.addr;\n        require(!isDoctor[doctorAddress]);\n\n        isDoctor[doctorAddress] = true;\n        uint timestamp = userInfo.userSince;\n\n        doctorList[doctorAddress].primaryInfo = userInfo;\n        doctorList[doctorAddress].qualification = _qualification;\n        doctorList[doctorAddress].major = _major;\n\n        totalDoctors++;\n\n        doctors[totalDoctors] = doctorAddress;\n\n        emit DoctorCreated(\n            userInfo.addr,\n            userInfo.name,\n            userInfo.IC,\n            timestamp\n        );\n    }\n\n    function setDoctorDetails(\n        User memory userInfo,\n        string memory _qualification,\n        string memory _major\n    ) public {\n        address doctorAddress = userInfo.addr;\n        require(isDoctor[doctorAddress]);\n\n        // Update all except address & userSince\n        doctorList[doctorAddress].primaryInfo.IC = userInfo.IC;\n        doctorList[doctorAddress].primaryInfo.name = userInfo.name;\n        doctorList[doctorAddress].primaryInfo.gender = userInfo.gender;\n        doctorList[doctorAddress].primaryInfo.birthdate = userInfo.birthdate;\n        doctorList[doctorAddress].primaryInfo.email = userInfo.email;\n        doctorList[doctorAddress].primaryInfo.homeAddress = userInfo\n            .homeAddress;\n        doctorList[doctorAddress].primaryInfo.phone = userInfo.phone;\n        doctorList[doctorAddress].qualification = _qualification;\n        doctorList[doctorAddress].major = _major;\n    }\n\n    function getDoctorDetails(\n        address doctorAddress\n    ) public view returns (Doctor memory) {\n        return doctorList[doctorAddress];\n    }\n\n    function createRecord(\n        string memory _encryptedID,\n        // string memory _dataHash,\n        // address _issuerDoctorAddr,\n        address _patientAddr\n    ) public {\n        // require(isDoctor[_issuerDoctorAddr]);\n        // require(isPatient[_patientAddr]);\n\n        // uint timestamp = block.timestamp;\n        // RecordStatus recordStatus = RecordStatus.PENDING;\n\n        // recordList[_encryptedID].encryptedID = _encryptedID;\n        // recordList[_encryptedID].dataHash = _dataHash;\n        // recordList[_encryptedID].issuerDoctorAddr = _issuerDoctorAddr;\n        // recordList[_encryptedID].patientAddr = _patientAddr;\n        // recordList[_encryptedID].timestamp = timestamp;\n        // recordList[_encryptedID].recordStatus = recordStatus;\n\n        patientList[_patientAddr].recordList.push(_encryptedID);\n\n        // emit RecordCreated(\n        //     _encryptedID,\n        //     _dataHash,\n        //     _issuerDoctorAddr,\n        //     timestamp,\n        //     recordStatus,\n        //     _patientAddr\n        // );\n    }\n\n    // function getRecordDetails(\n    //     string memory _encryptedID\n    // ) public view returns (Record memory) {\n    //     return recordList[_encryptedID];\n    // }\n\n    // function editRecord(\n    //     string memory _encryptedID,\n    //     string memory _dataHash,\n    //     RecordStatus _recordStatus\n    // ) public {\n    //     uint timestamp = block.timestamp;\n    //     recordList[_encryptedID].encryptedID = _encryptedID;\n    //     recordList[_encryptedID].dataHash = _dataHash;\n    //     recordList[_encryptedID].timestamp = timestamp;\n    //     recordList[_encryptedID].recordStatus = _recordStatus;\n    // }\n\n    function removeRecord(\n        string memory _encryptedID,\n        address _patientAddress\n    ) public {\n        require(isPatient[_patientAddress]);\n        // delete recordList[_encryptedID];\n\n        for (\n            uint i = 0;\n            i < patientList[_patientAddress].recordList.length;\n            i++\n        ) {\n            if (\n                keccak256(\n                    abi.encodePacked(patientList[_patientAddress].recordList[i])\n                ) == keccak256(abi.encodePacked(_encryptedID))\n            ) {\n                patientList[_patientAddress].recordList[i] = patientList[\n                    _patientAddress\n                ].recordList[\n                        patientList[_patientAddress].recordList.length - 1\n                    ];\n                patientList[_patientAddress].recordList.pop();\n                break;\n            }\n        }\n    }\n}\n",
  "sourcePath": "/Users/vanessachristy/Documents/School Y4S1/FYP/mymedtrust/contracts/MainContract.sol",
  "compiler": {
    "name": "solc",
    "version": "0.8.2+commit.661d1103.Emscripten.clang"
  },
  "schemaVersion": "3.4.15",
  "updatedAt": "2023-11-06T12:13:46.712Z",
  "networkType": "ethereum",
  "devdoc": {
    "kind": "dev",
    "methods": {},
    "version": 1
  },
  "userdoc": {
    "kind": "user",
    "methods": {},
    "version": 1
  }
}